{
  "contractName": "SolJobs",
  "abi": [
    {
      "inputs": [],
      "stateMutability": "nonpayable",
      "type": "constructor"
    },
    {
      "anonymous": false,
      "inputs": [
        {
          "indexed": false,
          "internalType": "uint256",
          "name": "newApplicantID",
          "type": "uint256"
        }
      ],
      "name": "ApplicantProfileCreated",
      "type": "event"
    },
    {
      "anonymous": false,
      "inputs": [
        {
          "indexed": false,
          "internalType": "uint256",
          "name": "applicationID",
          "type": "uint256"
        }
      ],
      "name": "ApplicationSubmitted",
      "type": "event"
    },
    {
      "anonymous": false,
      "inputs": [
        {
          "indexed": false,
          "internalType": "uint256",
          "name": "newCreatorID",
          "type": "uint256"
        }
      ],
      "name": "CreatorProfileCreated",
      "type": "event"
    },
    {
      "anonymous": false,
      "inputs": [
        {
          "indexed": false,
          "internalType": "uint256",
          "name": "newJobID",
          "type": "uint256"
        }
      ],
      "name": "JobCreated",
      "type": "event"
    },
    {
      "inputs": [
        {
          "internalType": "address",
          "name": "",
          "type": "address"
        }
      ],
      "name": "applicantProfiles",
      "outputs": [
        {
          "internalType": "uint256",
          "name": "id",
          "type": "uint256"
        },
        {
          "internalType": "address",
          "name": "applicantAddress",
          "type": "address"
        },
        {
          "internalType": "string",
          "name": "fullname",
          "type": "string"
        },
        {
          "internalType": "string",
          "name": "email",
          "type": "string"
        },
        {
          "internalType": "string",
          "name": "location",
          "type": "string"
        },
        {
          "internalType": "string",
          "name": "bio",
          "type": "string"
        },
        {
          "internalType": "enum ProfileType",
          "name": "profileType",
          "type": "uint8"
        }
      ],
      "stateMutability": "view",
      "type": "function",
      "constant": true
    },
    {
      "inputs": [
        {
          "internalType": "address",
          "name": "",
          "type": "address"
        }
      ],
      "name": "creatorProfiles",
      "outputs": [
        {
          "internalType": "uint256",
          "name": "id",
          "type": "uint256"
        },
        {
          "internalType": "string",
          "name": "email",
          "type": "string"
        },
        {
          "internalType": "string",
          "name": "name",
          "type": "string"
        },
        {
          "internalType": "string",
          "name": "tagline",
          "type": "string"
        },
        {
          "internalType": "string",
          "name": "description",
          "type": "string"
        },
        {
          "internalType": "address",
          "name": "creatorAddress",
          "type": "address"
        },
        {
          "internalType": "bool",
          "name": "verified",
          "type": "bool"
        },
        {
          "internalType": "enum ProfileType",
          "name": "profileType",
          "type": "uint8"
        }
      ],
      "stateMutability": "view",
      "type": "function",
      "constant": true
    },
    {
      "inputs": [
        {
          "internalType": "uint256",
          "name": "",
          "type": "uint256"
        }
      ],
      "name": "jobOffers",
      "outputs": [
        {
          "internalType": "uint256",
          "name": "id",
          "type": "uint256"
        },
        {
          "internalType": "string",
          "name": "title",
          "type": "string"
        },
        {
          "internalType": "string",
          "name": "description",
          "type": "string"
        },
        {
          "internalType": "uint256",
          "name": "compensation",
          "type": "uint256"
        },
        {
          "components": [
            {
              "internalType": "uint256",
              "name": "id",
              "type": "uint256"
            },
            {
              "internalType": "string",
              "name": "email",
              "type": "string"
            },
            {
              "internalType": "string",
              "name": "name",
              "type": "string"
            },
            {
              "internalType": "string",
              "name": "tagline",
              "type": "string"
            },
            {
              "internalType": "string",
              "name": "description",
              "type": "string"
            },
            {
              "internalType": "address",
              "name": "creatorAddress",
              "type": "address"
            },
            {
              "internalType": "bool",
              "name": "verified",
              "type": "bool"
            },
            {
              "internalType": "enum ProfileType",
              "name": "profileType",
              "type": "uint8"
            }
          ],
          "internalType": "struct CreatorProfile",
          "name": "creator",
          "type": "tuple"
        },
        {
          "internalType": "enum JobOfferStatus",
          "name": "status",
          "type": "uint8"
        },
        {
          "internalType": "uint256",
          "name": "numberOfMaxHires",
          "type": "uint256"
        },
        {
          "internalType": "uint256",
          "name": "numberHired",
          "type": "uint256"
        }
      ],
      "stateMutability": "view",
      "type": "function",
      "constant": true
    },
    {
      "inputs": [
        {
          "internalType": "string",
          "name": "_name",
          "type": "string"
        },
        {
          "internalType": "string",
          "name": "_email",
          "type": "string"
        },
        {
          "internalType": "string",
          "name": "_description",
          "type": "string"
        },
        {
          "internalType": "string",
          "name": "_tagline",
          "type": "string"
        }
      ],
      "name": "createCreatorProfile",
      "outputs": [],
      "stateMutability": "nonpayable",
      "type": "function"
    },
    {
      "inputs": [
        {
          "internalType": "string",
          "name": "_fullname",
          "type": "string"
        },
        {
          "internalType": "string",
          "name": "_email",
          "type": "string"
        },
        {
          "internalType": "string",
          "name": "_location",
          "type": "string"
        },
        {
          "internalType": "string",
          "name": "_bio",
          "type": "string"
        }
      ],
      "name": "createApplicantProfile",
      "outputs": [],
      "stateMutability": "nonpayable",
      "type": "function"
    },
    {
      "inputs": [
        {
          "internalType": "address",
          "name": "_address",
          "type": "address"
        },
        {
          "internalType": "string",
          "name": "_name",
          "type": "string"
        },
        {
          "internalType": "string",
          "name": "_description",
          "type": "string"
        },
        {
          "internalType": "string",
          "name": "_tagline",
          "type": "string"
        }
      ],
      "name": "editCreatorProfile",
      "outputs": [],
      "stateMutability": "nonpayable",
      "type": "function"
    },
    {
      "inputs": [
        {
          "internalType": "string",
          "name": "title",
          "type": "string"
        },
        {
          "internalType": "string",
          "name": "description",
          "type": "string"
        },
        {
          "internalType": "uint256",
          "name": "compensation",
          "type": "uint256"
        },
        {
          "internalType": "uint256",
          "name": "numberOfMaxHires",
          "type": "uint256"
        }
      ],
      "name": "createJobOffer",
      "outputs": [],
      "stateMutability": "nonpayable",
      "type": "function"
    },
    {
      "inputs": [
        {
          "internalType": "uint256",
          "name": "jobID",
          "type": "uint256"
        },
        {
          "internalType": "string",
          "name": "coverLetter",
          "type": "string"
        }
      ],
      "name": "applyForJob",
      "outputs": [],
      "stateMutability": "nonpayable",
      "type": "function"
    },
    {
      "inputs": [
        {
          "internalType": "uint256",
          "name": "applicationID",
          "type": "uint256"
        }
      ],
      "name": "approveApplication",
      "outputs": [],
      "stateMutability": "nonpayable",
      "type": "function"
    },
    {
      "inputs": [
        {
          "internalType": "uint256",
          "name": "applicationID",
          "type": "uint256"
        }
      ],
      "name": "rejectApplication",
      "outputs": [],
      "stateMutability": "nonpayable",
      "type": "function"
    },
    {
      "inputs": [
        {
          "internalType": "address",
          "name": "profile",
          "type": "address"
        }
      ],
      "name": "getCreatedJobsForProfile",
      "outputs": [
        {
          "components": [
            {
              "internalType": "uint256",
              "name": "id",
              "type": "uint256"
            },
            {
              "internalType": "string",
              "name": "title",
              "type": "string"
            },
            {
              "internalType": "string",
              "name": "description",
              "type": "string"
            },
            {
              "internalType": "uint256",
              "name": "compensation",
              "type": "uint256"
            },
            {
              "components": [
                {
                  "internalType": "uint256",
                  "name": "id",
                  "type": "uint256"
                },
                {
                  "internalType": "string",
                  "name": "email",
                  "type": "string"
                },
                {
                  "internalType": "string",
                  "name": "name",
                  "type": "string"
                },
                {
                  "internalType": "string",
                  "name": "tagline",
                  "type": "string"
                },
                {
                  "internalType": "string",
                  "name": "description",
                  "type": "string"
                },
                {
                  "internalType": "address",
                  "name": "creatorAddress",
                  "type": "address"
                },
                {
                  "internalType": "bool",
                  "name": "verified",
                  "type": "bool"
                },
                {
                  "internalType": "enum ProfileType",
                  "name": "profileType",
                  "type": "uint8"
                }
              ],
              "internalType": "struct CreatorProfile",
              "name": "creator",
              "type": "tuple"
            },
            {
              "components": [
                {
                  "internalType": "uint256",
                  "name": "id",
                  "type": "uint256"
                },
                {
                  "internalType": "uint256",
                  "name": "jobOfferId",
                  "type": "uint256"
                },
                {
                  "internalType": "string",
                  "name": "coverLetter",
                  "type": "string"
                },
                {
                  "components": [
                    {
                      "internalType": "uint256",
                      "name": "id",
                      "type": "uint256"
                    },
                    {
                      "internalType": "address",
                      "name": "applicantAddress",
                      "type": "address"
                    },
                    {
                      "internalType": "string",
                      "name": "fullname",
                      "type": "string"
                    },
                    {
                      "internalType": "string",
                      "name": "email",
                      "type": "string"
                    },
                    {
                      "internalType": "string",
                      "name": "location",
                      "type": "string"
                    },
                    {
                      "internalType": "string",
                      "name": "bio",
                      "type": "string"
                    },
                    {
                      "internalType": "enum ProfileType",
                      "name": "profileType",
                      "type": "uint8"
                    }
                  ],
                  "internalType": "struct ApplicantProfile",
                  "name": "applicant",
                  "type": "tuple"
                },
                {
                  "internalType": "enum JobApplicationStatus",
                  "name": "status",
                  "type": "uint8"
                }
              ],
              "internalType": "struct JobApplication[]",
              "name": "applications",
              "type": "tuple[]"
            },
            {
              "internalType": "enum JobOfferStatus",
              "name": "status",
              "type": "uint8"
            },
            {
              "internalType": "uint256",
              "name": "numberOfMaxHires",
              "type": "uint256"
            },
            {
              "internalType": "uint256",
              "name": "numberHired",
              "type": "uint256"
            }
          ],
          "internalType": "struct JobOffer[]",
          "name": "",
          "type": "tuple[]"
        }
      ],
      "stateMutability": "view",
      "type": "function",
      "constant": true
    },
    {
      "inputs": [
        {
          "internalType": "address",
          "name": "profile",
          "type": "address"
        }
      ],
      "name": "getApplicationsForProfile",
      "outputs": [
        {
          "components": [
            {
              "internalType": "uint256",
              "name": "id",
              "type": "uint256"
            },
            {
              "internalType": "uint256",
              "name": "jobOfferId",
              "type": "uint256"
            },
            {
              "internalType": "string",
              "name": "coverLetter",
              "type": "string"
            },
            {
              "components": [
                {
                  "internalType": "uint256",
                  "name": "id",
                  "type": "uint256"
                },
                {
                  "internalType": "address",
                  "name": "applicantAddress",
                  "type": "address"
                },
                {
                  "internalType": "string",
                  "name": "fullname",
                  "type": "string"
                },
                {
                  "internalType": "string",
                  "name": "email",
                  "type": "string"
                },
                {
                  "internalType": "string",
                  "name": "location",
                  "type": "string"
                },
                {
                  "internalType": "string",
                  "name": "bio",
                  "type": "string"
                },
                {
                  "internalType": "enum ProfileType",
                  "name": "profileType",
                  "type": "uint8"
                }
              ],
              "internalType": "struct ApplicantProfile",
              "name": "applicant",
              "type": "tuple"
            },
            {
              "internalType": "enum JobApplicationStatus",
              "name": "status",
              "type": "uint8"
            }
          ],
          "internalType": "struct JobApplication[]",
          "name": "",
          "type": "tuple[]"
        }
      ],
      "stateMutability": "view",
      "type": "function",
      "constant": true
    },
    {
      "inputs": [],
      "name": "getAllJobsCreated",
      "outputs": [
        {
          "components": [
            {
              "internalType": "uint256",
              "name": "id",
              "type": "uint256"
            },
            {
              "internalType": "string",
              "name": "title",
              "type": "string"
            },
            {
              "internalType": "string",
              "name": "description",
              "type": "string"
            },
            {
              "internalType": "uint256",
              "name": "compensation",
              "type": "uint256"
            },
            {
              "components": [
                {
                  "internalType": "uint256",
                  "name": "id",
                  "type": "uint256"
                },
                {
                  "internalType": "string",
                  "name": "email",
                  "type": "string"
                },
                {
                  "internalType": "string",
                  "name": "name",
                  "type": "string"
                },
                {
                  "internalType": "string",
                  "name": "tagline",
                  "type": "string"
                },
                {
                  "internalType": "string",
                  "name": "description",
                  "type": "string"
                },
                {
                  "internalType": "address",
                  "name": "creatorAddress",
                  "type": "address"
                },
                {
                  "internalType": "bool",
                  "name": "verified",
                  "type": "bool"
                },
                {
                  "internalType": "enum ProfileType",
                  "name": "profileType",
                  "type": "uint8"
                }
              ],
              "internalType": "struct CreatorProfile",
              "name": "creator",
              "type": "tuple"
            },
            {
              "components": [
                {
                  "internalType": "uint256",
                  "name": "id",
                  "type": "uint256"
                },
                {
                  "internalType": "uint256",
                  "name": "jobOfferId",
                  "type": "uint256"
                },
                {
                  "internalType": "string",
                  "name": "coverLetter",
                  "type": "string"
                },
                {
                  "components": [
                    {
                      "internalType": "uint256",
                      "name": "id",
                      "type": "uint256"
                    },
                    {
                      "internalType": "address",
                      "name": "applicantAddress",
                      "type": "address"
                    },
                    {
                      "internalType": "string",
                      "name": "fullname",
                      "type": "string"
                    },
                    {
                      "internalType": "string",
                      "name": "email",
                      "type": "string"
                    },
                    {
                      "internalType": "string",
                      "name": "location",
                      "type": "string"
                    },
                    {
                      "internalType": "string",
                      "name": "bio",
                      "type": "string"
                    },
                    {
                      "internalType": "enum ProfileType",
                      "name": "profileType",
                      "type": "uint8"
                    }
                  ],
                  "internalType": "struct ApplicantProfile",
                  "name": "applicant",
                  "type": "tuple"
                },
                {
                  "internalType": "enum JobApplicationStatus",
                  "name": "status",
                  "type": "uint8"
                }
              ],
              "internalType": "struct JobApplication[]",
              "name": "applications",
              "type": "tuple[]"
            },
            {
              "internalType": "enum JobOfferStatus",
              "name": "status",
              "type": "uint8"
            },
            {
              "internalType": "uint256",
              "name": "numberOfMaxHires",
              "type": "uint256"
            },
            {
              "internalType": "uint256",
              "name": "numberHired",
              "type": "uint256"
            }
          ],
          "internalType": "struct JobOffer[]",
          "name": "",
          "type": "tuple[]"
        }
      ],
      "stateMutability": "view",
      "type": "function",
      "constant": true
    },
    {
      "inputs": [
        {
          "internalType": "uint256",
          "name": "jobId",
          "type": "uint256"
        }
      ],
      "name": "getApplicationsForJob",
      "outputs": [
        {
          "components": [
            {
              "internalType": "uint256",
              "name": "id",
              "type": "uint256"
            },
            {
              "internalType": "uint256",
              "name": "jobOfferId",
              "type": "uint256"
            },
            {
              "internalType": "string",
              "name": "coverLetter",
              "type": "string"
            },
            {
              "components": [
                {
                  "internalType": "uint256",
                  "name": "id",
                  "type": "uint256"
                },
                {
                  "internalType": "address",
                  "name": "applicantAddress",
                  "type": "address"
                },
                {
                  "internalType": "string",
                  "name": "fullname",
                  "type": "string"
                },
                {
                  "internalType": "string",
                  "name": "email",
                  "type": "string"
                },
                {
                  "internalType": "string",
                  "name": "location",
                  "type": "string"
                },
                {
                  "internalType": "string",
                  "name": "bio",
                  "type": "string"
                },
                {
                  "internalType": "enum ProfileType",
                  "name": "profileType",
                  "type": "uint8"
                }
              ],
              "internalType": "struct ApplicantProfile",
              "name": "applicant",
              "type": "tuple"
            },
            {
              "internalType": "enum JobApplicationStatus",
              "name": "status",
              "type": "uint8"
            }
          ],
          "internalType": "struct JobApplication[]",
          "name": "",
          "type": "tuple[]"
        }
      ],
      "stateMutability": "view",
      "type": "function",
      "constant": true
    }
  ],
  "bytecode": "0x608060405234801561001057600080fd5b50336000806101000a81548173ffffffffffffffffffffffffffffffffffffffff021916908373ffffffffffffffffffffffffffffffffffffffff160217905550615ee480620000616000396000f3fe608060405234801561001057600080fd5b50600436106100ea5760003560e01c80638f6703941161008c578063a7f718a011610066578063a7f718a014610266578063c573433514610282578063c5e83e97146102b2578063e06f7484146102ce576100ea565b80638f670394146101db57806392b2a791146101f957806395b04be21461022f576100ea565b80632ae4bc55116100c85780632ae4bc55146101575780634d91e57d146101735780636c09a5e3146101a357806387e6446f146101bf576100ea565b8063193f394f146100ef5780631951d0af1461011f578063213fbf1b1461013b575b600080fd5b610109600480360381019061010491906148e5565b610305565b6040516101169190614c79565b60405180910390f35b61013960048036038101906101349190614d00565b61077b565b005b61015560048036038101906101509190614df5565b610890565b005b610171600480360381019061016c9190614e22565b610bdd565b005b61018d60048036038101906101889190614df5565b611009565b60405161019a9190614c79565b60405180910390f35b6101bd60048036038101906101b89190614f0b565b611471565b005b6101d960048036038101906101d49190614e22565b611bcf565b005b6101e3611fde565b6040516101f091906152b5565b60405180910390f35b610213600480360381019061020e91906148e5565b61290f565b604051610226979695949392919061534e565b60405180910390f35b610249600480360381019061024491906148e5565b612b9e565b60405161025d9897969594939291906153e8565b60405180910390f35b610280600480360381019061027b9190615482565b612e40565b005b61029c600480360381019061029791906148e5565b61367f565b6040516102a991906152b5565b60405180910390f35b6102cc60048036038101906102c79190614df5565b613fef565b005b6102e860048036038101906102e39190614df5565b614103565b6040516102fc9897969594939291906155fd565b60405180910390f35b6060600c60008373ffffffffffffffffffffffffffffffffffffffff1673ffffffffffffffffffffffffffffffffffffffff168152602001908152602001600020805480602002602001604051908101604052809291908181526020016000905b8282101561077057838290600052602060002090600b02016040518060a001604052908160008201548152602001600182015481526020016002820180546103ad906156bf565b80601f01602080910402602001604051908101604052809291908181526020018280546103d9906156bf565b80156104265780601f106103fb57610100808354040283529160200191610426565b820191906000526020600020905b81548152906001019060200180831161040957829003601f168201915b50505050508152602001600382016040518060e0016040529081600082015481526020016001820160009054906101000a900473ffffffffffffffffffffffffffffffffffffffff1673ffffffffffffffffffffffffffffffffffffffff1673ffffffffffffffffffffffffffffffffffffffff1681526020016002820180546104af906156bf565b80601f01602080910402602001604051908101604052809291908181526020018280546104db906156bf565b80156105285780601f106104fd57610100808354040283529160200191610528565b820191906000526020600020905b81548152906001019060200180831161050b57829003601f168201915b50505050508152602001600382018054610541906156bf565b80601f016020809104026020016040519081016040528092919081815260200182805461056d906156bf565b80156105ba5780601f1061058f576101008083540402835291602001916105ba565b820191906000526020600020905b81548152906001019060200180831161059d57829003601f168201915b505050505081526020016004820180546105d3906156bf565b80601f01602080910402602001604051908101604052809291908181526020018280546105ff906156bf565b801561064c5780601f106106215761010080835404028352916020019161064c565b820191906000526020600020905b81548152906001019060200180831161062f57829003601f168201915b50505050508152602001600582018054610665906156bf565b80601f0160208091040260200160405190810160405280929190818152602001828054610691906156bf565b80156106de5780601f106106b3576101008083540402835291602001916106de565b820191906000526020600020905b8154815290600101906020018083116106c157829003601f168201915b505050505081526020016006820160009054906101000a900460ff16600181111561070c5761070b6149f6565b5b600181111561071e5761071d6149f6565b5b815250508152602001600a820160009054906101000a900460ff16600281111561074b5761074a6149f6565b5b600281111561075d5761075c6149f6565b5b8152505081526020019060010190610366565b505050509050919050565b600760008873ffffffffffffffffffffffffffffffffffffffff1673ffffffffffffffffffffffffffffffffffffffff16815260200190815260200160002060009054906101000a900460ff16610807576040517f08c379a00000000000000000000000000000000000000000000000000000000081526004016107fe9061573c565b60405180910390fd5b6000600160008973ffffffffffffffffffffffffffffffffffffffff1673ffffffffffffffffffffffffffffffffffffffff1681526020019081526020016000209050868682600201918261085d929190615942565b508484826004019182610871929190615942565b508282826003019182610885929190615942565b505050505050505050565b3260011515600760008373ffffffffffffffffffffffffffffffffffffffff1673ffffffffffffffffffffffffffffffffffffffff16815260200190815260200160002060009054906101000a900460ff161515146040518060600160405280602a8152602001615df2602a91399061093f576040517f08c379a00000000000000000000000000000000000000000000000000000000081526004016109369190615a12565b60405180910390fd5b506000600a6001846109519190615a63565b8154811061096257610961615a97565b5b90600052602060002090600b0201905060006009600183600101546109879190615a63565b8154811061099857610997615a97565b5b90600052602060002090600e0201905080600c015481600d015410604051806060016040528060358152602001615e7a6035913990610a0d576040517f08c379a0000000000000000000000000000000000000000000000000000000008152600401610a049190615a12565b60405180910390fd5b5060006002811115610a2257610a216149f6565b5b81600b0160009054906101000a900460ff166002811115610a4657610a456149f6565b5b14604051806060016040528060318152602001615e496031913990610aa1576040517f08c379a0000000000000000000000000000000000000000000000000000000008152600401610a989190615a12565b60405180910390fd5b5060006002811115610ab657610ab56149f6565b5b82600a0160009054906101000a900460ff166002811115610ada57610ad96149f6565b5b146040518060400160405280601b81526020017f546865206170706c69636174696f6e206973206e6f74206f70656e000000000081525090610b52576040517f08c379a0000000000000000000000000000000000000000000000000000000008152600401610b499190615a12565b60405180910390fd5b50600182600a0160006101000a81548160ff02191690836002811115610b7b57610b7a6149f6565b5b021790555080600d016000815480929190610b9590615ac6565b919050555080600c015481600d015403610bd757600181600b0160006101000a81548160ff02191690836002811115610bd157610bd06149f6565b5b02179055505b50505050565b85856000151560058383604051610bf5929190615b4d565b908152602001604051809103902060009054906101000a900460ff161515148015610c5157506000151560068383604051610c31929190615b4d565b908152602001604051809103902060009054906101000a900460ff161515145b6040518060400160405280601581526020017f456d61696c20616c72656164792065786973747321000000000000000000000081525090610cc8576040517f08c379a0000000000000000000000000000000000000000000000000000000008152600401610cbf9190615a12565b60405180910390fd5b5060001515600760003273ffffffffffffffffffffffffffffffffffffffff1673ffffffffffffffffffffffffffffffffffffffff16815260200190815260200160002060009054906101000a900460ff161515148015610d79575060001515600860003273ffffffffffffffffffffffffffffffffffffffff1673ffffffffffffffffffffffffffffffffffffffff16815260200190815260200160002060009054906101000a900460ff161515145b6040518060400160405280601781526020017f4164647265737320616c7265616479206578697374732100000000000000000081525090610df0576040517f08c379a0000000000000000000000000000000000000000000000000000000008152600401610de79190615a12565b60405180910390fd5b506000600360008154610e0290615ac6565b91905081905590506000600160003273ffffffffffffffffffffffffffffffffffffffff1673ffffffffffffffffffffffffffffffffffffffff16815260200190815260200160002090508181600001819055508b8b826002019182610e69929190615942565b508989826001019182610e7d929190615942565b508787826004019182610e91929190615942565b508585826003019182610ea5929190615942565b50600160058b8b604051610eba929190615b4d565b908152602001604051809103902060006101000a81548160ff0219169083151502179055506001600760003273ffffffffffffffffffffffffffffffffffffffff1673ffffffffffffffffffffffffffffffffffffffff16815260200190815260200160002060006101000a81548160ff02191690831515021790555060008160050160146101000a81548160ff02191690831515021790555060008160050160156101000a81548160ff02191690836001811115610f7c57610f7b6149f6565b5b0217905550328160050160006101000a81548173ffffffffffffffffffffffffffffffffffffffff021916908373ffffffffffffffffffffffffffffffffffffffff1602179055507fd1a7c154123ed5a80a1f9c4596757daf4b73c53e8bc15299d58a4be0ca50581482604051610ff39190615b66565b60405180910390a1505050505050505050505050565b6060600960018361101a9190615a63565b8154811061102b5761102a615a97565b5b90600052602060002090600e0201600a01805480602002602001604051908101604052809291908181526020016000905b8282101561146657838290600052602060002090600b02016040518060a001604052908160008201548152602001600182015481526020016002820180546110a3906156bf565b80601f01602080910402602001604051908101604052809291908181526020018280546110cf906156bf565b801561111c5780601f106110f15761010080835404028352916020019161111c565b820191906000526020600020905b8154815290600101906020018083116110ff57829003601f168201915b50505050508152602001600382016040518060e0016040529081600082015481526020016001820160009054906101000a900473ffffffffffffffffffffffffffffffffffffffff1673ffffffffffffffffffffffffffffffffffffffff1673ffffffffffffffffffffffffffffffffffffffff1681526020016002820180546111a5906156bf565b80601f01602080910402602001604051908101604052809291908181526020018280546111d1906156bf565b801561121e5780601f106111f35761010080835404028352916020019161121e565b820191906000526020600020905b81548152906001019060200180831161120157829003601f168201915b50505050508152602001600382018054611237906156bf565b80601f0160208091040260200160405190810160405280929190818152602001828054611263906156bf565b80156112b05780601f10611285576101008083540402835291602001916112b0565b820191906000526020600020905b81548152906001019060200180831161129357829003601f168201915b505050505081526020016004820180546112c9906156bf565b80601f01602080910402602001604051908101604052809291908181526020018280546112f5906156bf565b80156113425780601f1061131757610100808354040283529160200191611342565b820191906000526020600020905b81548152906001019060200180831161132557829003601f168201915b5050505050815260200160058201805461135b906156bf565b80601f0160208091040260200160405190810160405280929190818152602001828054611387906156bf565b80156113d45780601f106113a9576101008083540402835291602001916113d4565b820191906000526020600020905b8154815290600101906020018083116113b757829003601f168201915b505050505081526020016006820160009054906101000a900460ff166001811115611402576114016149f6565b5b6001811115611414576114136149f6565b5b815250508152602001600a820160009054906101000a900460ff166002811115611441576114406149f6565b5b6002811115611453576114526149f6565b5b815250508152602001906001019061105c565b505050509050919050565b3260011515600860008373ffffffffffffffffffffffffffffffffffffffff1673ffffffffffffffffffffffffffffffffffffffff16815260200190815260200160002060009054906101000a900460ff161515146040518060600160405280602d8152602001615e1c602d913990611520576040517f08c379a00000000000000000000000000000000000000000000000000000000081526004016115179190615a12565b60405180910390fd5b5060008411801561153657506009805490508411155b611575576040517f08c379a000000000000000000000000000000000000000000000000000000000815260040161156c90615bcd565b60405180910390fd5b60006001600a805490506115899190615bed565b90506000600960018761159c9190615a63565b815481106115ad576115ac615a97565b5b90600052602060002090600e02019050600060028111156115d1576115d06149f6565b5b81600b0160009054906101000a900460ff1660028111156115f5576115f46149f6565b5b14604051806060016040528060318152602001615e496031913990611650576040517f08c379a00000000000000000000000000000000000000000000000000000000081526004016116479190615a12565b60405180910390fd5b506000600a6001816001815401808255809150500390600052602060002090600b02019050828160000181905550868160010181905550858582600201918261169a929190615942565b50600260003273ffffffffffffffffffffffffffffffffffffffff1673ffffffffffffffffffffffffffffffffffffffff16815260200190815260200160002081600301600082015481600001556001820160009054906101000a900473ffffffffffffffffffffffffffffffffffffffff168160010160006101000a81548173ffffffffffffffffffffffffffffffffffffffff021916908373ffffffffffffffffffffffffffffffffffffffff160217905550600282018160020190816117639190615c37565b50600382018160030190816117789190615c37565b506004820181600401908161178d9190615c37565b50600582018160050190816117a29190615c37565b506006820160009054906101000a900460ff168160060160006101000a81548160ff021916908360018111156117db576117da6149f6565b5b0217905550905050600081600a0160006101000a81548160ff0219169083600281111561180b5761180a6149f6565b5b021790555081600a018190806001815401808255809150506001900390600052602060002090600b02016000909190919091506000820154816000015560018201548160010155600282018160020190816118669190615c37565b506003820181600301600082015481600001556001820160009054906101000a900473ffffffffffffffffffffffffffffffffffffffff168160010160006101000a81548173ffffffffffffffffffffffffffffffffffffffff021916908373ffffffffffffffffffffffffffffffffffffffff160217905550600282018160020190816118f49190615c37565b50600382018160030190816119099190615c37565b506004820181600401908161191e9190615c37565b50600582018160050190816119339190615c37565b506006820160009054906101000a900460ff168160060160006101000a81548160ff0219169083600181111561196c5761196b6149f6565b5b02179055505050600a820160009054906101000a900460ff1681600a0160006101000a81548160ff021916908360028111156119ab576119aa6149f6565b5b02179055505050600c60003273ffffffffffffffffffffffffffffffffffffffff1673ffffffffffffffffffffffffffffffffffffffff1681526020019081526020016000208190806001815401808255809150506001900390600052602060002090600b0201600090919091909150600082015481600001556001820154816001015560028201816002019081611a439190615c37565b506003820181600301600082015481600001556001820160009054906101000a900473ffffffffffffffffffffffffffffffffffffffff168160010160006101000a81548173ffffffffffffffffffffffffffffffffffffffff021916908373ffffffffffffffffffffffffffffffffffffffff16021790555060028201816002019081611ad19190615c37565b5060038201816003019081611ae69190615c37565b5060048201816004019081611afb9190615c37565b5060058201816005019081611b109190615c37565b506006820160009054906101000a900460ff168160060160006101000a81548160ff02191690836001811115611b4957611b486149f6565b5b02179055505050600a820160009054906101000a900460ff1681600a0160006101000a81548160ff02191690836002811115611b8857611b876149f6565b5b021790555050507f4b6126472f7a5c1a21fe858797a6bb6ed361c62b74d480965163d30d68576d4f83604051611bbe9190615b66565b60405180910390a150505050505050565b85856000151560058383604051611be7929190615b4d565b908152602001604051809103902060009054906101000a900460ff161515148015611c4357506000151560068383604051611c23929190615b4d565b908152602001604051809103902060009054906101000a900460ff161515145b6040518060400160405280601581526020017f456d61696c20616c72656164792065786973747321000000000000000000000081525090611cba576040517f08c379a0000000000000000000000000000000000000000000000000000000008152600401611cb19190615a12565b60405180910390fd5b5060001515600760003273ffffffffffffffffffffffffffffffffffffffff1673ffffffffffffffffffffffffffffffffffffffff16815260200190815260200160002060009054906101000a900460ff161515148015611d6b575060001515600860003273ffffffffffffffffffffffffffffffffffffffff1673ffffffffffffffffffffffffffffffffffffffff16815260200190815260200160002060009054906101000a900460ff161515145b6040518060400160405280601781526020017f4164647265737320616c7265616479206578697374732100000000000000000081525090611de2576040517f08c379a0000000000000000000000000000000000000000000000000000000008152600401611dd99190615a12565b60405180910390fd5b506000600460008154611df490615ac6565b91905081905590506000600260003273ffffffffffffffffffffffffffffffffffffffff1673ffffffffffffffffffffffffffffffffffffffff16815260200190815260200160002090508181600001819055508b8b826002019182611e5b929190615942565b508989826003019182611e6f929190615942565b508787826004019182611e83929190615942565b508585826005019182611e97929190615942565b50600160068b8b604051611eac929190615b4d565b908152602001604051809103902060006101000a81548160ff0219169083151502179055506001600860003273ffffffffffffffffffffffffffffffffffffffff1673ffffffffffffffffffffffffffffffffffffffff16815260200190815260200160002060006101000a81548160ff02191690831515021790555060018160060160006101000a81548160ff02191690836001811115611f5157611f506149f6565b5b0217905550328160010160006101000a81548173ffffffffffffffffffffffffffffffffffffffff021916908373ffffffffffffffffffffffffffffffffffffffff1602179055507f7a7674d49ab4ac57338891a3e15ebdbe5e6abbb1637fc6c5cfa506e2fa360ad082604051611fc89190615b66565b60405180910390a1505050505050505050505050565b60606009805480602002602001604051908101604052809291908181526020016000905b8282101561290657838290600052602060002090600e02016040518061012001604052908160008201548152602001600182018054612040906156bf565b80601f016020809104026020016040519081016040528092919081815260200182805461206c906156bf565b80156120b95780601f1061208e576101008083540402835291602001916120b9565b820191906000526020600020905b81548152906001019060200180831161209c57829003601f168201915b505050505081526020016002820180546120d2906156bf565b80601f01602080910402602001604051908101604052809291908181526020018280546120fe906156bf565b801561214b5780601f106121205761010080835404028352916020019161214b565b820191906000526020600020905b81548152906001019060200180831161212e57829003601f168201915b5050505050815260200160038201548152602001600482016040518061010001604052908160008201548152602001600182018054612189906156bf565b80601f01602080910402602001604051908101604052809291908181526020018280546121b5906156bf565b80156122025780601f106121d757610100808354040283529160200191612202565b820191906000526020600020905b8154815290600101906020018083116121e557829003601f168201915b5050505050815260200160028201805461221b906156bf565b80601f0160208091040260200160405190810160405280929190818152602001828054612247906156bf565b80156122945780601f1061226957610100808354040283529160200191612294565b820191906000526020600020905b81548152906001019060200180831161227757829003601f168201915b505050505081526020016003820180546122ad906156bf565b80601f01602080910402602001604051908101604052809291908181526020018280546122d9906156bf565b80156123265780601f106122fb57610100808354040283529160200191612326565b820191906000526020600020905b81548152906001019060200180831161230957829003601f168201915b5050505050815260200160048201805461233f906156bf565b80601f016020809104026020016040519081016040528092919081815260200182805461236b906156bf565b80156123b85780601f1061238d576101008083540402835291602001916123b8565b820191906000526020600020905b81548152906001019060200180831161239b57829003601f168201915b505050505081526020016005820160009054906101000a900473ffffffffffffffffffffffffffffffffffffffff1673ffffffffffffffffffffffffffffffffffffffff1673ffffffffffffffffffffffffffffffffffffffff1681526020016005820160149054906101000a900460ff161515151581526020016005820160159054906101000a900460ff166001811115612457576124566149f6565b5b6001811115612469576124686149f6565b5b815250508152602001600a8201805480602002602001604051908101604052809291908181526020016000905b828210156128a057838290600052602060002090600b02016040518060a001604052908160008201548152602001600182015481526020016002820180546124dd906156bf565b80601f0160208091040260200160405190810160405280929190818152602001828054612509906156bf565b80156125565780601f1061252b57610100808354040283529160200191612556565b820191906000526020600020905b81548152906001019060200180831161253957829003601f168201915b50505050508152602001600382016040518060e0016040529081600082015481526020016001820160009054906101000a900473ffffffffffffffffffffffffffffffffffffffff1673ffffffffffffffffffffffffffffffffffffffff1673ffffffffffffffffffffffffffffffffffffffff1681526020016002820180546125df906156bf565b80601f016020809104026020016040519081016040528092919081815260200182805461260b906156bf565b80156126585780601f1061262d57610100808354040283529160200191612658565b820191906000526020600020905b81548152906001019060200180831161263b57829003601f168201915b50505050508152602001600382018054612671906156bf565b80601f016020809104026020016040519081016040528092919081815260200182805461269d906156bf565b80156126ea5780601f106126bf576101008083540402835291602001916126ea565b820191906000526020600020905b8154815290600101906020018083116126cd57829003601f168201915b50505050508152602001600482018054612703906156bf565b80601f016020809104026020016040519081016040528092919081815260200182805461272f906156bf565b801561277c5780601f106127515761010080835404028352916020019161277c565b820191906000526020600020905b81548152906001019060200180831161275f57829003601f168201915b50505050508152602001600582018054612795906156bf565b80601f01602080910402602001604051908101604052809291908181526020018280546127c1906156bf565b801561280e5780601f106127e35761010080835404028352916020019161280e565b820191906000526020600020905b8154815290600101906020018083116127f157829003601f168201915b505050505081526020016006820160009054906101000a900460ff16600181111561283c5761283b6149f6565b5b600181111561284e5761284d6149f6565b5b815250508152602001600a820160009054906101000a900460ff16600281111561287b5761287a6149f6565b5b600281111561288d5761288c6149f6565b5b8152505081526020019060010190612496565b505050508152602001600b820160009054906101000a900460ff1660028111156128cd576128cc6149f6565b5b60028111156128df576128de6149f6565b5b8152602001600c8201548152602001600d8201548152505081526020019060010190612002565b50505050905090565b60026020528060005260406000206000915090508060000154908060010160009054906101000a900473ffffffffffffffffffffffffffffffffffffffff169080600201805461295e906156bf565b80601f016020809104026020016040519081016040528092919081815260200182805461298a906156bf565b80156129d75780601f106129ac576101008083540402835291602001916129d7565b820191906000526020600020905b8154815290600101906020018083116129ba57829003601f168201915b5050505050908060030180546129ec906156bf565b80601f0160208091040260200160405190810160405280929190818152602001828054612a18906156bf565b8015612a655780601f10612a3a57610100808354040283529160200191612a65565b820191906000526020600020905b815481529060010190602001808311612a4857829003601f168201915b505050505090806004018054612a7a906156bf565b80601f0160208091040260200160405190810160405280929190818152602001828054612aa6906156bf565b8015612af35780601f10612ac857610100808354040283529160200191612af3565b820191906000526020600020905b815481529060010190602001808311612ad657829003601f168201915b505050505090806005018054612b08906156bf565b80601f0160208091040260200160405190810160405280929190818152602001828054612b34906156bf565b8015612b815780601f10612b5657610100808354040283529160200191612b81565b820191906000526020600020905b815481529060010190602001808311612b6457829003601f168201915b5050505050908060060160009054906101000a900460ff16905087565b6001602052806000526040600020600091509050806000015490806001018054612bc7906156bf565b80601f0160208091040260200160405190810160405280929190818152602001828054612bf3906156bf565b8015612c405780601f10612c1557610100808354040283529160200191612c40565b820191906000526020600020905b815481529060010190602001808311612c2357829003601f168201915b505050505090806002018054612c55906156bf565b80601f0160208091040260200160405190810160405280929190818152602001828054612c81906156bf565b8015612cce5780601f10612ca357610100808354040283529160200191612cce565b820191906000526020600020905b815481529060010190602001808311612cb157829003601f168201915b505050505090806003018054612ce3906156bf565b80601f0160208091040260200160405190810160405280929190818152602001828054612d0f906156bf565b8015612d5c5780601f10612d3157610100808354040283529160200191612d5c565b820191906000526020600020905b815481529060010190602001808311612d3f57829003601f168201915b505050505090806004018054612d71906156bf565b80601f0160208091040260200160405190810160405280929190818152602001828054612d9d906156bf565b8015612dea5780601f10612dbf57610100808354040283529160200191612dea565b820191906000526020600020905b815481529060010190602001808311612dcd57829003601f168201915b5050505050908060050160009054906101000a900473ffffffffffffffffffffffffffffffffffffffff16908060050160149054906101000a900460ff16908060050160159054906101000a900460ff16905088565b3260011515600760008373ffffffffffffffffffffffffffffffffffffffff1673ffffffffffffffffffffffffffffffffffffffff16815260200190815260200160002060009054906101000a900460ff161515146040518060600160405280602a8152602001615df2602a913990612eef576040517f08c379a0000000000000000000000000000000000000000000000000000000008152600401612ee69190615a12565b60405180910390fd5b5060006001600980549050612f049190615bed565b9050600060096001816001815401808255809150500390600052602060002090600e020190508181600001819055508888826001019182612f46929190615942565b508686826002019182612f5a929190615942565b508481600301819055508381600c01819055506000600160003273ffffffffffffffffffffffffffffffffffffffff1673ffffffffffffffffffffffffffffffffffffffff1681526020019081526020016000206040518061010001604052908160008201548152602001600182018054612fd4906156bf565b80601f0160208091040260200160405190810160405280929190818152602001828054613000906156bf565b801561304d5780601f106130225761010080835404028352916020019161304d565b820191906000526020600020905b81548152906001019060200180831161303057829003601f168201915b50505050508152602001600282018054613066906156bf565b80601f0160208091040260200160405190810160405280929190818152602001828054613092906156bf565b80156130df5780601f106130b4576101008083540402835291602001916130df565b820191906000526020600020905b8154815290600101906020018083116130c257829003601f168201915b505050505081526020016003820180546130f8906156bf565b80601f0160208091040260200160405190810160405280929190818152602001828054613124906156bf565b80156131715780601f1061314657610100808354040283529160200191613171565b820191906000526020600020905b81548152906001019060200180831161315457829003601f168201915b5050505050815260200160048201805461318a906156bf565b80601f01602080910402602001604051908101604052809291908181526020018280546131b6906156bf565b80156132035780601f106131d857610100808354040283529160200191613203565b820191906000526020600020905b8154815290600101906020018083116131e657829003601f168201915b505050505081526020016005820160009054906101000a900473ffffffffffffffffffffffffffffffffffffffff1673ffffffffffffffffffffffffffffffffffffffff1673ffffffffffffffffffffffffffffffffffffffff1681526020016005820160149054906101000a900460ff161515151581526020016005820160159054906101000a900460ff1660018111156132a2576132a16149f6565b5b60018111156132b4576132b36149f6565b5b81525050905080826004016000820151816000015560208201518160010190816132de9190615d1f565b5060408201518160020190816132f49190615d1f565b50606082015181600301908161330a9190615d1f565b5060808201518160040190816133209190615d1f565b5060a08201518160050160006101000a81548173ffffffffffffffffffffffffffffffffffffffff021916908373ffffffffffffffffffffffffffffffffffffffff16021790555060c08201518160050160146101000a81548160ff02191690831515021790555060e08201518160050160156101000a81548160ff021916908360018111156133b3576133b26149f6565b5b0217905550905050600082600b0160006101000a81548160ff021916908360028111156133e3576133e26149f6565b5b0217905550600082600d0181905550600b60003273ffffffffffffffffffffffffffffffffffffffff1673ffffffffffffffffffffffffffffffffffffffff1681526020019081526020016000208290806001815401808255809150506001900390600052602060002090600e020160009091909190915060008201548160000155600182018160010190816134799190615c37565b506002820181600201908161348e9190615c37565b5060038201548160030155600482018160040160008201548160000155600182018160010190816134bf9190615c37565b50600282018160020190816134d49190615c37565b50600382018160030190816134e99190615c37565b50600482018160040190816134fe9190615c37565b506005820160009054906101000a900473ffffffffffffffffffffffffffffffffffffffff168160050160006101000a81548173ffffffffffffffffffffffffffffffffffffffff021916908373ffffffffffffffffffffffffffffffffffffffff1602179055506005820160149054906101000a900460ff168160050160146101000a81548160ff0219169083151502179055506005820160159054906101000a900460ff168160050160156101000a81548160ff021916908360018111156135cb576135ca6149f6565b5b02179055505050600a820181600a019080546135e8929190614581565b50600b820160009054906101000a900460ff1681600b0160006101000a81548160ff02191690836002811115613621576136206149f6565b5b0217905550600c82015481600c0155600d82015481600d015550507f92447c6ecd808d390fb352da0dc90a05275b074c43bf302132a27fabafa6872b8360405161366b9190615b66565b60405180910390a150505050505050505050565b6060600b60008373ffffffffffffffffffffffffffffffffffffffff1673ffffffffffffffffffffffffffffffffffffffff168152602001908152602001600020805480602002602001604051908101604052809291908181526020016000905b82821015613fe457838290600052602060002090600e0201604051806101200160405290816000820154815260200160018201805461371e906156bf565b80601f016020809104026020016040519081016040528092919081815260200182805461374a906156bf565b80156137975780601f1061376c57610100808354040283529160200191613797565b820191906000526020600020905b81548152906001019060200180831161377a57829003601f168201915b505050505081526020016002820180546137b0906156bf565b80601f01602080910402602001604051908101604052809291908181526020018280546137dc906156bf565b80156138295780601f106137fe57610100808354040283529160200191613829565b820191906000526020600020905b81548152906001019060200180831161380c57829003601f168201915b5050505050815260200160038201548152602001600482016040518061010001604052908160008201548152602001600182018054613867906156bf565b80601f0160208091040260200160405190810160405280929190818152602001828054613893906156bf565b80156138e05780601f106138b5576101008083540402835291602001916138e0565b820191906000526020600020905b8154815290600101906020018083116138c357829003601f168201915b505050505081526020016002820180546138f9906156bf565b80601f0160208091040260200160405190810160405280929190818152602001828054613925906156bf565b80156139725780601f1061394757610100808354040283529160200191613972565b820191906000526020600020905b81548152906001019060200180831161395557829003601f168201915b5050505050815260200160038201805461398b906156bf565b80601f01602080910402602001604051908101604052809291908181526020018280546139b7906156bf565b8015613a045780601f106139d957610100808354040283529160200191613a04565b820191906000526020600020905b8154815290600101906020018083116139e757829003601f168201915b50505050508152602001600482018054613a1d906156bf565b80601f0160208091040260200160405190810160405280929190818152602001828054613a49906156bf565b8015613a965780601f10613a6b57610100808354040283529160200191613a96565b820191906000526020600020905b815481529060010190602001808311613a7957829003601f168201915b505050505081526020016005820160009054906101000a900473ffffffffffffffffffffffffffffffffffffffff1673ffffffffffffffffffffffffffffffffffffffff1673ffffffffffffffffffffffffffffffffffffffff1681526020016005820160149054906101000a900460ff161515151581526020016005820160159054906101000a900460ff166001811115613b3557613b346149f6565b5b6001811115613b4757613b466149f6565b5b815250508152602001600a8201805480602002602001604051908101604052809291908181526020016000905b82821015613f7e57838290600052602060002090600b02016040518060a00160405290816000820154815260200160018201548152602001600282018054613bbb906156bf565b80601f0160208091040260200160405190810160405280929190818152602001828054613be7906156bf565b8015613c345780601f10613c0957610100808354040283529160200191613c34565b820191906000526020600020905b815481529060010190602001808311613c1757829003601f168201915b50505050508152602001600382016040518060e0016040529081600082015481526020016001820160009054906101000a900473ffffffffffffffffffffffffffffffffffffffff1673ffffffffffffffffffffffffffffffffffffffff1673ffffffffffffffffffffffffffffffffffffffff168152602001600282018054613cbd906156bf565b80601f0160208091040260200160405190810160405280929190818152602001828054613ce9906156bf565b8015613d365780601f10613d0b57610100808354040283529160200191613d36565b820191906000526020600020905b815481529060010190602001808311613d1957829003601f168201915b50505050508152602001600382018054613d4f906156bf565b80601f0160208091040260200160405190810160405280929190818152602001828054613d7b906156bf565b8015613dc85780601f10613d9d57610100808354040283529160200191613dc8565b820191906000526020600020905b815481529060010190602001808311613dab57829003601f168201915b50505050508152602001600482018054613de1906156bf565b80601f0160208091040260200160405190810160405280929190818152602001828054613e0d906156bf565b8015613e5a5780601f10613e2f57610100808354040283529160200191613e5a565b820191906000526020600020905b815481529060010190602001808311613e3d57829003601f168201915b50505050508152602001600582018054613e73906156bf565b80601f0160208091040260200160405190810160405280929190818152602001828054613e9f906156bf565b8015613eec5780601f10613ec157610100808354040283529160200191613eec565b820191906000526020600020905b815481529060010190602001808311613ecf57829003601f168201915b505050505081526020016006820160009054906101000a900460ff166001811115613f1a57613f196149f6565b5b6001811115613f2c57613f2b6149f6565b5b815250508152602001600a820160009054906101000a900460ff166002811115613f5957613f586149f6565b5b6002811115613f6b57613f6a6149f6565b5b8152505081526020019060010190613b74565b505050508152602001600b820160009054906101000a900460ff166002811115613fab57613faa6149f6565b5b6002811115613fbd57613fbc6149f6565b5b8152602001600c8201548152602001600d82015481525050815260200190600101906136e0565b505050509050919050565b3260011515600760008373ffffffffffffffffffffffffffffffffffffffff1673ffffffffffffffffffffffffffffffffffffffff16815260200190815260200160002060009054906101000a900460ff161515146040518060600160405280602a8152602001615df2602a91399061409e576040517f08c379a00000000000000000000000000000000000000000000000000000000081526004016140959190615a12565b60405180910390fd5b506000600a6001846140b09190615a63565b815481106140c1576140c0615a97565b5b90600052602060002090600b02019050600281600a0160006101000a81548160ff021916908360028111156140f9576140f86149f6565b5b0217905550505050565b6009818154811061411357600080fd5b90600052602060002090600e020160009150905080600001549080600101805461413c906156bf565b80601f0160208091040260200160405190810160405280929190818152602001828054614168906156bf565b80156141b55780601f1061418a576101008083540402835291602001916141b5565b820191906000526020600020905b81548152906001019060200180831161419857829003601f168201915b5050505050908060020180546141ca906156bf565b80601f01602080910402602001604051908101604052809291908181526020018280546141f6906156bf565b80156142435780601f1061421857610100808354040283529160200191614243565b820191906000526020600020905b81548152906001019060200180831161422657829003601f168201915b505050505090806003015490806004016040518061010001604052908160008201548152602001600182018054614279906156bf565b80601f01602080910402602001604051908101604052809291908181526020018280546142a5906156bf565b80156142f25780601f106142c7576101008083540402835291602001916142f2565b820191906000526020600020905b8154815290600101906020018083116142d557829003601f168201915b5050505050815260200160028201805461430b906156bf565b80601f0160208091040260200160405190810160405280929190818152602001828054614337906156bf565b80156143845780601f1061435957610100808354040283529160200191614384565b820191906000526020600020905b81548152906001019060200180831161436757829003601f168201915b5050505050815260200160038201805461439d906156bf565b80601f01602080910402602001604051908101604052809291908181526020018280546143c9906156bf565b80156144165780601f106143eb57610100808354040283529160200191614416565b820191906000526020600020905b8154815290600101906020018083116143f957829003601f168201915b5050505050815260200160048201805461442f906156bf565b80601f016020809104026020016040519081016040528092919081815260200182805461445b906156bf565b80156144a85780601f1061447d576101008083540402835291602001916144a8565b820191906000526020600020905b81548152906001019060200180831161448b57829003601f168201915b505050505081526020016005820160009054906101000a900473ffffffffffffffffffffffffffffffffffffffff1673ffffffffffffffffffffffffffffffffffffffff1673ffffffffffffffffffffffffffffffffffffffff1681526020016005820160149054906101000a900460ff161515151581526020016005820160159054906101000a900460ff166001811115614547576145466149f6565b5b6001811115614559576145586149f6565b5b815250509080600b0160009054906101000a900460ff169080600c01549080600d0154905088565b82805482825590600052602060002090600b02810192821561473a57600052602060002091600b0282015b828111156147395782826000820154816000015560018201548160010155600282018160020190816145de9190615c37565b506003820181600301600082015481600001556001820160009054906101000a900473ffffffffffffffffffffffffffffffffffffffff168160010160006101000a81548173ffffffffffffffffffffffffffffffffffffffff021916908373ffffffffffffffffffffffffffffffffffffffff1602179055506002820181600201908161466c9190615c37565b50600382018160030190816146819190615c37565b50600482018160040190816146969190615c37565b50600582018160050190816146ab9190615c37565b506006820160009054906101000a900460ff168160060160006101000a81548160ff021916908360018111156146e4576146e36149f6565b5b02179055505050600a820160009054906101000a900460ff1681600a0160006101000a81548160ff02191690836002811115614723576147226149f6565b5b0217905550505091600b019190600b01906145ac565b5b509050614747919061474b565b5090565b5b8082111561481c5760008082016000905560018201600090556002820160006147759190614820565b600382016000808201600090556001820160006101000a81549073ffffffffffffffffffffffffffffffffffffffff02191690556002820160006147b99190614820565b6003820160006147c99190614820565b6004820160006147d99190614820565b6005820160006147e99190614820565b6006820160006101000a81549060ff02191690555050600a820160006101000a81549060ff021916905550600b0161474c565b5090565b50805461482c906156bf565b6000825580601f1061483e575061485d565b601f01602090049060005260206000209081019061485c9190614860565b5b50565b5b80821115614879576000816000905550600101614861565b5090565b600080fd5b600080fd5b600073ffffffffffffffffffffffffffffffffffffffff82169050919050565b60006148b282614887565b9050919050565b6148c2816148a7565b81146148cd57600080fd5b50565b6000813590506148df816148b9565b92915050565b6000602082840312156148fb576148fa61487d565b5b6000614909848285016148d0565b91505092915050565b600081519050919050565b600082825260208201905092915050565b6000819050602082019050919050565b6000819050919050565b6149518161493e565b82525050565b600081519050919050565b600082825260208201905092915050565b60005b83811015614991578082015181840152602081019050614976565b60008484015250505050565b6000601f19601f8301169050919050565b60006149b982614957565b6149c38185614962565b93506149d3818560208601614973565b6149dc8161499d565b840191505092915050565b6149f0816148a7565b82525050565b7f4e487b7100000000000000000000000000000000000000000000000000000000600052602160045260246000fd5b60028110614a3657614a356149f6565b5b50565b6000819050614a4782614a25565b919050565b6000614a5782614a39565b9050919050565b614a6781614a4c565b82525050565b600060e083016000830151614a856000860182614948565b506020830151614a9860208601826149e7565b5060408301518482036040860152614ab082826149ae565b91505060608301518482036060860152614aca82826149ae565b91505060808301518482036080860152614ae482826149ae565b91505060a083015184820360a0860152614afe82826149ae565b91505060c0830151614b1360c0860182614a5e565b508091505092915050565b60038110614b2f57614b2e6149f6565b5b50565b6000819050614b4082614b1e565b919050565b6000614b5082614b32565b9050919050565b614b6081614b45565b82525050565b600060a083016000830151614b7e6000860182614948565b506020830151614b916020860182614948565b5060408301518482036040860152614ba982826149ae565b91505060608301518482036060860152614bc38282614a6d565b9150506080830151614bd86080860182614b57565b508091505092915050565b6000614bef8383614b66565b905092915050565b6000602082019050919050565b6000614c0f82614912565b614c19818561491d565b935083602082028501614c2b8561492e565b8060005b85811015614c675784840389528151614c488582614be3565b9450614c5383614bf7565b925060208a01995050600181019050614c2f565b50829750879550505050505092915050565b60006020820190508181036000830152614c938184614c04565b905092915050565b600080fd5b600080fd5b600080fd5b60008083601f840112614cc057614cbf614c9b565b5b8235905067ffffffffffffffff811115614cdd57614cdc614ca0565b5b602083019150836001820283011115614cf957614cf8614ca5565b5b9250929050565b60008060008060008060006080888a031215614d1f57614d1e61487d565b5b6000614d2d8a828b016148d0565b975050602088013567ffffffffffffffff811115614d4e57614d4d614882565b5b614d5a8a828b01614caa565b9650965050604088013567ffffffffffffffff811115614d7d57614d7c614882565b5b614d898a828b01614caa565b9450945050606088013567ffffffffffffffff811115614dac57614dab614882565b5b614db88a828b01614caa565b925092505092959891949750929550565b614dd28161493e565b8114614ddd57600080fd5b50565b600081359050614def81614dc9565b92915050565b600060208284031215614e0b57614e0a61487d565b5b6000614e1984828501614de0565b91505092915050565b6000806000806000806000806080898b031215614e4257614e4161487d565b5b600089013567ffffffffffffffff811115614e6057614e5f614882565b5b614e6c8b828c01614caa565b9850985050602089013567ffffffffffffffff811115614e8f57614e8e614882565b5b614e9b8b828c01614caa565b9650965050604089013567ffffffffffffffff811115614ebe57614ebd614882565b5b614eca8b828c01614caa565b9450945050606089013567ffffffffffffffff811115614eed57614eec614882565b5b614ef98b828c01614caa565b92509250509295985092959890939650565b600080600060408486031215614f2457614f2361487d565b5b6000614f3286828701614de0565b935050602084013567ffffffffffffffff811115614f5357614f52614882565b5b614f5f86828701614caa565b92509250509250925092565b600081519050919050565b600082825260208201905092915050565b6000819050602082019050919050565b60008115159050919050565b614fac81614f97565b82525050565b600061010083016000830151614fcb6000860182614948565b5060208301518482036020860152614fe382826149ae565b91505060408301518482036040860152614ffd82826149ae565b9150506060830151848203606086015261501782826149ae565b9150506080830151848203608086015261503182826149ae565b91505060a083015161504660a08601826149e7565b5060c083015161505960c0860182614fa3565b5060e083015161506c60e0860182614a5e565b508091505092915050565b600082825260208201905092915050565b600061509382614912565b61509d8185615077565b9350836020820285016150af8561492e565b8060005b858110156150eb57848403895281516150cc8582614be3565b94506150d783614bf7565b925060208a019950506001810190506150b3565b50829750879550505050505092915050565b6003811061510e5761510d6149f6565b5b50565b600081905061511f826150fd565b919050565b600061512f82615111565b9050919050565b61513f81615124565b82525050565b60006101208301600083015161515e6000860182614948565b506020830151848203602086015261517682826149ae565b9150506040830151848203604086015261519082826149ae565b91505060608301516151a56060860182614948565b50608083015184820360808601526151bd8282614fb2565b91505060a083015184820360a08601526151d78282615088565b91505060c08301516151ec60c0860182615136565b5060e08301516151ff60e0860182614948565b50610100830151615214610100860182614948565b508091505092915050565b600061522b8383615145565b905092915050565b6000602082019050919050565b600061524b82614f6b565b6152558185614f76565b93508360208202850161526785614f87565b8060005b858110156152a35784840389528151615284858261521f565b945061528f83615233565b925060208a0199505060018101905061526b565b50829750879550505050505092915050565b600060208201905081810360008301526152cf8184615240565b905092915050565b6152e08161493e565b82525050565b6152ef816148a7565b82525050565b600082825260208201905092915050565b600061531182614957565b61531b81856152f5565b935061532b818560208601614973565b6153348161499d565b840191505092915050565b61534881614a4c565b82525050565b600060e082019050615363600083018a6152d7565b61537060208301896152e6565b81810360408301526153828188615306565b905081810360608301526153968187615306565b905081810360808301526153aa8186615306565b905081810360a08301526153be8185615306565b90506153cd60c083018461533f565b98975050505050505050565b6153e281614f97565b82525050565b6000610100820190506153fe600083018b6152d7565b8181036020830152615410818a615306565b905081810360408301526154248189615306565b905081810360608301526154388188615306565b9050818103608083015261544c8187615306565b905061545b60a08301866152e6565b61546860c08301856153d9565b61547560e083018461533f565b9998505050505050505050565b6000806000806000806080878903121561549f5761549e61487d565b5b600087013567ffffffffffffffff8111156154bd576154bc614882565b5b6154c989828a01614caa565b9650965050602087013567ffffffffffffffff8111156154ec576154eb614882565b5b6154f889828a01614caa565b9450945050604061550b89828a01614de0565b925050606061551c89828a01614de0565b9150509295509295509295565b6000610100830160008301516155426000860182614948565b506020830151848203602086015261555a82826149ae565b9150506040830151848203604086015261557482826149ae565b9150506060830151848203606086015261558e82826149ae565b915050608083015184820360808601526155a882826149ae565b91505060a08301516155bd60a08601826149e7565b5060c08301516155d060c0860182614fa3565b5060e08301516155e360e0860182614a5e565b508091505092915050565b6155f781615124565b82525050565b600061010082019050615613600083018b6152d7565b8181036020830152615625818a615306565b905081810360408301526156398189615306565b905061564860608301886152d7565b818103608083015261565a8187615529565b905061566960a08301866155ee565b61567660c08301856152d7565b61568360e08301846152d7565b9998505050505050505050565b7f4e487b7100000000000000000000000000000000000000000000000000000000600052602260045260246000fd5b600060028204905060018216806156d757607f821691505b6020821081036156ea576156e9615690565b5b50919050565b7f50726f66696c6520646f6573206e6f7420657869737400000000000000000000600082015250565b60006157266016836152f5565b9150615731826156f0565b602082019050919050565b6000602082019050818103600083015261575581615719565b9050919050565b600082905092915050565b7f4e487b7100000000000000000000000000000000000000000000000000000000600052604160045260246000fd5b60008190508160005260206000209050919050565b60006020601f8301049050919050565b600082821b905092915050565b6000600883026157f87fffffffffffffffffffffffffffffffffffffffffffffffffffffffffffffffff826157bb565b61580286836157bb565b95508019841693508086168417925050509392505050565b6000819050919050565b600061583f61583a6158358461493e565b61581a565b61493e565b9050919050565b6000819050919050565b61585983615824565b61586d61586582615846565b8484546157c8565b825550505050565b600090565b615882615875565b61588d818484615850565b505050565b5b818110156158b1576158a660008261587a565b600181019050615893565b5050565b601f8211156158f6576158c781615796565b6158d0846157ab565b810160208510156158df578190505b6158f36158eb856157ab565b830182615892565b50505b505050565b600082821c905092915050565b6000615919600019846008026158fb565b1980831691505092915050565b60006159328383615908565b9150826002028217905092915050565b61594c838361575c565b67ffffffffffffffff81111561596557615964615767565b5b61596f82546156bf565b61597a8282856158b5565b6000601f8311600181146159a95760008415615997578287013590505b6159a18582615926565b865550615a09565b601f1984166159b786615796565b60005b828110156159df578489013582556001820191506020850194506020810190506159ba565b868310156159fc57848901356159f8601f891682615908565b8355505b6001600288020188555050505b50505050505050565b60006020820190508181036000830152615a2c8184615306565b905092915050565b7f4e487b7100000000000000000000000000000000000000000000000000000000600052601160045260246000fd5b6000615a6e8261493e565b9150615a798361493e565b9250828203905081811115615a9157615a90615a34565b5b92915050565b7f4e487b7100000000000000000000000000000000000000000000000000000000600052603260045260246000fd5b6000615ad18261493e565b91507fffffffffffffffffffffffffffffffffffffffffffffffffffffffffffffffff8203615b0357615b02615a34565b5b600182019050919050565b600081905092915050565b82818337600083830152505050565b6000615b348385615b0e565b9350615b41838584615b19565b82840190509392505050565b6000615b5a828486615b28565b91508190509392505050565b6000602082019050615b7b60008301846152d7565b92915050565b7f496e76616c6964206a6f62204944000000000000000000000000000000000000600082015250565b6000615bb7600e836152f5565b9150615bc282615b81565b602082019050919050565b60006020820190508181036000830152615be681615baa565b9050919050565b6000615bf88261493e565b9150615c038361493e565b9250828201905080821115615c1b57615c1a615a34565b5b92915050565b600081549050615c30816156bf565b9050919050565b818103615c45575050615d1d565b615c4e82615c21565b67ffffffffffffffff811115615c6757615c66615767565b5b615c7182546156bf565b615c7c8282856158b5565b6000601f831160018114615cab5760008415615c99578287015490505b615ca38582615926565b865550615d16565b601f198416615cb987615796565b9650615cc486615796565b60005b82811015615cec57848901548255600182019150600185019450602081019050615cc7565b86831015615d095784890154615d05601f891682615908565b8355505b6001600288020188555050505b5050505050505b565b615d2882614957565b67ffffffffffffffff811115615d4157615d40615767565b5b615d4b82546156bf565b615d568282856158b5565b600060209050601f831160018114615d895760008415615d77578287015190505b615d818582615926565b865550615de9565b601f198416615d9786615796565b60005b82811015615dbf57848901518255600182019150602085019450602081019050615d9a565b86831015615ddc5784890151615dd8601f891682615908565b8355505b6001600288020188555050505b50505050505056fe5468652063616c6c657220646f6573206e6f74206861766520612063726561746f722070726f66696c655468652063616c6c657220646f6573206e6f74206861766520616e206170706c6963616e742070726f66696c65546865206a6f62206f66666572206973206e6f206c6f6e67657220616363657074696e67206170706c69636174696f6e73546865206a6f62206f6666657220686173207265616368656420746865206d6178696d756d206e756d626572206f66206869726573a264697066735822122063d576d7a839f370404f288b06b20ba3dd5527b55e4f949b238a89664652a90c64736f6c63430008130033",
  "immutableReferences": {},
  "source": "// SPDX-License-Identifier: GPL-3.0\n\npragma solidity >=0.7.0 <0.9.0;\n\nimport \"./structs.sol\";\nimport \"./constants.sol\";\n\n/**\n * @title SolJobs\n * @dev Create, apply and award remote jobs on the blockchain\n */\n\ncontract SolJobs {\n    address private manager;\n\n    mapping (address => CreatorProfile) public creatorProfiles;\n    mapping (address => ApplicantProfile) public applicantProfiles;\n\n    uint internal numberOfCreatorProfiles;\n    uint internal numberOfApplicantProfiles;\n\n    mapping (string => bool) private creatorEmails;\n    mapping (string => bool) private applicantEmails;\n\n    mapping (address => bool) private creatorAddresses;\n    mapping (address => bool) private applicantAddresses;\n\n    JobOffer[] public jobOffers;\n    JobApplication[] private jobApplications;\n\n    mapping (address => JobOffer[]) private profileToJobsMapping;\n    mapping (address => JobApplication[]) private profileToApplicationsMapping;\n\n    constructor() {\n        manager = msg.sender;\n    }\n\n    modifier accountIsUnique(string calldata _email) {\n        require(creatorEmails[_email] == false && applicantEmails[_email] == false, emailAlreadyExistsMsg);\n        require(creatorAddresses[tx.origin] == false && applicantAddresses[tx.origin] == false, addressAlreadyExistsMsg);\n\n        _;\n    }\n\n    modifier callerHasCreatorProfile(address _address) {\n        require(creatorAddresses[_address] == true, callerHasNoCreatorProfile);\n\n        _;\n    }\n\n    modifier callerHasApplicantProfile(address _address) {\n        require(applicantAddresses[_address] == true, callerHasNoApplicantProfile);\n\n        _;\n    }\n\n    event CreatorProfileCreated(uint newCreatorID);\n    event ApplicantProfileCreated(uint newApplicantID);\n    event JobCreated(uint newJobID);\n    event ApplicationSubmitted(uint applicationID);\n\n    function createCreatorProfile(\n        string calldata _name,\n        string calldata _email,\n        string calldata _description,\n        string calldata _tagline\n    ) accountIsUnique(_email) external {\n        uint creatorID = ++numberOfCreatorProfiles;\n\n        CreatorProfile storage profile = creatorProfiles[tx.origin];\n        profile.id = creatorID;\n        profile.name = _name;\n        profile.email = _email;\n        profile.description = _description;\n        profile.tagline = _tagline;\n\n        // add to emails and addresses list\n        creatorEmails[_email] = true;\n        creatorAddresses[tx.origin] = true;\n\n        // defaults\n        profile.verified = false;\n        profile.profileType = ProfileType.Creator;\n        profile.creatorAddress = tx.origin;\n\n        emit CreatorProfileCreated(creatorID);\n    }\n\n    function createApplicantProfile(\n        string calldata _fullname,\n        string calldata _email,\n        string calldata _location,\n        string calldata _bio\n    ) external accountIsUnique(_email) {\n        uint applicantID = ++numberOfApplicantProfiles;\n\n        ApplicantProfile storage profile = applicantProfiles[tx.origin];\n        profile.id = applicantID;\n        profile.fullname = _fullname;\n        profile.email = _email;\n        profile.location = _location;\n        profile.bio = _bio;\n        \n        // add to emails and addresses list\n        applicantEmails[_email] = true;\n        applicantAddresses[tx.origin] = true;\n\n        // defaults\n        profile.profileType = ProfileType.Applicant;\n        profile.applicantAddress = tx.origin;\n\n        emit ApplicantProfileCreated(applicantID);\n    }\n\n    function editCreatorProfile(address _address, string calldata _name, string calldata _description, string calldata _tagline) external {\n        require(creatorAddresses[_address], \"Profile does not exist\");\n\n        CreatorProfile storage profileToEdit = creatorProfiles[_address];\n        profileToEdit.name = _name;\n        profileToEdit.description = _description;\n        profileToEdit.tagline = _tagline;\n    }\n\n    function createJobOffer(\n        string calldata title,\n        string calldata description,\n        uint compensation,\n        uint numberOfMaxHires\n    ) external callerHasCreatorProfile(tx.origin) {\n        uint jobID = jobOffers.length + 1;\n\n        JobOffer storage jobOffer = jobOffers.push();\n        jobOffer.id = jobID;\n        jobOffer.title = title;\n        jobOffer.description = description;\n        jobOffer.compensation = compensation;\n        jobOffer.numberOfMaxHires = numberOfMaxHires;\n\n        // defaults\n        CreatorProfile memory creator = creatorProfiles[tx.origin];\n        jobOffer.creator = creator;\n        jobOffer.status = JobOfferStatus.Open;\n        jobOffer.numberHired = 0;\n\n        profileToJobsMapping[tx.origin].push(jobOffer);\n\n        emit JobCreated(jobID);\n    }\n\n    function applyForJob(\n        uint jobID,\n        string calldata coverLetter\n    ) external callerHasApplicantProfile(tx.origin) {\n        require(jobID > 0 && jobID <= jobOffers.length, \"Invalid job ID\");\n\n        uint applicationID = jobApplications.length + 1;\n\n        JobOffer storage jobOffer = jobOffers[jobID - 1];\n        require(jobOffer.status == JobOfferStatus.Open, jobIsNoLongerOpen);\n\n        JobApplication storage jobApplication = jobApplications.push();\n        jobApplication.id = applicationID;\n        jobApplication.jobOfferId = jobID;\n        jobApplication.coverLetter = coverLetter;\n\n        // defaults\n        jobApplication.applicant = applicantProfiles[tx.origin];\n        jobApplication.status = JobApplicationStatus.Pending;\n        jobOffer.applications.push(jobApplication);\n\n        profileToApplicationsMapping[tx.origin].push(jobApplication);\n\n        emit ApplicationSubmitted(applicationID);\n    }\n\n    function approveApplication(uint applicationID) external callerHasCreatorProfile(tx.origin) {\n        // fetch application and the parent job\n        JobApplication storage jobApplication = jobApplications[applicationID - 1];\n        JobOffer storage jobOffer = jobOffers[jobApplication.jobOfferId - 1];\n\n        require(jobOffer.numberHired < jobOffer.numberOfMaxHires, jobMaxedOutHires);\n        require(jobOffer.status == JobOfferStatus.Open, jobIsNoLongerOpen);\n        require(jobApplication.status == JobApplicationStatus.Pending, applicationNotOpen);\n\n        // change application status to approved\n        jobApplication.status = JobApplicationStatus.Approved;\n        jobOffer.numberHired++;\n\n        // close job offer is max number of hires reached\n        if (jobOffer.numberHired == jobOffer.numberOfMaxHires) {\n            jobOffer.status = JobOfferStatus.Filled;\n        }\n    }\n\n    function rejectApplication(uint applicationID) external callerHasCreatorProfile(tx.origin) {\n        JobApplication storage jobApplication = jobApplications[applicationID - 1];\n\n        // reject the application\n        jobApplication.status = JobApplicationStatus.Rejected;\n    }\n\n    function getCreatedJobsForProfile(address profile) public view returns(JobOffer[] memory) {\n        return profileToJobsMapping[profile];\n    }\n\n    function getApplicationsForProfile(address profile) public view returns(JobApplication[] memory) {\n        return profileToApplicationsMapping[profile];\n    }\n\n    function getAllJobsCreated() public view returns(JobOffer[] memory) {\n        return jobOffers;\n    }\n\n    function getApplicationsForJob(uint jobId) public view returns(JobApplication[] memory) {\n        return jobOffers[jobId - 1].applications;\n    }\n}",
  "sourcePath": "/Users/ikennaemeruche/Documents/soljobs-client/truffle/contracts/SolJobs.sol",
  "compiler": {
    "name": "solc",
    "version": "0.8.19+commit.7dd6d404.Emscripten.clang"
  },
  "schemaVersion": "3.4.9",
  "updatedAt": "2023-08-25T23:49:29.328Z",
  "networkType": "ethereum",
  "devdoc": {
    "details": "Create, apply and award remote jobs on the blockchain",
    "kind": "dev",
    "methods": {},
    "title": "SolJobs",
    "version": 1
  },
  "userdoc": {
    "kind": "user",
    "methods": {},
    "version": 1
  }
}