{
  "contractName": "SolJobs",
  "abi": [
    {
      "inputs": [],
      "stateMutability": "nonpayable",
      "type": "constructor"
    },
    {
      "anonymous": false,
      "inputs": [
        {
          "indexed": false,
          "internalType": "uint256",
          "name": "newApplicantID",
          "type": "uint256"
        }
      ],
      "name": "ApplicantProfileCreated",
      "type": "event"
    },
    {
      "anonymous": false,
      "inputs": [
        {
          "indexed": false,
          "internalType": "uint256",
          "name": "applicationID",
          "type": "uint256"
        }
      ],
      "name": "ApplicationSubmitted",
      "type": "event"
    },
    {
      "anonymous": false,
      "inputs": [
        {
          "indexed": false,
          "internalType": "uint256",
          "name": "newCreatorID",
          "type": "uint256"
        }
      ],
      "name": "CreatorProfileCreated",
      "type": "event"
    },
    {
      "anonymous": false,
      "inputs": [
        {
          "indexed": false,
          "internalType": "uint256",
          "name": "newJobID",
          "type": "uint256"
        }
      ],
      "name": "JobCreated",
      "type": "event"
    },
    {
      "inputs": [
        {
          "internalType": "address",
          "name": "",
          "type": "address"
        }
      ],
      "name": "applicantProfiles",
      "outputs": [
        {
          "internalType": "uint256",
          "name": "id",
          "type": "uint256"
        },
        {
          "internalType": "address",
          "name": "applicantAddress",
          "type": "address"
        },
        {
          "internalType": "string",
          "name": "fullname",
          "type": "string"
        },
        {
          "internalType": "string",
          "name": "email",
          "type": "string"
        },
        {
          "internalType": "string",
          "name": "location",
          "type": "string"
        },
        {
          "internalType": "string",
          "name": "bio",
          "type": "string"
        },
        {
          "internalType": "enum ProfileType",
          "name": "profileType",
          "type": "uint8"
        }
      ],
      "stateMutability": "view",
      "type": "function",
      "constant": true
    },
    {
      "inputs": [
        {
          "internalType": "address",
          "name": "",
          "type": "address"
        }
      ],
      "name": "creatorProfiles",
      "outputs": [
        {
          "internalType": "uint256",
          "name": "id",
          "type": "uint256"
        },
        {
          "internalType": "string",
          "name": "email",
          "type": "string"
        },
        {
          "internalType": "string",
          "name": "name",
          "type": "string"
        },
        {
          "internalType": "string",
          "name": "tagline",
          "type": "string"
        },
        {
          "internalType": "string",
          "name": "description",
          "type": "string"
        },
        {
          "internalType": "address",
          "name": "creatorAddress",
          "type": "address"
        },
        {
          "internalType": "bool",
          "name": "verified",
          "type": "bool"
        },
        {
          "internalType": "enum ProfileType",
          "name": "profileType",
          "type": "uint8"
        }
      ],
      "stateMutability": "view",
      "type": "function",
      "constant": true
    },
    {
      "inputs": [
        {
          "internalType": "uint256",
          "name": "",
          "type": "uint256"
        }
      ],
      "name": "jobApplications",
      "outputs": [
        {
          "internalType": "uint256",
          "name": "id",
          "type": "uint256"
        },
        {
          "internalType": "uint256",
          "name": "jobOfferId",
          "type": "uint256"
        },
        {
          "internalType": "string",
          "name": "coverLetter",
          "type": "string"
        },
        {
          "components": [
            {
              "internalType": "uint256",
              "name": "id",
              "type": "uint256"
            },
            {
              "internalType": "address",
              "name": "applicantAddress",
              "type": "address"
            },
            {
              "internalType": "string",
              "name": "fullname",
              "type": "string"
            },
            {
              "internalType": "string",
              "name": "email",
              "type": "string"
            },
            {
              "internalType": "string",
              "name": "location",
              "type": "string"
            },
            {
              "internalType": "string",
              "name": "bio",
              "type": "string"
            },
            {
              "internalType": "enum ProfileType",
              "name": "profileType",
              "type": "uint8"
            },
            {
              "internalType": "uint256[]",
              "name": "applicationIDs",
              "type": "uint256[]"
            }
          ],
          "internalType": "struct ApplicantProfile",
          "name": "applicant",
          "type": "tuple"
        },
        {
          "internalType": "enum JobApplicationStatus",
          "name": "status",
          "type": "uint8"
        }
      ],
      "stateMutability": "view",
      "type": "function",
      "constant": true
    },
    {
      "inputs": [
        {
          "internalType": "uint256",
          "name": "",
          "type": "uint256"
        }
      ],
      "name": "jobOffers",
      "outputs": [
        {
          "internalType": "uint256",
          "name": "id",
          "type": "uint256"
        },
        {
          "internalType": "string",
          "name": "title",
          "type": "string"
        },
        {
          "internalType": "string",
          "name": "description",
          "type": "string"
        },
        {
          "internalType": "uint256",
          "name": "compensation",
          "type": "uint256"
        },
        {
          "components": [
            {
              "internalType": "uint256",
              "name": "id",
              "type": "uint256"
            },
            {
              "internalType": "string",
              "name": "email",
              "type": "string"
            },
            {
              "internalType": "string",
              "name": "name",
              "type": "string"
            },
            {
              "internalType": "string",
              "name": "tagline",
              "type": "string"
            },
            {
              "internalType": "string",
              "name": "description",
              "type": "string"
            },
            {
              "internalType": "address",
              "name": "creatorAddress",
              "type": "address"
            },
            {
              "internalType": "bool",
              "name": "verified",
              "type": "bool"
            },
            {
              "internalType": "enum ProfileType",
              "name": "profileType",
              "type": "uint8"
            },
            {
              "internalType": "uint256[]",
              "name": "jobOfferIDs",
              "type": "uint256[]"
            }
          ],
          "internalType": "struct CreatorProfile",
          "name": "creator",
          "type": "tuple"
        },
        {
          "internalType": "enum JobOfferStatus",
          "name": "status",
          "type": "uint8"
        },
        {
          "internalType": "uint256",
          "name": "numberOfMaxHires",
          "type": "uint256"
        },
        {
          "internalType": "uint256",
          "name": "numberHired",
          "type": "uint256"
        }
      ],
      "stateMutability": "view",
      "type": "function",
      "constant": true
    },
    {
      "inputs": [],
      "name": "numberOfApplications",
      "outputs": [
        {
          "internalType": "uint256",
          "name": "",
          "type": "uint256"
        }
      ],
      "stateMutability": "view",
      "type": "function",
      "constant": true
    },
    {
      "inputs": [],
      "name": "numberOfJobsCreated",
      "outputs": [
        {
          "internalType": "uint256",
          "name": "",
          "type": "uint256"
        }
      ],
      "stateMutability": "view",
      "type": "function",
      "constant": true
    },
    {
      "inputs": [
        {
          "internalType": "string",
          "name": "_name",
          "type": "string"
        },
        {
          "internalType": "string",
          "name": "_email",
          "type": "string"
        },
        {
          "internalType": "string",
          "name": "_description",
          "type": "string"
        },
        {
          "internalType": "string",
          "name": "_tagline",
          "type": "string"
        }
      ],
      "name": "createCreatorProfile",
      "outputs": [],
      "stateMutability": "nonpayable",
      "type": "function"
    },
    {
      "inputs": [
        {
          "internalType": "string",
          "name": "_fullname",
          "type": "string"
        },
        {
          "internalType": "string",
          "name": "_email",
          "type": "string"
        },
        {
          "internalType": "string",
          "name": "_location",
          "type": "string"
        },
        {
          "internalType": "string",
          "name": "_bio",
          "type": "string"
        }
      ],
      "name": "createApplicantProfile",
      "outputs": [],
      "stateMutability": "nonpayable",
      "type": "function"
    },
    {
      "inputs": [
        {
          "internalType": "string",
          "name": "title",
          "type": "string"
        },
        {
          "internalType": "string",
          "name": "description",
          "type": "string"
        },
        {
          "internalType": "uint256",
          "name": "compensation",
          "type": "uint256"
        },
        {
          "internalType": "uint256",
          "name": "numberOfMaxHires",
          "type": "uint256"
        }
      ],
      "name": "createJobOffer",
      "outputs": [],
      "stateMutability": "nonpayable",
      "type": "function"
    },
    {
      "inputs": [
        {
          "internalType": "uint256",
          "name": "jobID",
          "type": "uint256"
        },
        {
          "internalType": "string",
          "name": "coverLetter",
          "type": "string"
        }
      ],
      "name": "applyForJob",
      "outputs": [],
      "stateMutability": "nonpayable",
      "type": "function"
    },
    {
      "inputs": [
        {
          "internalType": "uint256",
          "name": "applicationID",
          "type": "uint256"
        }
      ],
      "name": "approveApplication",
      "outputs": [],
      "stateMutability": "nonpayable",
      "type": "function"
    },
    {
      "inputs": [
        {
          "internalType": "uint256",
          "name": "applicationID",
          "type": "uint256"
        }
      ],
      "name": "rejectApplication",
      "outputs": [],
      "stateMutability": "nonpayable",
      "type": "function"
    },
    {
      "inputs": [],
      "name": "getNumberOfCreatorProfiles",
      "outputs": [
        {
          "internalType": "uint256",
          "name": "",
          "type": "uint256"
        }
      ],
      "stateMutability": "view",
      "type": "function",
      "constant": true
    },
    {
      "inputs": [],
      "name": "getNumberOfApplicantProfiles",
      "outputs": [
        {
          "internalType": "uint256",
          "name": "",
          "type": "uint256"
        }
      ],
      "stateMutability": "view",
      "type": "function",
      "constant": true
    },
    {
      "inputs": [],
      "name": "getNumberOfJobsCreated",
      "outputs": [
        {
          "internalType": "uint256",
          "name": "",
          "type": "uint256"
        }
      ],
      "stateMutability": "view",
      "type": "function",
      "constant": true
    },
    {
      "inputs": [],
      "name": "getNumberOfApplications",
      "outputs": [
        {
          "internalType": "uint256",
          "name": "",
          "type": "uint256"
        }
      ],
      "stateMutability": "view",
      "type": "function",
      "constant": true
    }
  ],
  "bytecode": "0x608060405234801561001057600080fd5b50336000806101000a81548173ffffffffffffffffffffffffffffffffffffffff021916908373ffffffffffffffffffffffffffffffffffffffff160217905550613b10806100606000396000f3fe608060405234801561001057600080fd5b50600436106101005760003560e01c806392b2a79111610097578063a86da9b411610066578063a86da9b4146102aa578063c5e83e97146102c8578063e06f7484146102e4578063fdc3fde31461031b57610100565b806392b2a7911461020357806392c081841461023957806395b04be214610257578063a7f718a01461028e57610100565b80633c3b04ad116100d35780633c3b04ad14610179578063699687cf146101975780636c09a5e3146101cb57806387e6446f146101e757610100565b80630bd4c80f14610105578063213fbf1b146101235780632ae4bc551461013f5780632bd463f61461015b575b600080fd5b61010d610339565b60405161011a9190612a2c565b60405180910390f35b61013d60048036038101906101389190612a7d565b610343565b005b61015960048036038101906101549190612b0f565b61065a565b005b610163610a86565b6040516101709190612a2c565b60405180910390f35b610181610a90565b60405161018e9190612a2c565b60405180910390f35b6101b160048036038101906101ac9190612a7d565b610a96565b6040516101c2959493929190612f5c565b60405180910390f35b6101e560048036038101906101e09190612fbd565b610ea7565b005b61020160048036038101906101fc9190612b0f565b6113dd565b005b61021d60048036038101906102189190613049565b6117ec565b6040516102309796959493929190613094565b60405180910390f35b610241611a7b565b60405161024e9190612a2c565b60405180910390f35b610271600480360381019061026c9190613049565b611a85565b60405161028598979695949392919061313a565b60405180910390f35b6102a860048036038101906102a391906131d4565b611d27565b005b6102b2612388565b6040516102bf9190612a2c565b60405180910390f35b6102e260048036038101906102dd9190612a7d565b612392565b005b6102fe60048036038101906102f99190612a7d565b61248b565b6040516103129897969594939291906133b3565b60405180910390f35b610323612951565b6040516103309190612a2c565b60405180910390f35b6000600954905090565b3260011515600760008373ffffffffffffffffffffffffffffffffffffffff1673ffffffffffffffffffffffffffffffffffffffff16815260200190815260200160002060009054906101000a900460ff161515146040518060600160405280602a8152602001613a1e602a9139906103f2576040517f08c379a00000000000000000000000000000000000000000000000000000000081526004016103e99190613446565b60405180910390fd5b506000600c600084815260200190815260200160002090506000600a600083600101548152602001908152602001600020905080600d015481600e015410604051806060016040528060358152602001613aa6603591399061048a576040517f08c379a00000000000000000000000000000000000000000000000000000000081526004016104819190613446565b60405180910390fd5b506000600281111561049f5761049e612d22565b5b81600c0160009054906101000a900460ff1660028111156104c3576104c2612d22565b5b14604051806060016040528060318152602001613a75603191399061051e576040517f08c379a00000000000000000000000000000000000000000000000000000000081526004016105159190613446565b60405180910390fd5b506000600281111561053357610532612d22565b5b82600b0160009054906101000a900460ff16600281111561055757610556612d22565b5b146040518060400160405280601b81526020017f546865206170706c69636174696f6e206973206e6f74206f70656e0000000000815250906105cf576040517f08c379a00000000000000000000000000000000000000000000000000000000081526004016105c69190613446565b60405180910390fd5b50600182600b0160006101000a81548160ff021916908360028111156105f8576105f7612d22565b5b021790555080600e01600081548092919061061290613497565b919050555080600d015481600e01540361065457600181600c0160006101000a81548160ff0219169083600281111561064e5761064d612d22565b5b02179055505b50505050565b8585600015156005838360405161067292919061351e565b908152602001604051809103902060009054906101000a900460ff1615151480156106ce575060001515600683836040516106ae92919061351e565b908152602001604051809103902060009054906101000a900460ff161515145b6040518060400160405280601581526020017f456d61696c20616c72656164792065786973747321000000000000000000000081525090610745576040517f08c379a000000000000000000000000000000000000000000000000000000000815260040161073c9190613446565b60405180910390fd5b5060001515600760003273ffffffffffffffffffffffffffffffffffffffff1673ffffffffffffffffffffffffffffffffffffffff16815260200190815260200160002060009054906101000a900460ff1615151480156107f6575060001515600860003273ffffffffffffffffffffffffffffffffffffffff1673ffffffffffffffffffffffffffffffffffffffff16815260200190815260200160002060009054906101000a900460ff161515145b6040518060400160405280601781526020017f4164647265737320616c726561647920657869737473210000000000000000008152509061086d576040517f08c379a00000000000000000000000000000000000000000000000000000000081526004016108649190613446565b60405180910390fd5b50600060036000815461087f90613497565b91905081905590506000600160003273ffffffffffffffffffffffffffffffffffffffff1673ffffffffffffffffffffffffffffffffffffffff16815260200190815260200160002090508181600001819055508b8b8260020191826108e692919061377d565b5089898260010191826108fa92919061377d565b50878782600401918261090e92919061377d565b50858582600301918261092292919061377d565b50600160058b8b60405161093792919061351e565b908152602001604051809103902060006101000a81548160ff0219169083151502179055506001600760003273ffffffffffffffffffffffffffffffffffffffff1673ffffffffffffffffffffffffffffffffffffffff16815260200190815260200160002060006101000a81548160ff02191690831515021790555060008160050160146101000a81548160ff02191690831515021790555060008160050160156101000a81548160ff021916908360018111156109f9576109f8612d22565b5b0217905550328160050160006101000a81548173ffffffffffffffffffffffffffffffffffffffff021916908373ffffffffffffffffffffffffffffffffffffffff1602179055507fd1a7c154123ed5a80a1f9c4596757daf4b73c53e8bc15299d58a4be0ca50581482604051610a709190612a2c565b60405180910390a1505050505050505050505050565b6000600354905090565b600b5481565b600c602052806000526040600020600091509050806000015490806001015490806002018054610ac5906135a0565b80601f0160208091040260200160405190810160405280929190818152602001828054610af1906135a0565b8015610b3e5780601f10610b1357610100808354040283529160200191610b3e565b820191906000526020600020905b815481529060010190602001808311610b2157829003601f168201915b5050505050908060030160405180610100016040529081600082015481526020016001820160009054906101000a900473ffffffffffffffffffffffffffffffffffffffff1673ffffffffffffffffffffffffffffffffffffffff1673ffffffffffffffffffffffffffffffffffffffff168152602001600282018054610bc4906135a0565b80601f0160208091040260200160405190810160405280929190818152602001828054610bf0906135a0565b8015610c3d5780601f10610c1257610100808354040283529160200191610c3d565b820191906000526020600020905b815481529060010190602001808311610c2057829003601f168201915b50505050508152602001600382018054610c56906135a0565b80601f0160208091040260200160405190810160405280929190818152602001828054610c82906135a0565b8015610ccf5780601f10610ca457610100808354040283529160200191610ccf565b820191906000526020600020905b815481529060010190602001808311610cb257829003601f168201915b50505050508152602001600482018054610ce8906135a0565b80601f0160208091040260200160405190810160405280929190818152602001828054610d14906135a0565b8015610d615780601f10610d3657610100808354040283529160200191610d61565b820191906000526020600020905b815481529060010190602001808311610d4457829003601f168201915b50505050508152602001600582018054610d7a906135a0565b80601f0160208091040260200160405190810160405280929190818152602001828054610da6906135a0565b8015610df35780601f10610dc857610100808354040283529160200191610df3565b820191906000526020600020905b815481529060010190602001808311610dd657829003601f168201915b505050505081526020016006820160009054906101000a900460ff166001811115610e2157610e20612d22565b5b6001811115610e3357610e32612d22565b5b815260200160078201805480602002602001604051908101604052809291908181526020018280548015610e8657602002820191906000526020600020905b815481526020019060010190808311610e72575b5050505050815250509080600b0160009054906101000a900460ff16905085565b3260011515600860008373ffffffffffffffffffffffffffffffffffffffff1673ffffffffffffffffffffffffffffffffffffffff16815260200190815260200160002060009054906101000a900460ff161515146040518060600160405280602d8152602001613a48602d913990610f56576040517f08c379a0000000000000000000000000000000000000000000000000000000008152600401610f4d9190613446565b60405180910390fd5b506000600b60008154610f6890613497565b91905081905590506000600a6000878152602001908152602001600020905060006002811115610f9b57610f9a612d22565b5b81600c0160009054906101000a900460ff166002811115610fbf57610fbe612d22565b5b14604051806060016040528060318152602001613a75603191399061101a576040517f08c379a00000000000000000000000000000000000000000000000000000000081526004016110119190613446565b60405180910390fd5b506000600c60008481526020019081526020016000209050828160000181905550868160010181905550858582600201918261105792919061377d565b50600260003273ffffffffffffffffffffffffffffffffffffffff1673ffffffffffffffffffffffffffffffffffffffff16815260200190815260200160002081600301600082015481600001556001820160009054906101000a900473ffffffffffffffffffffffffffffffffffffffff168160010160006101000a81548173ffffffffffffffffffffffffffffffffffffffff021916908373ffffffffffffffffffffffffffffffffffffffff160217905550600282018160020190816111209190613863565b50600382018160030190816111359190613863565b506004820181600401908161114a9190613863565b506005820181600501908161115f9190613863565b506006820160009054906101000a900460ff168160060160006101000a81548160ff0219169083600181111561119857611197612d22565b5b021790555060078201816007019080546111b3929190612957565b50905050600081600b0160006101000a81548160ff021916908360028111156111df576111de612d22565b5b021790555081600b018190806001815401808255809150506001900390600052602060002090600c020160009091909190915060008201548160000155600182015481600101556002820181600201908161123a9190613863565b506003820181600301600082015481600001556001820160009054906101000a900473ffffffffffffffffffffffffffffffffffffffff168160010160006101000a81548173ffffffffffffffffffffffffffffffffffffffff021916908373ffffffffffffffffffffffffffffffffffffffff160217905550600282018160020190816112c89190613863565b50600382018160030190816112dd9190613863565b50600482018160040190816112f29190613863565b50600582018160050190816113079190613863565b506006820160009054906101000a900460ff168160060160006101000a81548160ff021916908360018111156113405761133f612d22565b5b0217905550600782018160070190805461135b929190612957565b505050600b820160009054906101000a900460ff1681600b0160006101000a81548160ff0219169083600281111561139657611395612d22565b5b021790555050507f4b6126472f7a5c1a21fe858797a6bb6ed361c62b74d480965163d30d68576d4f836040516113cc9190612a2c565b60405180910390a150505050505050565b858560001515600583836040516113f592919061351e565b908152602001604051809103902060009054906101000a900460ff1615151480156114515750600015156006838360405161143192919061351e565b908152602001604051809103902060009054906101000a900460ff161515145b6040518060400160405280601581526020017f456d61696c20616c726561647920657869737473210000000000000000000000815250906114c8576040517f08c379a00000000000000000000000000000000000000000000000000000000081526004016114bf9190613446565b60405180910390fd5b5060001515600760003273ffffffffffffffffffffffffffffffffffffffff1673ffffffffffffffffffffffffffffffffffffffff16815260200190815260200160002060009054906101000a900460ff161515148015611579575060001515600860003273ffffffffffffffffffffffffffffffffffffffff1673ffffffffffffffffffffffffffffffffffffffff16815260200190815260200160002060009054906101000a900460ff161515145b6040518060400160405280601781526020017f4164647265737320616c72656164792065786973747321000000000000000000815250906115f0576040517f08c379a00000000000000000000000000000000000000000000000000000000081526004016115e79190613446565b60405180910390fd5b50600060046000815461160290613497565b91905081905590506000600260003273ffffffffffffffffffffffffffffffffffffffff1673ffffffffffffffffffffffffffffffffffffffff16815260200190815260200160002090508181600001819055508b8b82600201918261166992919061377d565b50898982600301918261167d92919061377d565b50878782600401918261169192919061377d565b5085858260050191826116a592919061377d565b50600160068b8b6040516116ba92919061351e565b908152602001604051809103902060006101000a81548160ff0219169083151502179055506001600860003273ffffffffffffffffffffffffffffffffffffffff1673ffffffffffffffffffffffffffffffffffffffff16815260200190815260200160002060006101000a81548160ff02191690831515021790555060018160060160006101000a81548160ff0219169083600181111561175f5761175e612d22565b5b0217905550328160010160006101000a81548173ffffffffffffffffffffffffffffffffffffffff021916908373ffffffffffffffffffffffffffffffffffffffff1602179055507f7a7674d49ab4ac57338891a3e15ebdbe5e6abbb1637fc6c5cfa506e2fa360ad0826040516117d69190612a2c565b60405180910390a1505050505050505050505050565b60026020528060005260406000206000915090508060000154908060010160009054906101000a900473ffffffffffffffffffffffffffffffffffffffff169080600201805461183b906135a0565b80601f0160208091040260200160405190810160405280929190818152602001828054611867906135a0565b80156118b45780601f10611889576101008083540402835291602001916118b4565b820191906000526020600020905b81548152906001019060200180831161189757829003601f168201915b5050505050908060030180546118c9906135a0565b80601f01602080910402602001604051908101604052809291908181526020018280546118f5906135a0565b80156119425780601f1061191757610100808354040283529160200191611942565b820191906000526020600020905b81548152906001019060200180831161192557829003601f168201915b505050505090806004018054611957906135a0565b80601f0160208091040260200160405190810160405280929190818152602001828054611983906135a0565b80156119d05780601f106119a5576101008083540402835291602001916119d0565b820191906000526020600020905b8154815290600101906020018083116119b357829003601f168201915b5050505050908060050180546119e5906135a0565b80601f0160208091040260200160405190810160405280929190818152602001828054611a11906135a0565b8015611a5e5780601f10611a3357610100808354040283529160200191611a5e565b820191906000526020600020905b815481529060010190602001808311611a4157829003601f168201915b5050505050908060060160009054906101000a900460ff16905087565b6000600454905090565b6001602052806000526040600020600091509050806000015490806001018054611aae906135a0565b80601f0160208091040260200160405190810160405280929190818152602001828054611ada906135a0565b8015611b275780601f10611afc57610100808354040283529160200191611b27565b820191906000526020600020905b815481529060010190602001808311611b0a57829003601f168201915b505050505090806002018054611b3c906135a0565b80601f0160208091040260200160405190810160405280929190818152602001828054611b68906135a0565b8015611bb55780601f10611b8a57610100808354040283529160200191611bb5565b820191906000526020600020905b815481529060010190602001808311611b9857829003601f168201915b505050505090806003018054611bca906135a0565b80601f0160208091040260200160405190810160405280929190818152602001828054611bf6906135a0565b8015611c435780601f10611c1857610100808354040283529160200191611c43565b820191906000526020600020905b815481529060010190602001808311611c2657829003601f168201915b505050505090806004018054611c58906135a0565b80601f0160208091040260200160405190810160405280929190818152602001828054611c84906135a0565b8015611cd15780601f10611ca657610100808354040283529160200191611cd1565b820191906000526020600020905b815481529060010190602001808311611cb457829003601f168201915b5050505050908060050160009054906101000a900473ffffffffffffffffffffffffffffffffffffffff16908060050160149054906101000a900460ff16908060050160159054906101000a900460ff16905088565b3260011515600760008373ffffffffffffffffffffffffffffffffffffffff1673ffffffffffffffffffffffffffffffffffffffff16815260200190815260200160002060009054906101000a900460ff161515146040518060600160405280602a8152602001613a1e602a913990611dd6576040517f08c379a0000000000000000000000000000000000000000000000000000000008152600401611dcd9190613446565b60405180910390fd5b506000600960008154611de890613497565b91905081905590506000600a600083815260200190815260200160002090508181600001819055508888826001019182611e2392919061377d565b508686826002019182611e3792919061377d565b508481600301819055508381600d01819055506000600160003273ffffffffffffffffffffffffffffffffffffffff1673ffffffffffffffffffffffffffffffffffffffff1681526020019081526020016000206040518061012001604052908160008201548152602001600182018054611eb1906135a0565b80601f0160208091040260200160405190810160405280929190818152602001828054611edd906135a0565b8015611f2a5780601f10611eff57610100808354040283529160200191611f2a565b820191906000526020600020905b815481529060010190602001808311611f0d57829003601f168201915b50505050508152602001600282018054611f43906135a0565b80601f0160208091040260200160405190810160405280929190818152602001828054611f6f906135a0565b8015611fbc5780601f10611f9157610100808354040283529160200191611fbc565b820191906000526020600020905b815481529060010190602001808311611f9f57829003601f168201915b50505050508152602001600382018054611fd5906135a0565b80601f0160208091040260200160405190810160405280929190818152602001828054612001906135a0565b801561204e5780601f106120235761010080835404028352916020019161204e565b820191906000526020600020905b81548152906001019060200180831161203157829003601f168201915b50505050508152602001600482018054612067906135a0565b80601f0160208091040260200160405190810160405280929190818152602001828054612093906135a0565b80156120e05780601f106120b5576101008083540402835291602001916120e0565b820191906000526020600020905b8154815290600101906020018083116120c357829003601f168201915b505050505081526020016005820160009054906101000a900473ffffffffffffffffffffffffffffffffffffffff1673ffffffffffffffffffffffffffffffffffffffff1673ffffffffffffffffffffffffffffffffffffffff1681526020016005820160149054906101000a900460ff161515151581526020016005820160159054906101000a900460ff16600181111561217f5761217e612d22565b5b600181111561219157612190612d22565b5b8152602001600682018054806020026020016040519081016040528092919081815260200182805480156121e457602002820191906000526020600020905b8154815260200190600101908083116121d0575b50505050508152505090508082600401600082015181600001556020820151816001019081612213919061394b565b506040820151816002019081612229919061394b565b50606082015181600301908161223f919061394b565b506080820151816004019081612255919061394b565b5060a08201518160050160006101000a81548173ffffffffffffffffffffffffffffffffffffffff021916908373ffffffffffffffffffffffffffffffffffffffff16021790555060c08201518160050160146101000a81548160ff02191690831515021790555060e08201518160050160156101000a81548160ff021916908360018111156122e8576122e7612d22565b5b021790555061010082015181600601908051906020019061230a9291906129a9565b50905050600082600c0160006101000a81548160ff0219169083600281111561233657612335612d22565b5b0217905550600082600e01819055507f92447c6ecd808d390fb352da0dc90a05275b074c43bf302132a27fabafa6872b836040516123749190612a2c565b60405180910390a150505050505050505050565b6000600b54905090565b3260011515600760008373ffffffffffffffffffffffffffffffffffffffff1673ffffffffffffffffffffffffffffffffffffffff16815260200190815260200160002060009054906101000a900460ff161515146040518060600160405280602a8152602001613a1e602a913990612441576040517f08c379a00000000000000000000000000000000000000000000000000000000081526004016124389190613446565b60405180910390fd5b506000600c60008481526020019081526020016000209050600281600b0160006101000a81548160ff0219169083600281111561248157612480612d22565b5b0217905550505050565b600a6020528060005260406000206000915090508060000154908060010180546124b4906135a0565b80601f01602080910402602001604051908101604052809291908181526020018280546124e0906135a0565b801561252d5780601f106125025761010080835404028352916020019161252d565b820191906000526020600020905b81548152906001019060200180831161251057829003601f168201915b505050505090806002018054612542906135a0565b80601f016020809104026020016040519081016040528092919081815260200182805461256e906135a0565b80156125bb5780601f10612590576101008083540402835291602001916125bb565b820191906000526020600020905b81548152906001019060200180831161259e57829003601f168201915b5050505050908060030154908060040160405180610120016040529081600082015481526020016001820180546125f1906135a0565b80601f016020809104026020016040519081016040528092919081815260200182805461261d906135a0565b801561266a5780601f1061263f5761010080835404028352916020019161266a565b820191906000526020600020905b81548152906001019060200180831161264d57829003601f168201915b50505050508152602001600282018054612683906135a0565b80601f01602080910402602001604051908101604052809291908181526020018280546126af906135a0565b80156126fc5780601f106126d1576101008083540402835291602001916126fc565b820191906000526020600020905b8154815290600101906020018083116126df57829003601f168201915b50505050508152602001600382018054612715906135a0565b80601f0160208091040260200160405190810160405280929190818152602001828054612741906135a0565b801561278e5780601f106127635761010080835404028352916020019161278e565b820191906000526020600020905b81548152906001019060200180831161277157829003601f168201915b505050505081526020016004820180546127a7906135a0565b80601f01602080910402602001604051908101604052809291908181526020018280546127d3906135a0565b80156128205780601f106127f557610100808354040283529160200191612820565b820191906000526020600020905b81548152906001019060200180831161280357829003601f168201915b505050505081526020016005820160009054906101000a900473ffffffffffffffffffffffffffffffffffffffff1673ffffffffffffffffffffffffffffffffffffffff1673ffffffffffffffffffffffffffffffffffffffff1681526020016005820160149054906101000a900460ff161515151581526020016005820160159054906101000a900460ff1660018111156128bf576128be612d22565b5b60018111156128d1576128d0612d22565b5b81526020016006820180548060200260200160405190810160405280929190818152602001828054801561292457602002820191906000526020600020905b815481526020019060010190808311612910575b5050505050815250509080600c0160009054906101000a900460ff169080600d01549080600e0154905088565b60095481565b8280548282559060005260206000209081019282156129985760005260206000209182015b8281111561299757825482559160010191906001019061297c565b5b5090506129a591906129f6565b5090565b8280548282559060005260206000209081019282156129e5579160200282015b828111156129e45782518255916020019190600101906129c9565b5b5090506129f291906129f6565b5090565b5b80821115612a0f5760008160009055506001016129f7565b5090565b6000819050919050565b612a2681612a13565b82525050565b6000602082019050612a416000830184612a1d565b92915050565b600080fd5b600080fd5b612a5a81612a13565b8114612a6557600080fd5b50565b600081359050612a7781612a51565b92915050565b600060208284031215612a9357612a92612a47565b5b6000612aa184828501612a68565b91505092915050565b600080fd5b600080fd5b600080fd5b60008083601f840112612acf57612ace612aaa565b5b8235905067ffffffffffffffff811115612aec57612aeb612aaf565b5b602083019150836001820283011115612b0857612b07612ab4565b5b9250929050565b6000806000806000806000806080898b031215612b2f57612b2e612a47565b5b600089013567ffffffffffffffff811115612b4d57612b4c612a4c565b5b612b598b828c01612ab9565b9850985050602089013567ffffffffffffffff811115612b7c57612b7b612a4c565b5b612b888b828c01612ab9565b9650965050604089013567ffffffffffffffff811115612bab57612baa612a4c565b5b612bb78b828c01612ab9565b9450945050606089013567ffffffffffffffff811115612bda57612bd9612a4c565b5b612be68b828c01612ab9565b92509250509295985092959890939650565b600081519050919050565b600082825260208201905092915050565b60005b83811015612c32578082015181840152602081019050612c17565b60008484015250505050565b6000601f19601f8301169050919050565b6000612c5a82612bf8565b612c648185612c03565b9350612c74818560208601612c14565b612c7d81612c3e565b840191505092915050565b612c9181612a13565b82525050565b600073ffffffffffffffffffffffffffffffffffffffff82169050919050565b6000612cc282612c97565b9050919050565b612cd281612cb7565b82525050565b600082825260208201905092915050565b6000612cf482612bf8565b612cfe8185612cd8565b9350612d0e818560208601612c14565b612d1781612c3e565b840191505092915050565b7f4e487b7100000000000000000000000000000000000000000000000000000000600052602160045260246000fd5b60028110612d6257612d61612d22565b5b50565b6000819050612d7382612d51565b919050565b6000612d8382612d65565b9050919050565b612d9381612d78565b82525050565b600081519050919050565b600082825260208201905092915050565b6000819050602082019050919050565b6000612dd18383612c88565b60208301905092915050565b6000602082019050919050565b6000612df582612d99565b612dff8185612da4565b9350612e0a83612db5565b8060005b83811015612e3b578151612e228882612dc5565b9750612e2d83612ddd565b925050600181019050612e0e565b5085935050505092915050565b600061010083016000830151612e616000860182612c88565b506020830151612e746020860182612cc9565b5060408301518482036040860152612e8c8282612ce9565b91505060608301518482036060860152612ea68282612ce9565b91505060808301518482036080860152612ec08282612ce9565b91505060a083015184820360a0860152612eda8282612ce9565b91505060c0830151612eef60c0860182612d8a565b5060e083015184820360e0860152612f078282612dea565b9150508091505092915050565b60038110612f2557612f24612d22565b5b50565b6000819050612f3682612f14565b919050565b6000612f4682612f28565b9050919050565b612f5681612f3b565b82525050565b600060a082019050612f716000830188612a1d565b612f7e6020830187612a1d565b8181036040830152612f908186612c4f565b90508181036060830152612fa48185612e48565b9050612fb36080830184612f4d565b9695505050505050565b600080600060408486031215612fd657612fd5612a47565b5b6000612fe486828701612a68565b935050602084013567ffffffffffffffff81111561300557613004612a4c565b5b61301186828701612ab9565b92509250509250925092565b61302681612cb7565b811461303157600080fd5b50565b6000813590506130438161301d565b92915050565b60006020828403121561305f5761305e612a47565b5b600061306d84828501613034565b91505092915050565b61307f81612cb7565b82525050565b61308e81612d78565b82525050565b600060e0820190506130a9600083018a612a1d565b6130b66020830189613076565b81810360408301526130c88188612c4f565b905081810360608301526130dc8187612c4f565b905081810360808301526130f08186612c4f565b905081810360a08301526131048185612c4f565b905061311360c0830184613085565b98975050505050505050565b60008115159050919050565b6131348161311f565b82525050565b600061010082019050613150600083018b612a1d565b8181036020830152613162818a612c4f565b905081810360408301526131768189612c4f565b9050818103606083015261318a8188612c4f565b9050818103608083015261319e8187612c4f565b90506131ad60a0830186613076565b6131ba60c083018561312b565b6131c760e0830184613085565b9998505050505050505050565b600080600080600080608087890312156131f1576131f0612a47565b5b600087013567ffffffffffffffff81111561320f5761320e612a4c565b5b61321b89828a01612ab9565b9650965050602087013567ffffffffffffffff81111561323e5761323d612a4c565b5b61324a89828a01612ab9565b9450945050604061325d89828a01612a68565b925050606061326e89828a01612a68565b9150509295509295509295565b6132848161311f565b82525050565b6000610120830160008301516132a36000860182612c88565b50602083015184820360208601526132bb8282612ce9565b915050604083015184820360408601526132d58282612ce9565b915050606083015184820360608601526132ef8282612ce9565b915050608083015184820360808601526133098282612ce9565b91505060a083015161331e60a0860182612cc9565b5060c083015161333160c086018261327b565b5060e083015161334460e0860182612d8a565b5061010083015184820361010086015261335e8282612dea565b9150508091505092915050565b6003811061337c5761337b612d22565b5b50565b600081905061338d8261336b565b919050565b600061339d8261337f565b9050919050565b6133ad81613392565b82525050565b6000610100820190506133c9600083018b612a1d565b81810360208301526133db818a612c4f565b905081810360408301526133ef8189612c4f565b90506133fe6060830188612a1d565b8181036080830152613410818761328a565b905061341f60a08301866133a4565b61342c60c0830185612a1d565b61343960e0830184612a1d565b9998505050505050505050565b600060208201905081810360008301526134608184612c4f565b905092915050565b7f4e487b7100000000000000000000000000000000000000000000000000000000600052601160045260246000fd5b60006134a282612a13565b91507fffffffffffffffffffffffffffffffffffffffffffffffffffffffffffffffff82036134d4576134d3613468565b5b600182019050919050565b600081905092915050565b82818337600083830152505050565b600061350583856134df565b93506135128385846134ea565b82840190509392505050565b600061352b8284866134f9565b91508190509392505050565b600082905092915050565b7f4e487b7100000000000000000000000000000000000000000000000000000000600052604160045260246000fd5b7f4e487b7100000000000000000000000000000000000000000000000000000000600052602260045260246000fd5b600060028204905060018216806135b857607f821691505b6020821081036135cb576135ca613571565b5b50919050565b60008190508160005260206000209050919050565b60006020601f8301049050919050565b600082821b905092915050565b6000600883026136337fffffffffffffffffffffffffffffffffffffffffffffffffffffffffffffffff826135f6565b61363d86836135f6565b95508019841693508086168417925050509392505050565b6000819050919050565b600061367a61367561367084612a13565b613655565b612a13565b9050919050565b6000819050919050565b6136948361365f565b6136a86136a082613681565b848454613603565b825550505050565b600090565b6136bd6136b0565b6136c881848461368b565b505050565b5b818110156136ec576136e16000826136b5565b6001810190506136ce565b5050565b601f82111561373157613702816135d1565b61370b846135e6565b8101602085101561371a578190505b61372e613726856135e6565b8301826136cd565b50505b505050565b600082821c905092915050565b600061375460001984600802613736565b1980831691505092915050565b600061376d8383613743565b9150826002028217905092915050565b6137878383613537565b67ffffffffffffffff8111156137a05761379f613542565b5b6137aa82546135a0565b6137b58282856136f0565b6000601f8311600181146137e457600084156137d2578287013590505b6137dc8582613761565b865550613844565b601f1984166137f2866135d1565b60005b8281101561381a578489013582556001820191506020850194506020810190506137f5565b868310156138375784890135613833601f891682613743565b8355505b6001600288020188555050505b50505050505050565b60008154905061385c816135a0565b9050919050565b818103613871575050613949565b61387a8261384d565b67ffffffffffffffff81111561389357613892613542565b5b61389d82546135a0565b6138a88282856136f0565b6000601f8311600181146138d757600084156138c5578287015490505b6138cf8582613761565b865550613942565b601f1984166138e5876135d1565b96506138f0866135d1565b60005b82811015613918578489015482556001820191506001850194506020810190506138f3565b868310156139355784890154613931601f891682613743565b8355505b6001600288020188555050505b5050505050505b565b61395482612bf8565b67ffffffffffffffff81111561396d5761396c613542565b5b61397782546135a0565b6139828282856136f0565b600060209050601f8311600181146139b557600084156139a3578287015190505b6139ad8582613761565b865550613a15565b601f1984166139c3866135d1565b60005b828110156139eb578489015182556001820191506020850194506020810190506139c6565b86831015613a085784890151613a04601f891682613743565b8355505b6001600288020188555050505b50505050505056fe5468652063616c6c657220646f6573206e6f74206861766520612063726561746f722070726f66696c655468652063616c6c657220646f6573206e6f74206861766520616e206170706c6963616e742070726f66696c65546865206a6f62206f66666572206973206e6f206c6f6e67657220616363657074696e67206170706c69636174696f6e73546865206a6f62206f6666657220686173207265616368656420746865206d6178696d756d206e756d626572206f66206869726573a2646970667358221220095e5495c53c274d44ac3476ad8b1dae80bb19d0857d0b9e240d551bfda97c0d64736f6c63430008130033",
  "immutableReferences": {},
  "source": "// SPDX-License-Identifier: GPL-3.0\n\npragma solidity >=0.7.0 <0.9.0;\n\nimport \"./structs.sol\";\nimport \"./constants.sol\";\n\n/**\n * @title SolJobs\n * @dev Create, apply and award remote jobs on the blockchain\n */\n\ncontract SolJobs {\n    address private manager;\n\n    mapping (address => CreatorProfile) public creatorProfiles;\n    mapping (address => ApplicantProfile) public applicantProfiles;\n\n    uint internal numberOfCreatorProfiles;\n    uint internal numberOfApplicantProfiles;\n\n    mapping (string => bool) private creatorEmails;\n    mapping (string => bool) private applicantEmails;\n\n    mapping (address => bool) private creatorAddresses;\n    mapping (address => bool) private applicantAddresses;\n\n    uint public numberOfJobsCreated;\n    mapping (uint => JobOffer) public jobOffers;\n\n    uint public numberOfApplications;\n    mapping (uint => JobApplication) public jobApplications;\n\n    constructor() {\n        manager = msg.sender;\n    }\n\n    modifier accountIsUnique(string calldata _email) {\n        require(creatorEmails[_email] == false && applicantEmails[_email] == false, emailAlreadyExistsMsg);\n        require(creatorAddresses[tx.origin] == false && applicantAddresses[tx.origin] == false, addressAlreadyExistsMsg);\n\n        _;\n    }\n\n    modifier callerHasCreatorProfile(address _address) {\n        require(creatorAddresses[_address] == true, callerHasNoCreatorProfile);\n\n        _;\n    }\n\n    modifier callerHasApplicantProfile(address _address) {\n        require(applicantAddresses[_address] == true, callerHasNoApplicantProfile);\n\n        _;\n    }\n\n    event CreatorProfileCreated(uint newCreatorID);\n    event ApplicantProfileCreated(uint newApplicantID);\n    event JobCreated(uint newJobID);\n    event ApplicationSubmitted(uint applicationID);\n\n    function createCreatorProfile(\n        string calldata _name,\n        string calldata _email,\n        string calldata _description,\n        string calldata _tagline\n    ) accountIsUnique(_email) external {\n        uint creatorID = ++numberOfCreatorProfiles;\n\n        CreatorProfile storage profile = creatorProfiles[tx.origin];\n        profile.id = creatorID;\n        profile.name = _name;\n        profile.email = _email;\n        profile.description = _description;\n        profile.tagline = _tagline;\n\n        // add to emails and addresses list\n        creatorEmails[_email] = true;\n        creatorAddresses[tx.origin] = true;\n\n        // defaults\n        profile.verified = false;\n        profile.profileType = ProfileType.Creator;\n        profile.creatorAddress = tx.origin;\n\n        emit CreatorProfileCreated(creatorID);\n    }\n\n    function createApplicantProfile(\n        string calldata _fullname,\n        string calldata _email,\n        string calldata _location,\n        string calldata _bio\n    ) external accountIsUnique(_email) {\n        uint applicantID = ++numberOfApplicantProfiles;\n\n        ApplicantProfile storage profile = applicantProfiles[tx.origin];\n        profile.id = applicantID;\n        profile.fullname = _fullname;\n        profile.email = _email;\n        profile.location = _location;\n        profile.bio = _bio;\n        \n        // add to emails and addresses list\n        applicantEmails[_email] = true;\n        applicantAddresses[tx.origin] = true;\n\n        // defaults\n        profile.profileType = ProfileType.Applicant;\n        profile.applicantAddress = tx.origin;\n\n        emit ApplicantProfileCreated(applicantID);\n    }\n\n    function createJobOffer(\n        string calldata title,\n        string calldata description,\n        uint compensation,\n        uint numberOfMaxHires\n    ) external callerHasCreatorProfile(tx.origin) {\n        uint jobID = ++numberOfJobsCreated;\n\n        JobOffer storage jobOffer = jobOffers[jobID];\n        jobOffer.id = jobID;\n        jobOffer.title = title;\n        jobOffer.description = description;\n        jobOffer.compensation = compensation;\n        jobOffer.numberOfMaxHires = numberOfMaxHires;\n\n        // defaults\n        CreatorProfile memory creator = creatorProfiles[tx.origin];\n        jobOffer.creator = creator;\n        jobOffer.status = JobOfferStatus.Open;\n        jobOffer.numberHired = 0;\n\n        emit JobCreated(jobID);\n    }\n\n    function applyForJob(\n        uint jobID,\n        string calldata coverLetter\n    ) external callerHasApplicantProfile(tx.origin) {\n        uint applicationID = ++numberOfApplications;\n\n        JobOffer storage jobOffer = jobOffers[jobID];\n        require(jobOffer.status == JobOfferStatus.Open, jobIsNoLongerOpen);\n\n        JobApplication storage jobApplication = jobApplications[applicationID];\n        jobApplication.id = applicationID;\n        jobApplication.jobOfferId = jobID;\n        jobApplication.coverLetter = coverLetter;\n\n        // defaults\n        jobApplication.applicant = applicantProfiles[tx.origin];\n        jobApplication.status = JobApplicationStatus.Pending;\n        jobOffer.applications.push(jobApplication);\n\n        emit ApplicationSubmitted(applicationID);\n    }\n\n    function approveApplication(uint applicationID) external callerHasCreatorProfile(tx.origin) {\n        // fetch application and the parent job\n        JobApplication storage jobApplication = jobApplications[applicationID];\n        JobOffer storage jobOffer = jobOffers[jobApplication.jobOfferId];\n\n        require(jobOffer.numberHired < jobOffer.numberOfMaxHires, jobMaxedOutHires);\n        require(jobOffer.status == JobOfferStatus.Open, jobIsNoLongerOpen);\n        require(jobApplication.status == JobApplicationStatus.Pending, applicationNotOpen);\n\n        // change application status to approved\n        jobApplication.status = JobApplicationStatus.Approved;\n        jobOffer.numberHired++;\n\n        // close job offer is max number of hires reached\n        if (jobOffer.numberHired == jobOffer.numberOfMaxHires) {\n            jobOffer.status = JobOfferStatus.Filled;\n        }\n    }\n\n    function rejectApplication(uint applicationID) external callerHasCreatorProfile(tx.origin) {\n        JobApplication storage jobApplication = jobApplications[applicationID];\n\n        // reject the application\n        jobApplication.status = JobApplicationStatus.Rejected;\n    }\n\n    // getter methods\n\n    function getNumberOfCreatorProfiles() public view returns(uint) {\n        return numberOfCreatorProfiles;\n    }\n\n    function getNumberOfApplicantProfiles() public view returns(uint) {\n        return numberOfApplicantProfiles;\n    }\n\n    function getNumberOfJobsCreated() public view returns(uint) {\n        return numberOfJobsCreated;\n    }\n\n    function getNumberOfApplications() public view returns(uint) {\n        return numberOfApplications;\n    }\n}",
  "sourcePath": "/Users/ikennaemeruche/Documents/soljobs-client/truffle/contracts/SolJobs.sol",
  "compiler": {
    "name": "solc",
    "version": "0.8.19+commit.7dd6d404.Emscripten.clang"
  },
  "schemaVersion": "3.4.9",
  "updatedAt": "2023-05-04T09:41:28.191Z",
  "networkType": "ethereum",
  "devdoc": {
    "details": "Create, apply and award remote jobs on the blockchain",
    "kind": "dev",
    "methods": {},
    "title": "SolJobs",
    "version": 1
  },
  "userdoc": {
    "kind": "user",
    "methods": {},
    "version": 1
  }
}