{
  "contractName": "SolJobs",
  "abi": [
    {
      "inputs": [],
      "stateMutability": "nonpayable",
      "type": "constructor"
    },
    {
      "anonymous": false,
      "inputs": [
        {
          "indexed": false,
          "internalType": "uint256",
          "name": "newApplicantID",
          "type": "uint256"
        }
      ],
      "name": "ApplicantProfileCreated",
      "type": "event"
    },
    {
      "anonymous": false,
      "inputs": [
        {
          "indexed": false,
          "internalType": "uint256",
          "name": "applicationID",
          "type": "uint256"
        }
      ],
      "name": "ApplicationSubmitted",
      "type": "event"
    },
    {
      "anonymous": false,
      "inputs": [
        {
          "indexed": false,
          "internalType": "uint256",
          "name": "newCreatorID",
          "type": "uint256"
        }
      ],
      "name": "CreatorProfileCreated",
      "type": "event"
    },
    {
      "anonymous": false,
      "inputs": [
        {
          "indexed": false,
          "internalType": "uint256",
          "name": "newJobID",
          "type": "uint256"
        }
      ],
      "name": "JobCreated",
      "type": "event"
    },
    {
      "inputs": [
        {
          "internalType": "address",
          "name": "",
          "type": "address"
        }
      ],
      "name": "applicantProfiles",
      "outputs": [
        {
          "internalType": "uint256",
          "name": "id",
          "type": "uint256"
        },
        {
          "internalType": "address",
          "name": "applicantAddress",
          "type": "address"
        },
        {
          "internalType": "string",
          "name": "fullname",
          "type": "string"
        },
        {
          "internalType": "string",
          "name": "email",
          "type": "string"
        },
        {
          "internalType": "string",
          "name": "location",
          "type": "string"
        },
        {
          "internalType": "string",
          "name": "bio",
          "type": "string"
        },
        {
          "internalType": "enum ProfileType",
          "name": "profileType",
          "type": "uint8"
        }
      ],
      "stateMutability": "view",
      "type": "function",
      "constant": true
    },
    {
      "inputs": [
        {
          "internalType": "address",
          "name": "",
          "type": "address"
        }
      ],
      "name": "creatorProfiles",
      "outputs": [
        {
          "internalType": "uint256",
          "name": "id",
          "type": "uint256"
        },
        {
          "internalType": "string",
          "name": "email",
          "type": "string"
        },
        {
          "internalType": "string",
          "name": "name",
          "type": "string"
        },
        {
          "internalType": "string",
          "name": "tagline",
          "type": "string"
        },
        {
          "internalType": "string",
          "name": "description",
          "type": "string"
        },
        {
          "internalType": "address",
          "name": "creatorAddress",
          "type": "address"
        },
        {
          "internalType": "bool",
          "name": "verified",
          "type": "bool"
        },
        {
          "internalType": "enum ProfileType",
          "name": "profileType",
          "type": "uint8"
        }
      ],
      "stateMutability": "view",
      "type": "function",
      "constant": true
    },
    {
      "inputs": [
        {
          "internalType": "string",
          "name": "_name",
          "type": "string"
        },
        {
          "internalType": "string",
          "name": "_email",
          "type": "string"
        },
        {
          "internalType": "string",
          "name": "_description",
          "type": "string"
        },
        {
          "internalType": "string",
          "name": "_tagline",
          "type": "string"
        }
      ],
      "name": "createCreatorProfile",
      "outputs": [],
      "stateMutability": "nonpayable",
      "type": "function"
    },
    {
      "inputs": [
        {
          "internalType": "string",
          "name": "_fullname",
          "type": "string"
        },
        {
          "internalType": "string",
          "name": "_email",
          "type": "string"
        },
        {
          "internalType": "string",
          "name": "_location",
          "type": "string"
        },
        {
          "internalType": "string",
          "name": "_bio",
          "type": "string"
        }
      ],
      "name": "createApplicantProfile",
      "outputs": [],
      "stateMutability": "nonpayable",
      "type": "function"
    },
    {
      "inputs": [
        {
          "internalType": "string",
          "name": "title",
          "type": "string"
        },
        {
          "internalType": "string",
          "name": "description",
          "type": "string"
        },
        {
          "internalType": "uint256",
          "name": "compensation",
          "type": "uint256"
        },
        {
          "internalType": "uint256",
          "name": "numberOfMaxHires",
          "type": "uint256"
        }
      ],
      "name": "createJobOffer",
      "outputs": [],
      "stateMutability": "nonpayable",
      "type": "function"
    },
    {
      "inputs": [
        {
          "internalType": "uint256",
          "name": "jobID",
          "type": "uint256"
        },
        {
          "internalType": "string",
          "name": "coverLetter",
          "type": "string"
        }
      ],
      "name": "applyForJob",
      "outputs": [],
      "stateMutability": "nonpayable",
      "type": "function"
    },
    {
      "inputs": [
        {
          "internalType": "uint256",
          "name": "applicationID",
          "type": "uint256"
        }
      ],
      "name": "approveApplication",
      "outputs": [],
      "stateMutability": "nonpayable",
      "type": "function"
    },
    {
      "inputs": [
        {
          "internalType": "uint256",
          "name": "applicationID",
          "type": "uint256"
        }
      ],
      "name": "rejectApplication",
      "outputs": [],
      "stateMutability": "nonpayable",
      "type": "function"
    },
    {
      "inputs": [
        {
          "internalType": "address",
          "name": "profile",
          "type": "address"
        }
      ],
      "name": "getCreatedJobsForProfile",
      "outputs": [
        {
          "components": [
            {
              "internalType": "uint256",
              "name": "id",
              "type": "uint256"
            },
            {
              "internalType": "string",
              "name": "title",
              "type": "string"
            },
            {
              "internalType": "string",
              "name": "description",
              "type": "string"
            },
            {
              "internalType": "uint256",
              "name": "compensation",
              "type": "uint256"
            },
            {
              "components": [
                {
                  "internalType": "uint256",
                  "name": "id",
                  "type": "uint256"
                },
                {
                  "internalType": "string",
                  "name": "email",
                  "type": "string"
                },
                {
                  "internalType": "string",
                  "name": "name",
                  "type": "string"
                },
                {
                  "internalType": "string",
                  "name": "tagline",
                  "type": "string"
                },
                {
                  "internalType": "string",
                  "name": "description",
                  "type": "string"
                },
                {
                  "internalType": "address",
                  "name": "creatorAddress",
                  "type": "address"
                },
                {
                  "internalType": "bool",
                  "name": "verified",
                  "type": "bool"
                },
                {
                  "internalType": "enum ProfileType",
                  "name": "profileType",
                  "type": "uint8"
                }
              ],
              "internalType": "struct CreatorProfile",
              "name": "creator",
              "type": "tuple"
            },
            {
              "components": [
                {
                  "internalType": "uint256",
                  "name": "id",
                  "type": "uint256"
                },
                {
                  "internalType": "uint256",
                  "name": "jobOfferId",
                  "type": "uint256"
                },
                {
                  "internalType": "string",
                  "name": "coverLetter",
                  "type": "string"
                },
                {
                  "components": [
                    {
                      "internalType": "uint256",
                      "name": "id",
                      "type": "uint256"
                    },
                    {
                      "internalType": "address",
                      "name": "applicantAddress",
                      "type": "address"
                    },
                    {
                      "internalType": "string",
                      "name": "fullname",
                      "type": "string"
                    },
                    {
                      "internalType": "string",
                      "name": "email",
                      "type": "string"
                    },
                    {
                      "internalType": "string",
                      "name": "location",
                      "type": "string"
                    },
                    {
                      "internalType": "string",
                      "name": "bio",
                      "type": "string"
                    },
                    {
                      "internalType": "enum ProfileType",
                      "name": "profileType",
                      "type": "uint8"
                    }
                  ],
                  "internalType": "struct ApplicantProfile",
                  "name": "applicant",
                  "type": "tuple"
                },
                {
                  "internalType": "enum JobApplicationStatus",
                  "name": "status",
                  "type": "uint8"
                }
              ],
              "internalType": "struct JobApplication[]",
              "name": "applications",
              "type": "tuple[]"
            },
            {
              "internalType": "enum JobOfferStatus",
              "name": "status",
              "type": "uint8"
            },
            {
              "internalType": "uint256",
              "name": "numberOfMaxHires",
              "type": "uint256"
            },
            {
              "internalType": "uint256",
              "name": "numberHired",
              "type": "uint256"
            }
          ],
          "internalType": "struct JobOffer[]",
          "name": "",
          "type": "tuple[]"
        }
      ],
      "stateMutability": "view",
      "type": "function",
      "constant": true
    },
    {
      "inputs": [
        {
          "internalType": "address",
          "name": "profile",
          "type": "address"
        }
      ],
      "name": "getApplicationsForProfile",
      "outputs": [
        {
          "components": [
            {
              "internalType": "uint256",
              "name": "id",
              "type": "uint256"
            },
            {
              "internalType": "uint256",
              "name": "jobOfferId",
              "type": "uint256"
            },
            {
              "internalType": "string",
              "name": "coverLetter",
              "type": "string"
            },
            {
              "components": [
                {
                  "internalType": "uint256",
                  "name": "id",
                  "type": "uint256"
                },
                {
                  "internalType": "address",
                  "name": "applicantAddress",
                  "type": "address"
                },
                {
                  "internalType": "string",
                  "name": "fullname",
                  "type": "string"
                },
                {
                  "internalType": "string",
                  "name": "email",
                  "type": "string"
                },
                {
                  "internalType": "string",
                  "name": "location",
                  "type": "string"
                },
                {
                  "internalType": "string",
                  "name": "bio",
                  "type": "string"
                },
                {
                  "internalType": "enum ProfileType",
                  "name": "profileType",
                  "type": "uint8"
                }
              ],
              "internalType": "struct ApplicantProfile",
              "name": "applicant",
              "type": "tuple"
            },
            {
              "internalType": "enum JobApplicationStatus",
              "name": "status",
              "type": "uint8"
            }
          ],
          "internalType": "struct JobApplication[]",
          "name": "",
          "type": "tuple[]"
        }
      ],
      "stateMutability": "view",
      "type": "function",
      "constant": true
    },
    {
      "inputs": [],
      "name": "getAllJobsCreated",
      "outputs": [
        {
          "components": [
            {
              "internalType": "uint256",
              "name": "id",
              "type": "uint256"
            },
            {
              "internalType": "string",
              "name": "title",
              "type": "string"
            },
            {
              "internalType": "string",
              "name": "description",
              "type": "string"
            },
            {
              "internalType": "uint256",
              "name": "compensation",
              "type": "uint256"
            },
            {
              "components": [
                {
                  "internalType": "uint256",
                  "name": "id",
                  "type": "uint256"
                },
                {
                  "internalType": "string",
                  "name": "email",
                  "type": "string"
                },
                {
                  "internalType": "string",
                  "name": "name",
                  "type": "string"
                },
                {
                  "internalType": "string",
                  "name": "tagline",
                  "type": "string"
                },
                {
                  "internalType": "string",
                  "name": "description",
                  "type": "string"
                },
                {
                  "internalType": "address",
                  "name": "creatorAddress",
                  "type": "address"
                },
                {
                  "internalType": "bool",
                  "name": "verified",
                  "type": "bool"
                },
                {
                  "internalType": "enum ProfileType",
                  "name": "profileType",
                  "type": "uint8"
                }
              ],
              "internalType": "struct CreatorProfile",
              "name": "creator",
              "type": "tuple"
            },
            {
              "components": [
                {
                  "internalType": "uint256",
                  "name": "id",
                  "type": "uint256"
                },
                {
                  "internalType": "uint256",
                  "name": "jobOfferId",
                  "type": "uint256"
                },
                {
                  "internalType": "string",
                  "name": "coverLetter",
                  "type": "string"
                },
                {
                  "components": [
                    {
                      "internalType": "uint256",
                      "name": "id",
                      "type": "uint256"
                    },
                    {
                      "internalType": "address",
                      "name": "applicantAddress",
                      "type": "address"
                    },
                    {
                      "internalType": "string",
                      "name": "fullname",
                      "type": "string"
                    },
                    {
                      "internalType": "string",
                      "name": "email",
                      "type": "string"
                    },
                    {
                      "internalType": "string",
                      "name": "location",
                      "type": "string"
                    },
                    {
                      "internalType": "string",
                      "name": "bio",
                      "type": "string"
                    },
                    {
                      "internalType": "enum ProfileType",
                      "name": "profileType",
                      "type": "uint8"
                    }
                  ],
                  "internalType": "struct ApplicantProfile",
                  "name": "applicant",
                  "type": "tuple"
                },
                {
                  "internalType": "enum JobApplicationStatus",
                  "name": "status",
                  "type": "uint8"
                }
              ],
              "internalType": "struct JobApplication[]",
              "name": "applications",
              "type": "tuple[]"
            },
            {
              "internalType": "enum JobOfferStatus",
              "name": "status",
              "type": "uint8"
            },
            {
              "internalType": "uint256",
              "name": "numberOfMaxHires",
              "type": "uint256"
            },
            {
              "internalType": "uint256",
              "name": "numberHired",
              "type": "uint256"
            }
          ],
          "internalType": "struct JobOffer[]",
          "name": "",
          "type": "tuple[]"
        }
      ],
      "stateMutability": "view",
      "type": "function",
      "constant": true
    },
    {
      "inputs": [
        {
          "internalType": "uint256",
          "name": "id",
          "type": "uint256"
        }
      ],
      "name": "getJob",
      "outputs": [
        {
          "components": [
            {
              "internalType": "uint256",
              "name": "id",
              "type": "uint256"
            },
            {
              "internalType": "string",
              "name": "title",
              "type": "string"
            },
            {
              "internalType": "string",
              "name": "description",
              "type": "string"
            },
            {
              "internalType": "uint256",
              "name": "compensation",
              "type": "uint256"
            },
            {
              "components": [
                {
                  "internalType": "uint256",
                  "name": "id",
                  "type": "uint256"
                },
                {
                  "internalType": "string",
                  "name": "email",
                  "type": "string"
                },
                {
                  "internalType": "string",
                  "name": "name",
                  "type": "string"
                },
                {
                  "internalType": "string",
                  "name": "tagline",
                  "type": "string"
                },
                {
                  "internalType": "string",
                  "name": "description",
                  "type": "string"
                },
                {
                  "internalType": "address",
                  "name": "creatorAddress",
                  "type": "address"
                },
                {
                  "internalType": "bool",
                  "name": "verified",
                  "type": "bool"
                },
                {
                  "internalType": "enum ProfileType",
                  "name": "profileType",
                  "type": "uint8"
                }
              ],
              "internalType": "struct CreatorProfile",
              "name": "creator",
              "type": "tuple"
            },
            {
              "components": [
                {
                  "internalType": "uint256",
                  "name": "id",
                  "type": "uint256"
                },
                {
                  "internalType": "uint256",
                  "name": "jobOfferId",
                  "type": "uint256"
                },
                {
                  "internalType": "string",
                  "name": "coverLetter",
                  "type": "string"
                },
                {
                  "components": [
                    {
                      "internalType": "uint256",
                      "name": "id",
                      "type": "uint256"
                    },
                    {
                      "internalType": "address",
                      "name": "applicantAddress",
                      "type": "address"
                    },
                    {
                      "internalType": "string",
                      "name": "fullname",
                      "type": "string"
                    },
                    {
                      "internalType": "string",
                      "name": "email",
                      "type": "string"
                    },
                    {
                      "internalType": "string",
                      "name": "location",
                      "type": "string"
                    },
                    {
                      "internalType": "string",
                      "name": "bio",
                      "type": "string"
                    },
                    {
                      "internalType": "enum ProfileType",
                      "name": "profileType",
                      "type": "uint8"
                    }
                  ],
                  "internalType": "struct ApplicantProfile",
                  "name": "applicant",
                  "type": "tuple"
                },
                {
                  "internalType": "enum JobApplicationStatus",
                  "name": "status",
                  "type": "uint8"
                }
              ],
              "internalType": "struct JobApplication[]",
              "name": "applications",
              "type": "tuple[]"
            },
            {
              "internalType": "enum JobOfferStatus",
              "name": "status",
              "type": "uint8"
            },
            {
              "internalType": "uint256",
              "name": "numberOfMaxHires",
              "type": "uint256"
            },
            {
              "internalType": "uint256",
              "name": "numberHired",
              "type": "uint256"
            }
          ],
          "internalType": "struct JobOffer",
          "name": "",
          "type": "tuple"
        }
      ],
      "stateMutability": "view",
      "type": "function",
      "constant": true
    },
    {
      "inputs": [],
      "name": "test",
      "outputs": [
        {
          "internalType": "string",
          "name": "",
          "type": "string"
        }
      ],
      "stateMutability": "pure",
      "type": "function",
      "constant": true
    },
    {
      "inputs": [],
      "name": "getNumberOfCreatorProfiles",
      "outputs": [
        {
          "internalType": "uint256",
          "name": "",
          "type": "uint256"
        }
      ],
      "stateMutability": "view",
      "type": "function",
      "constant": true
    },
    {
      "inputs": [],
      "name": "getNumberOfApplicantProfiles",
      "outputs": [
        {
          "internalType": "uint256",
          "name": "",
          "type": "uint256"
        }
      ],
      "stateMutability": "view",
      "type": "function",
      "constant": true
    },
    {
      "inputs": [],
      "name": "getnumberOfJobsCreated",
      "outputs": [
        {
          "internalType": "uint256",
          "name": "",
          "type": "uint256"
        }
      ],
      "stateMutability": "view",
      "type": "function",
      "constant": true
    },
    {
      "inputs": [],
      "name": "getNumberOfApplications",
      "outputs": [
        {
          "internalType": "uint256",
          "name": "",
          "type": "uint256"
        }
      ],
      "stateMutability": "view",
      "type": "function",
      "constant": true
    }
  ],
  "bytecode": "0x608060405234801561001057600080fd5b50336000806101000a81548173ffffffffffffffffffffffffffffffffffffffff021916908373ffffffffffffffffffffffffffffffffffffffff160217905550615e5980620000616000396000f3fe608060405234801561001057600080fd5b506004361061010b5760003560e01c806392c08184116100a2578063b0c982d111610071578063b0c982d1146102b1578063bf22c457146102cf578063c5734335146102ff578063c5e83e971461032f578063f8a8fd6d1461034b5761010b565b806392c081841461022257806395b04be214610240578063a7f718a014610277578063a86da9b4146102935761010b565b80636c09a5e3116100de5780636c09a5e31461019657806387e6446f146101b25780638f670394146101ce57806392b2a791146101ec5761010b565b8063193f394f14610110578063213fbf1b146101405780632ae4bc551461015c5780632bd463f614610178575b600080fd5b61012a600480360381019061012591906149fa565b610369565b6040516101379190614d8e565b60405180910390f35b61015a60048036038101906101559190614ddc565b6107df565b005b61017660048036038101906101719190614e6e565b610b2c565b005b610180610f58565b60405161018d9190614f66565b60405180910390f35b6101b060048036038101906101ab9190614f81565b610f62565b005b6101cc60048036038101906101c79190614e6e565b6116c0565b005b6101d6611acf565b6040516101e3919061532b565b60405180910390f35b610206600480360381019061020191906149fa565b612400565b60405161021997969594939291906153b5565b60405180910390f35b61022a61268f565b6040516102379190614f66565b60405180910390f35b61025a600480360381019061025591906149fa565b612699565b60405161026e98979695949392919061544f565b60405180910390f35b610291600480360381019061028c91906154e9565b61293b565b005b61029b61317a565b6040516102a89190614f66565b60405180910390f35b6102b9613187565b6040516102c69190614f66565b60405180910390f35b6102e960048036038101906102e49190614ddc565b613194565b6040516102f6919061566a565b60405180910390f35b610319600480360381019061031491906149fa565b613b02565b604051610326919061532b565b60405180910390f35b61034960048036038101906103449190614ddc565b614472565b005b610353614586565b604051610360919061568c565b60405180910390f35b6060600c60008373ffffffffffffffffffffffffffffffffffffffff1673ffffffffffffffffffffffffffffffffffffffff168152602001908152602001600020805480602002602001604051908101604052809291908181526020016000905b828210156107d457838290600052602060002090600b02016040518060a00160405290816000820154815260200160018201548152602001600282018054610411906156dd565b80601f016020809104026020016040519081016040528092919081815260200182805461043d906156dd565b801561048a5780601f1061045f5761010080835404028352916020019161048a565b820191906000526020600020905b81548152906001019060200180831161046d57829003601f168201915b50505050508152602001600382016040518060e0016040529081600082015481526020016001820160009054906101000a900473ffffffffffffffffffffffffffffffffffffffff1673ffffffffffffffffffffffffffffffffffffffff1673ffffffffffffffffffffffffffffffffffffffff168152602001600282018054610513906156dd565b80601f016020809104026020016040519081016040528092919081815260200182805461053f906156dd565b801561058c5780601f106105615761010080835404028352916020019161058c565b820191906000526020600020905b81548152906001019060200180831161056f57829003601f168201915b505050505081526020016003820180546105a5906156dd565b80601f01602080910402602001604051908101604052809291908181526020018280546105d1906156dd565b801561061e5780601f106105f35761010080835404028352916020019161061e565b820191906000526020600020905b81548152906001019060200180831161060157829003601f168201915b50505050508152602001600482018054610637906156dd565b80601f0160208091040260200160405190810160405280929190818152602001828054610663906156dd565b80156106b05780601f10610685576101008083540402835291602001916106b0565b820191906000526020600020905b81548152906001019060200180831161069357829003601f168201915b505050505081526020016005820180546106c9906156dd565b80601f01602080910402602001604051908101604052809291908181526020018280546106f5906156dd565b80156107425780601f1061071757610100808354040283529160200191610742565b820191906000526020600020905b81548152906001019060200180831161072557829003601f168201915b505050505081526020016006820160009054906101000a900460ff1660018111156107705761076f614b0b565b5b600181111561078257610781614b0b565b5b815250508152602001600a820160009054906101000a900460ff1660028111156107af576107ae614b0b565b5b60028111156107c1576107c0614b0b565b5b81525050815260200190600101906103ca565b505050509050919050565b3260011515600760008373ffffffffffffffffffffffffffffffffffffffff1673ffffffffffffffffffffffffffffffffffffffff16815260200190815260200160002060009054906101000a900460ff161515146040518060600160405280602a8152602001615d67602a91399061088e576040517f08c379a0000000000000000000000000000000000000000000000000000000008152600401610885919061568c565b60405180910390fd5b506000600a6001846108a0919061573d565b815481106108b1576108b0615771565b5b90600052602060002090600b0201905060006009600183600101546108d6919061573d565b815481106108e7576108e6615771565b5b90600052602060002090600e0201905080600c015481600d015410604051806060016040528060358152602001615def603591399061095c576040517f08c379a0000000000000000000000000000000000000000000000000000000008152600401610953919061568c565b60405180910390fd5b506000600281111561097157610970614b0b565b5b81600b0160009054906101000a900460ff16600281111561099557610994614b0b565b5b14604051806060016040528060318152602001615dbe60319139906109f0576040517f08c379a00000000000000000000000000000000000000000000000000000000081526004016109e7919061568c565b60405180910390fd5b5060006002811115610a0557610a04614b0b565b5b82600a0160009054906101000a900460ff166002811115610a2957610a28614b0b565b5b146040518060400160405280601b81526020017f546865206170706c69636174696f6e206973206e6f74206f70656e000000000081525090610aa1576040517f08c379a0000000000000000000000000000000000000000000000000000000008152600401610a98919061568c565b60405180910390fd5b50600182600a0160006101000a81548160ff02191690836002811115610aca57610ac9614b0b565b5b021790555080600d016000815480929190610ae4906157a0565b919050555080600c015481600d015403610b2657600181600b0160006101000a81548160ff02191690836002811115610b2057610b1f614b0b565b5b02179055505b50505050565b85856000151560058383604051610b44929190615827565b908152602001604051809103902060009054906101000a900460ff161515148015610ba057506000151560068383604051610b80929190615827565b908152602001604051809103902060009054906101000a900460ff161515145b6040518060400160405280601581526020017f456d61696c20616c72656164792065786973747321000000000000000000000081525090610c17576040517f08c379a0000000000000000000000000000000000000000000000000000000008152600401610c0e919061568c565b60405180910390fd5b5060001515600760003273ffffffffffffffffffffffffffffffffffffffff1673ffffffffffffffffffffffffffffffffffffffff16815260200190815260200160002060009054906101000a900460ff161515148015610cc8575060001515600860003273ffffffffffffffffffffffffffffffffffffffff1673ffffffffffffffffffffffffffffffffffffffff16815260200190815260200160002060009054906101000a900460ff161515145b6040518060400160405280601781526020017f4164647265737320616c7265616479206578697374732100000000000000000081525090610d3f576040517f08c379a0000000000000000000000000000000000000000000000000000000008152600401610d36919061568c565b60405180910390fd5b506000600360008154610d51906157a0565b91905081905590506000600160003273ffffffffffffffffffffffffffffffffffffffff1673ffffffffffffffffffffffffffffffffffffffff16815260200190815260200160002090508181600001819055508b8b826002019182610db8929190615a26565b508989826001019182610dcc929190615a26565b508787826004019182610de0929190615a26565b508585826003019182610df4929190615a26565b50600160058b8b604051610e09929190615827565b908152602001604051809103902060006101000a81548160ff0219169083151502179055506001600760003273ffffffffffffffffffffffffffffffffffffffff1673ffffffffffffffffffffffffffffffffffffffff16815260200190815260200160002060006101000a81548160ff02191690831515021790555060008160050160146101000a81548160ff02191690831515021790555060008160050160156101000a81548160ff02191690836001811115610ecb57610eca614b0b565b5b0217905550328160050160006101000a81548173ffffffffffffffffffffffffffffffffffffffff021916908373ffffffffffffffffffffffffffffffffffffffff1602179055507fd1a7c154123ed5a80a1f9c4596757daf4b73c53e8bc15299d58a4be0ca50581482604051610f429190614f66565b60405180910390a1505050505050505050505050565b6000600354905090565b3260011515600860008373ffffffffffffffffffffffffffffffffffffffff1673ffffffffffffffffffffffffffffffffffffffff16815260200190815260200160002060009054906101000a900460ff161515146040518060600160405280602d8152602001615d91602d913990611011576040517f08c379a0000000000000000000000000000000000000000000000000000000008152600401611008919061568c565b60405180910390fd5b5060008411801561102757506009805490508411155b611066576040517f08c379a000000000000000000000000000000000000000000000000000000000815260040161105d90615b42565b60405180910390fd5b60006001600a8054905061107a9190615b62565b90506000600960018761108d919061573d565b8154811061109e5761109d615771565b5b90600052602060002090600e02019050600060028111156110c2576110c1614b0b565b5b81600b0160009054906101000a900460ff1660028111156110e6576110e5614b0b565b5b14604051806060016040528060318152602001615dbe6031913990611141576040517f08c379a0000000000000000000000000000000000000000000000000000000008152600401611138919061568c565b60405180910390fd5b506000600a6001816001815401808255809150500390600052602060002090600b02019050828160000181905550868160010181905550858582600201918261118b929190615a26565b50600260003273ffffffffffffffffffffffffffffffffffffffff1673ffffffffffffffffffffffffffffffffffffffff16815260200190815260200160002081600301600082015481600001556001820160009054906101000a900473ffffffffffffffffffffffffffffffffffffffff168160010160006101000a81548173ffffffffffffffffffffffffffffffffffffffff021916908373ffffffffffffffffffffffffffffffffffffffff160217905550600282018160020190816112549190615bac565b50600382018160030190816112699190615bac565b506004820181600401908161127e9190615bac565b50600582018160050190816112939190615bac565b506006820160009054906101000a900460ff168160060160006101000a81548160ff021916908360018111156112cc576112cb614b0b565b5b0217905550905050600081600a0160006101000a81548160ff021916908360028111156112fc576112fb614b0b565b5b021790555081600a018190806001815401808255809150506001900390600052602060002090600b02016000909190919091506000820154816000015560018201548160010155600282018160020190816113579190615bac565b506003820181600301600082015481600001556001820160009054906101000a900473ffffffffffffffffffffffffffffffffffffffff168160010160006101000a81548173ffffffffffffffffffffffffffffffffffffffff021916908373ffffffffffffffffffffffffffffffffffffffff160217905550600282018160020190816113e59190615bac565b50600382018160030190816113fa9190615bac565b506004820181600401908161140f9190615bac565b50600582018160050190816114249190615bac565b506006820160009054906101000a900460ff168160060160006101000a81548160ff0219169083600181111561145d5761145c614b0b565b5b02179055505050600a820160009054906101000a900460ff1681600a0160006101000a81548160ff0219169083600281111561149c5761149b614b0b565b5b02179055505050600c60003273ffffffffffffffffffffffffffffffffffffffff1673ffffffffffffffffffffffffffffffffffffffff1681526020019081526020016000208190806001815401808255809150506001900390600052602060002090600b02016000909190919091506000820154816000015560018201548160010155600282018160020190816115349190615bac565b506003820181600301600082015481600001556001820160009054906101000a900473ffffffffffffffffffffffffffffffffffffffff168160010160006101000a81548173ffffffffffffffffffffffffffffffffffffffff021916908373ffffffffffffffffffffffffffffffffffffffff160217905550600282018160020190816115c29190615bac565b50600382018160030190816115d79190615bac565b50600482018160040190816115ec9190615bac565b50600582018160050190816116019190615bac565b506006820160009054906101000a900460ff168160060160006101000a81548160ff0219169083600181111561163a57611639614b0b565b5b02179055505050600a820160009054906101000a900460ff1681600a0160006101000a81548160ff0219169083600281111561167957611678614b0b565b5b021790555050507f4b6126472f7a5c1a21fe858797a6bb6ed361c62b74d480965163d30d68576d4f836040516116af9190614f66565b60405180910390a150505050505050565b858560001515600583836040516116d8929190615827565b908152602001604051809103902060009054906101000a900460ff16151514801561173457506000151560068383604051611714929190615827565b908152602001604051809103902060009054906101000a900460ff161515145b6040518060400160405280601581526020017f456d61696c20616c726561647920657869737473210000000000000000000000815250906117ab576040517f08c379a00000000000000000000000000000000000000000000000000000000081526004016117a2919061568c565b60405180910390fd5b5060001515600760003273ffffffffffffffffffffffffffffffffffffffff1673ffffffffffffffffffffffffffffffffffffffff16815260200190815260200160002060009054906101000a900460ff16151514801561185c575060001515600860003273ffffffffffffffffffffffffffffffffffffffff1673ffffffffffffffffffffffffffffffffffffffff16815260200190815260200160002060009054906101000a900460ff161515145b6040518060400160405280601781526020017f4164647265737320616c72656164792065786973747321000000000000000000815250906118d3576040517f08c379a00000000000000000000000000000000000000000000000000000000081526004016118ca919061568c565b60405180910390fd5b5060006004600081546118e5906157a0565b91905081905590506000600260003273ffffffffffffffffffffffffffffffffffffffff1673ffffffffffffffffffffffffffffffffffffffff16815260200190815260200160002090508181600001819055508b8b82600201918261194c929190615a26565b508989826003019182611960929190615a26565b508787826004019182611974929190615a26565b508585826005019182611988929190615a26565b50600160068b8b60405161199d929190615827565b908152602001604051809103902060006101000a81548160ff0219169083151502179055506001600860003273ffffffffffffffffffffffffffffffffffffffff1673ffffffffffffffffffffffffffffffffffffffff16815260200190815260200160002060006101000a81548160ff02191690831515021790555060018160060160006101000a81548160ff02191690836001811115611a4257611a41614b0b565b5b0217905550328160010160006101000a81548173ffffffffffffffffffffffffffffffffffffffff021916908373ffffffffffffffffffffffffffffffffffffffff1602179055507f7a7674d49ab4ac57338891a3e15ebdbe5e6abbb1637fc6c5cfa506e2fa360ad082604051611ab99190614f66565b60405180910390a1505050505050505050505050565b60606009805480602002602001604051908101604052809291908181526020016000905b828210156123f757838290600052602060002090600e02016040518061012001604052908160008201548152602001600182018054611b31906156dd565b80601f0160208091040260200160405190810160405280929190818152602001828054611b5d906156dd565b8015611baa5780601f10611b7f57610100808354040283529160200191611baa565b820191906000526020600020905b815481529060010190602001808311611b8d57829003601f168201915b50505050508152602001600282018054611bc3906156dd565b80601f0160208091040260200160405190810160405280929190818152602001828054611bef906156dd565b8015611c3c5780601f10611c1157610100808354040283529160200191611c3c565b820191906000526020600020905b815481529060010190602001808311611c1f57829003601f168201915b5050505050815260200160038201548152602001600482016040518061010001604052908160008201548152602001600182018054611c7a906156dd565b80601f0160208091040260200160405190810160405280929190818152602001828054611ca6906156dd565b8015611cf35780601f10611cc857610100808354040283529160200191611cf3565b820191906000526020600020905b815481529060010190602001808311611cd657829003601f168201915b50505050508152602001600282018054611d0c906156dd565b80601f0160208091040260200160405190810160405280929190818152602001828054611d38906156dd565b8015611d855780601f10611d5a57610100808354040283529160200191611d85565b820191906000526020600020905b815481529060010190602001808311611d6857829003601f168201915b50505050508152602001600382018054611d9e906156dd565b80601f0160208091040260200160405190810160405280929190818152602001828054611dca906156dd565b8015611e175780601f10611dec57610100808354040283529160200191611e17565b820191906000526020600020905b815481529060010190602001808311611dfa57829003601f168201915b50505050508152602001600482018054611e30906156dd565b80601f0160208091040260200160405190810160405280929190818152602001828054611e5c906156dd565b8015611ea95780601f10611e7e57610100808354040283529160200191611ea9565b820191906000526020600020905b815481529060010190602001808311611e8c57829003601f168201915b505050505081526020016005820160009054906101000a900473ffffffffffffffffffffffffffffffffffffffff1673ffffffffffffffffffffffffffffffffffffffff1673ffffffffffffffffffffffffffffffffffffffff1681526020016005820160149054906101000a900460ff161515151581526020016005820160159054906101000a900460ff166001811115611f4857611f47614b0b565b5b6001811115611f5a57611f59614b0b565b5b815250508152602001600a8201805480602002602001604051908101604052809291908181526020016000905b8282101561239157838290600052602060002090600b02016040518060a00160405290816000820154815260200160018201548152602001600282018054611fce906156dd565b80601f0160208091040260200160405190810160405280929190818152602001828054611ffa906156dd565b80156120475780601f1061201c57610100808354040283529160200191612047565b820191906000526020600020905b81548152906001019060200180831161202a57829003601f168201915b50505050508152602001600382016040518060e0016040529081600082015481526020016001820160009054906101000a900473ffffffffffffffffffffffffffffffffffffffff1673ffffffffffffffffffffffffffffffffffffffff1673ffffffffffffffffffffffffffffffffffffffff1681526020016002820180546120d0906156dd565b80601f01602080910402602001604051908101604052809291908181526020018280546120fc906156dd565b80156121495780601f1061211e57610100808354040283529160200191612149565b820191906000526020600020905b81548152906001019060200180831161212c57829003601f168201915b50505050508152602001600382018054612162906156dd565b80601f016020809104026020016040519081016040528092919081815260200182805461218e906156dd565b80156121db5780601f106121b0576101008083540402835291602001916121db565b820191906000526020600020905b8154815290600101906020018083116121be57829003601f168201915b505050505081526020016004820180546121f4906156dd565b80601f0160208091040260200160405190810160405280929190818152602001828054612220906156dd565b801561226d5780601f106122425761010080835404028352916020019161226d565b820191906000526020600020905b81548152906001019060200180831161225057829003601f168201915b50505050508152602001600582018054612286906156dd565b80601f01602080910402602001604051908101604052809291908181526020018280546122b2906156dd565b80156122ff5780601f106122d4576101008083540402835291602001916122ff565b820191906000526020600020905b8154815290600101906020018083116122e257829003601f168201915b505050505081526020016006820160009054906101000a900460ff16600181111561232d5761232c614b0b565b5b600181111561233f5761233e614b0b565b5b815250508152602001600a820160009054906101000a900460ff16600281111561236c5761236b614b0b565b5b600281111561237e5761237d614b0b565b5b8152505081526020019060010190611f87565b505050508152602001600b820160009054906101000a900460ff1660028111156123be576123bd614b0b565b5b60028111156123d0576123cf614b0b565b5b8152602001600c8201548152602001600d8201548152505081526020019060010190611af3565b50505050905090565b60026020528060005260406000206000915090508060000154908060010160009054906101000a900473ffffffffffffffffffffffffffffffffffffffff169080600201805461244f906156dd565b80601f016020809104026020016040519081016040528092919081815260200182805461247b906156dd565b80156124c85780601f1061249d576101008083540402835291602001916124c8565b820191906000526020600020905b8154815290600101906020018083116124ab57829003601f168201915b5050505050908060030180546124dd906156dd565b80601f0160208091040260200160405190810160405280929190818152602001828054612509906156dd565b80156125565780601f1061252b57610100808354040283529160200191612556565b820191906000526020600020905b81548152906001019060200180831161253957829003601f168201915b50505050509080600401805461256b906156dd565b80601f0160208091040260200160405190810160405280929190818152602001828054612597906156dd565b80156125e45780601f106125b9576101008083540402835291602001916125e4565b820191906000526020600020905b8154815290600101906020018083116125c757829003601f168201915b5050505050908060050180546125f9906156dd565b80601f0160208091040260200160405190810160405280929190818152602001828054612625906156dd565b80156126725780601f1061264757610100808354040283529160200191612672565b820191906000526020600020905b81548152906001019060200180831161265557829003601f168201915b5050505050908060060160009054906101000a900460ff16905087565b6000600454905090565b60016020528060005260406000206000915090508060000154908060010180546126c2906156dd565b80601f01602080910402602001604051908101604052809291908181526020018280546126ee906156dd565b801561273b5780601f106127105761010080835404028352916020019161273b565b820191906000526020600020905b81548152906001019060200180831161271e57829003601f168201915b505050505090806002018054612750906156dd565b80601f016020809104026020016040519081016040528092919081815260200182805461277c906156dd565b80156127c95780601f1061279e576101008083540402835291602001916127c9565b820191906000526020600020905b8154815290600101906020018083116127ac57829003601f168201915b5050505050908060030180546127de906156dd565b80601f016020809104026020016040519081016040528092919081815260200182805461280a906156dd565b80156128575780601f1061282c57610100808354040283529160200191612857565b820191906000526020600020905b81548152906001019060200180831161283a57829003601f168201915b50505050509080600401805461286c906156dd565b80601f0160208091040260200160405190810160405280929190818152602001828054612898906156dd565b80156128e55780601f106128ba576101008083540402835291602001916128e5565b820191906000526020600020905b8154815290600101906020018083116128c857829003601f168201915b5050505050908060050160009054906101000a900473ffffffffffffffffffffffffffffffffffffffff16908060050160149054906101000a900460ff16908060050160159054906101000a900460ff16905088565b3260011515600760008373ffffffffffffffffffffffffffffffffffffffff1673ffffffffffffffffffffffffffffffffffffffff16815260200190815260200160002060009054906101000a900460ff161515146040518060600160405280602a8152602001615d67602a9139906129ea576040517f08c379a00000000000000000000000000000000000000000000000000000000081526004016129e1919061568c565b60405180910390fd5b50600060016009805490506129ff9190615b62565b9050600060096001816001815401808255809150500390600052602060002090600e020190508181600001819055508888826001019182612a41929190615a26565b508686826002019182612a55929190615a26565b508481600301819055508381600c01819055506000600160003273ffffffffffffffffffffffffffffffffffffffff1673ffffffffffffffffffffffffffffffffffffffff1681526020019081526020016000206040518061010001604052908160008201548152602001600182018054612acf906156dd565b80601f0160208091040260200160405190810160405280929190818152602001828054612afb906156dd565b8015612b485780601f10612b1d57610100808354040283529160200191612b48565b820191906000526020600020905b815481529060010190602001808311612b2b57829003601f168201915b50505050508152602001600282018054612b61906156dd565b80601f0160208091040260200160405190810160405280929190818152602001828054612b8d906156dd565b8015612bda5780601f10612baf57610100808354040283529160200191612bda565b820191906000526020600020905b815481529060010190602001808311612bbd57829003601f168201915b50505050508152602001600382018054612bf3906156dd565b80601f0160208091040260200160405190810160405280929190818152602001828054612c1f906156dd565b8015612c6c5780601f10612c4157610100808354040283529160200191612c6c565b820191906000526020600020905b815481529060010190602001808311612c4f57829003601f168201915b50505050508152602001600482018054612c85906156dd565b80601f0160208091040260200160405190810160405280929190818152602001828054612cb1906156dd565b8015612cfe5780601f10612cd357610100808354040283529160200191612cfe565b820191906000526020600020905b815481529060010190602001808311612ce157829003601f168201915b505050505081526020016005820160009054906101000a900473ffffffffffffffffffffffffffffffffffffffff1673ffffffffffffffffffffffffffffffffffffffff1673ffffffffffffffffffffffffffffffffffffffff1681526020016005820160149054906101000a900460ff161515151581526020016005820160159054906101000a900460ff166001811115612d9d57612d9c614b0b565b5b6001811115612daf57612dae614b0b565b5b8152505090508082600401600082015181600001556020820151816001019081612dd99190615c94565b506040820151816002019081612def9190615c94565b506060820151816003019081612e059190615c94565b506080820151816004019081612e1b9190615c94565b5060a08201518160050160006101000a81548173ffffffffffffffffffffffffffffffffffffffff021916908373ffffffffffffffffffffffffffffffffffffffff16021790555060c08201518160050160146101000a81548160ff02191690831515021790555060e08201518160050160156101000a81548160ff02191690836001811115612eae57612ead614b0b565b5b0217905550905050600082600b0160006101000a81548160ff02191690836002811115612ede57612edd614b0b565b5b0217905550600082600d0181905550600b60003273ffffffffffffffffffffffffffffffffffffffff1673ffffffffffffffffffffffffffffffffffffffff1681526020019081526020016000208290806001815401808255809150506001900390600052602060002090600e02016000909190919091506000820154816000015560018201816001019081612f749190615bac565b5060028201816002019081612f899190615bac565b506003820154816003015560048201816004016000820154816000015560018201816001019081612fba9190615bac565b5060028201816002019081612fcf9190615bac565b5060038201816003019081612fe49190615bac565b5060048201816004019081612ff99190615bac565b506005820160009054906101000a900473ffffffffffffffffffffffffffffffffffffffff168160050160006101000a81548173ffffffffffffffffffffffffffffffffffffffff021916908373ffffffffffffffffffffffffffffffffffffffff1602179055506005820160149054906101000a900460ff168160050160146101000a81548160ff0219169083151502179055506005820160159054906101000a900460ff168160050160156101000a81548160ff021916908360018111156130c6576130c5614b0b565b5b02179055505050600a820181600a019080546130e39291906145c3565b50600b820160009054906101000a900460ff1681600b0160006101000a81548160ff0219169083600281111561311c5761311b614b0b565b5b0217905550600c82015481600c0155600d82015481600d015550507f92447c6ecd808d390fb352da0dc90a05275b074c43bf302132a27fabafa6872b836040516131669190614f66565b60405180910390a150505050505050505050565b6000600a80549050905090565b6000600980549050905090565b61319c61478d565b6000821180156131b157506009805490508211155b6131f0576040517f08c379a00000000000000000000000000000000000000000000000000000000081526004016131e790615b42565b60405180910390fd5b60096001836131ff919061573d565b815481106132105761320f615771565b5b90600052602060002090600e02016040518061012001604052908160008201548152602001600182018054613244906156dd565b80601f0160208091040260200160405190810160405280929190818152602001828054613270906156dd565b80156132bd5780601f10613292576101008083540402835291602001916132bd565b820191906000526020600020905b8154815290600101906020018083116132a057829003601f168201915b505050505081526020016002820180546132d6906156dd565b80601f0160208091040260200160405190810160405280929190818152602001828054613302906156dd565b801561334f5780601f106133245761010080835404028352916020019161334f565b820191906000526020600020905b81548152906001019060200180831161333257829003601f168201915b505050505081526020016003820154815260200160048201604051806101000160405290816000820154815260200160018201805461338d906156dd565b80601f01602080910402602001604051908101604052809291908181526020018280546133b9906156dd565b80156134065780601f106133db57610100808354040283529160200191613406565b820191906000526020600020905b8154815290600101906020018083116133e957829003601f168201915b5050505050815260200160028201805461341f906156dd565b80601f016020809104026020016040519081016040528092919081815260200182805461344b906156dd565b80156134985780601f1061346d57610100808354040283529160200191613498565b820191906000526020600020905b81548152906001019060200180831161347b57829003601f168201915b505050505081526020016003820180546134b1906156dd565b80601f01602080910402602001604051908101604052809291908181526020018280546134dd906156dd565b801561352a5780601f106134ff5761010080835404028352916020019161352a565b820191906000526020600020905b81548152906001019060200180831161350d57829003601f168201915b50505050508152602001600482018054613543906156dd565b80601f016020809104026020016040519081016040528092919081815260200182805461356f906156dd565b80156135bc5780601f10613591576101008083540402835291602001916135bc565b820191906000526020600020905b81548152906001019060200180831161359f57829003601f168201915b505050505081526020016005820160009054906101000a900473ffffffffffffffffffffffffffffffffffffffff1673ffffffffffffffffffffffffffffffffffffffff1673ffffffffffffffffffffffffffffffffffffffff1681526020016005820160149054906101000a900460ff161515151581526020016005820160159054906101000a900460ff16600181111561365b5761365a614b0b565b5b600181111561366d5761366c614b0b565b5b815250508152602001600a8201805480602002602001604051908101604052809291908181526020016000905b82821015613aa457838290600052602060002090600b02016040518060a001604052908160008201548152602001600182015481526020016002820180546136e1906156dd565b80601f016020809104026020016040519081016040528092919081815260200182805461370d906156dd565b801561375a5780601f1061372f5761010080835404028352916020019161375a565b820191906000526020600020905b81548152906001019060200180831161373d57829003601f168201915b50505050508152602001600382016040518060e0016040529081600082015481526020016001820160009054906101000a900473ffffffffffffffffffffffffffffffffffffffff1673ffffffffffffffffffffffffffffffffffffffff1673ffffffffffffffffffffffffffffffffffffffff1681526020016002820180546137e3906156dd565b80601f016020809104026020016040519081016040528092919081815260200182805461380f906156dd565b801561385c5780601f106138315761010080835404028352916020019161385c565b820191906000526020600020905b81548152906001019060200180831161383f57829003601f168201915b50505050508152602001600382018054613875906156dd565b80601f01602080910402602001604051908101604052809291908181526020018280546138a1906156dd565b80156138ee5780601f106138c3576101008083540402835291602001916138ee565b820191906000526020600020905b8154815290600101906020018083116138d157829003601f168201915b50505050508152602001600482018054613907906156dd565b80601f0160208091040260200160405190810160405280929190818152602001828054613933906156dd565b80156139805780601f1061395557610100808354040283529160200191613980565b820191906000526020600020905b81548152906001019060200180831161396357829003601f168201915b50505050508152602001600582018054613999906156dd565b80601f01602080910402602001604051908101604052809291908181526020018280546139c5906156dd565b8015613a125780601f106139e757610100808354040283529160200191613a12565b820191906000526020600020905b8154815290600101906020018083116139f557829003601f168201915b505050505081526020016006820160009054906101000a900460ff166001811115613a4057613a3f614b0b565b5b6001811115613a5257613a51614b0b565b5b815250508152602001600a820160009054906101000a900460ff166002811115613a7f57613a7e614b0b565b5b6002811115613a9157613a90614b0b565b5b815250508152602001906001019061369a565b505050508152602001600b820160009054906101000a900460ff166002811115613ad157613ad0614b0b565b5b6002811115613ae357613ae2614b0b565b5b8152602001600c8201548152602001600d820154815250509050919050565b6060600b60008373ffffffffffffffffffffffffffffffffffffffff1673ffffffffffffffffffffffffffffffffffffffff168152602001908152602001600020805480602002602001604051908101604052809291908181526020016000905b8282101561446757838290600052602060002090600e02016040518061012001604052908160008201548152602001600182018054613ba1906156dd565b80601f0160208091040260200160405190810160405280929190818152602001828054613bcd906156dd565b8015613c1a5780601f10613bef57610100808354040283529160200191613c1a565b820191906000526020600020905b815481529060010190602001808311613bfd57829003601f168201915b50505050508152602001600282018054613c33906156dd565b80601f0160208091040260200160405190810160405280929190818152602001828054613c5f906156dd565b8015613cac5780601f10613c8157610100808354040283529160200191613cac565b820191906000526020600020905b815481529060010190602001808311613c8f57829003601f168201915b5050505050815260200160038201548152602001600482016040518061010001604052908160008201548152602001600182018054613cea906156dd565b80601f0160208091040260200160405190810160405280929190818152602001828054613d16906156dd565b8015613d635780601f10613d3857610100808354040283529160200191613d63565b820191906000526020600020905b815481529060010190602001808311613d4657829003601f168201915b50505050508152602001600282018054613d7c906156dd565b80601f0160208091040260200160405190810160405280929190818152602001828054613da8906156dd565b8015613df55780601f10613dca57610100808354040283529160200191613df5565b820191906000526020600020905b815481529060010190602001808311613dd857829003601f168201915b50505050508152602001600382018054613e0e906156dd565b80601f0160208091040260200160405190810160405280929190818152602001828054613e3a906156dd565b8015613e875780601f10613e5c57610100808354040283529160200191613e87565b820191906000526020600020905b815481529060010190602001808311613e6a57829003601f168201915b50505050508152602001600482018054613ea0906156dd565b80601f0160208091040260200160405190810160405280929190818152602001828054613ecc906156dd565b8015613f195780601f10613eee57610100808354040283529160200191613f19565b820191906000526020600020905b815481529060010190602001808311613efc57829003601f168201915b505050505081526020016005820160009054906101000a900473ffffffffffffffffffffffffffffffffffffffff1673ffffffffffffffffffffffffffffffffffffffff1673ffffffffffffffffffffffffffffffffffffffff1681526020016005820160149054906101000a900460ff161515151581526020016005820160159054906101000a900460ff166001811115613fb857613fb7614b0b565b5b6001811115613fca57613fc9614b0b565b5b815250508152602001600a8201805480602002602001604051908101604052809291908181526020016000905b8282101561440157838290600052602060002090600b02016040518060a0016040529081600082015481526020016001820154815260200160028201805461403e906156dd565b80601f016020809104026020016040519081016040528092919081815260200182805461406a906156dd565b80156140b75780601f1061408c576101008083540402835291602001916140b7565b820191906000526020600020905b81548152906001019060200180831161409a57829003601f168201915b50505050508152602001600382016040518060e0016040529081600082015481526020016001820160009054906101000a900473ffffffffffffffffffffffffffffffffffffffff1673ffffffffffffffffffffffffffffffffffffffff1673ffffffffffffffffffffffffffffffffffffffff168152602001600282018054614140906156dd565b80601f016020809104026020016040519081016040528092919081815260200182805461416c906156dd565b80156141b95780601f1061418e576101008083540402835291602001916141b9565b820191906000526020600020905b81548152906001019060200180831161419c57829003601f168201915b505050505081526020016003820180546141d2906156dd565b80601f01602080910402602001604051908101604052809291908181526020018280546141fe906156dd565b801561424b5780601f106142205761010080835404028352916020019161424b565b820191906000526020600020905b81548152906001019060200180831161422e57829003601f168201915b50505050508152602001600482018054614264906156dd565b80601f0160208091040260200160405190810160405280929190818152602001828054614290906156dd565b80156142dd5780601f106142b2576101008083540402835291602001916142dd565b820191906000526020600020905b8154815290600101906020018083116142c057829003601f168201915b505050505081526020016005820180546142f6906156dd565b80601f0160208091040260200160405190810160405280929190818152602001828054614322906156dd565b801561436f5780601f106143445761010080835404028352916020019161436f565b820191906000526020600020905b81548152906001019060200180831161435257829003601f168201915b505050505081526020016006820160009054906101000a900460ff16600181111561439d5761439c614b0b565b5b60018111156143af576143ae614b0b565b5b815250508152602001600a820160009054906101000a900460ff1660028111156143dc576143db614b0b565b5b60028111156143ee576143ed614b0b565b5b8152505081526020019060010190613ff7565b505050508152602001600b820160009054906101000a900460ff16600281111561442e5761442d614b0b565b5b60028111156144405761443f614b0b565b5b8152602001600c8201548152602001600d8201548152505081526020019060010190613b63565b505050509050919050565b3260011515600760008373ffffffffffffffffffffffffffffffffffffffff1673ffffffffffffffffffffffffffffffffffffffff16815260200190815260200160002060009054906101000a900460ff161515146040518060600160405280602a8152602001615d67602a913990614521576040517f08c379a0000000000000000000000000000000000000000000000000000000008152600401614518919061568c565b60405180910390fd5b506000600a600184614533919061573d565b8154811061454457614543615771565b5b90600052602060002090600b02019050600281600a0160006101000a81548160ff0219169083600281111561457c5761457b614b0b565b5b0217905550505050565b60606040518060400160405280600581526020017f68656c6c6f000000000000000000000000000000000000000000000000000000815250905090565b82805482825590600052602060002090600b02810192821561477c57600052602060002091600b0282015b8281111561477b5782826000820154816000015560018201548160010155600282018160020190816146209190615bac565b506003820181600301600082015481600001556001820160009054906101000a900473ffffffffffffffffffffffffffffffffffffffff168160010160006101000a81548173ffffffffffffffffffffffffffffffffffffffff021916908373ffffffffffffffffffffffffffffffffffffffff160217905550600282018160020190816146ae9190615bac565b50600382018160030190816146c39190615bac565b50600482018160040190816146d89190615bac565b50600582018160050190816146ed9190615bac565b506006820160009054906101000a900460ff168160060160006101000a81548160ff0219169083600181111561472657614725614b0b565b5b02179055505050600a820160009054906101000a900460ff1681600a0160006101000a81548160ff0219169083600281111561476557614764614b0b565b5b0217905550505091600b019190600b01906145ee565b5b50905061478991906147f1565b5090565b604051806101200160405280600081526020016060815260200160608152602001600081526020016147bd6148c6565b815260200160608152602001600060028111156147dd576147dc614b0b565b5b815260200160008152602001600081525090565b5b808211156148c257600080820160009055600182016000905560028201600061481b9190614935565b600382016000808201600090556001820160006101000a81549073ffffffffffffffffffffffffffffffffffffffff021916905560028201600061485f9190614935565b60038201600061486f9190614935565b60048201600061487f9190614935565b60058201600061488f9190614935565b6006820160006101000a81549060ff02191690555050600a820160006101000a81549060ff021916905550600b016147f2565b5090565b6040518061010001604052806000815260200160608152602001606081526020016060815260200160608152602001600073ffffffffffffffffffffffffffffffffffffffff1681526020016000151581526020016000600181111561492f5761492e614b0b565b5b81525090565b508054614941906156dd565b6000825580601f106149535750614972565b601f0160209004906000526020600020908101906149719190614975565b5b50565b5b8082111561498e576000816000905550600101614976565b5090565b600080fd5b600080fd5b600073ffffffffffffffffffffffffffffffffffffffff82169050919050565b60006149c78261499c565b9050919050565b6149d7816149bc565b81146149e257600080fd5b50565b6000813590506149f4816149ce565b92915050565b600060208284031215614a1057614a0f614992565b5b6000614a1e848285016149e5565b91505092915050565b600081519050919050565b600082825260208201905092915050565b6000819050602082019050919050565b6000819050919050565b614a6681614a53565b82525050565b600081519050919050565b600082825260208201905092915050565b60005b83811015614aa6578082015181840152602081019050614a8b565b60008484015250505050565b6000601f19601f8301169050919050565b6000614ace82614a6c565b614ad88185614a77565b9350614ae8818560208601614a88565b614af181614ab2565b840191505092915050565b614b05816149bc565b82525050565b7f4e487b7100000000000000000000000000000000000000000000000000000000600052602160045260246000fd5b60028110614b4b57614b4a614b0b565b5b50565b6000819050614b5c82614b3a565b919050565b6000614b6c82614b4e565b9050919050565b614b7c81614b61565b82525050565b600060e083016000830151614b9a6000860182614a5d565b506020830151614bad6020860182614afc565b5060408301518482036040860152614bc58282614ac3565b91505060608301518482036060860152614bdf8282614ac3565b91505060808301518482036080860152614bf98282614ac3565b91505060a083015184820360a0860152614c138282614ac3565b91505060c0830151614c2860c0860182614b73565b508091505092915050565b60038110614c4457614c43614b0b565b5b50565b6000819050614c5582614c33565b919050565b6000614c6582614c47565b9050919050565b614c7581614c5a565b82525050565b600060a083016000830151614c936000860182614a5d565b506020830151614ca66020860182614a5d565b5060408301518482036040860152614cbe8282614ac3565b91505060608301518482036060860152614cd88282614b82565b9150506080830151614ced6080860182614c6c565b508091505092915050565b6000614d048383614c7b565b905092915050565b6000602082019050919050565b6000614d2482614a27565b614d2e8185614a32565b935083602082028501614d4085614a43565b8060005b85811015614d7c5784840389528151614d5d8582614cf8565b9450614d6883614d0c565b925060208a01995050600181019050614d44565b50829750879550505050505092915050565b60006020820190508181036000830152614da88184614d19565b905092915050565b614db981614a53565b8114614dc457600080fd5b50565b600081359050614dd681614db0565b92915050565b600060208284031215614df257614df1614992565b5b6000614e0084828501614dc7565b91505092915050565b600080fd5b600080fd5b600080fd5b60008083601f840112614e2e57614e2d614e09565b5b8235905067ffffffffffffffff811115614e4b57614e4a614e0e565b5b602083019150836001820283011115614e6757614e66614e13565b5b9250929050565b6000806000806000806000806080898b031215614e8e57614e8d614992565b5b600089013567ffffffffffffffff811115614eac57614eab614997565b5b614eb88b828c01614e18565b9850985050602089013567ffffffffffffffff811115614edb57614eda614997565b5b614ee78b828c01614e18565b9650965050604089013567ffffffffffffffff811115614f0a57614f09614997565b5b614f168b828c01614e18565b9450945050606089013567ffffffffffffffff811115614f3957614f38614997565b5b614f458b828c01614e18565b92509250509295985092959890939650565b614f6081614a53565b82525050565b6000602082019050614f7b6000830184614f57565b92915050565b600080600060408486031215614f9a57614f99614992565b5b6000614fa886828701614dc7565b935050602084013567ffffffffffffffff811115614fc957614fc8614997565b5b614fd586828701614e18565b92509250509250925092565b600081519050919050565b600082825260208201905092915050565b6000819050602082019050919050565b60008115159050919050565b6150228161500d565b82525050565b6000610100830160008301516150416000860182614a5d565b50602083015184820360208601526150598282614ac3565b915050604083015184820360408601526150738282614ac3565b9150506060830151848203606086015261508d8282614ac3565b915050608083015184820360808601526150a78282614ac3565b91505060a08301516150bc60a0860182614afc565b5060c08301516150cf60c0860182615019565b5060e08301516150e260e0860182614b73565b508091505092915050565b600082825260208201905092915050565b600061510982614a27565b61511381856150ed565b93508360208202850161512585614a43565b8060005b8581101561516157848403895281516151428582614cf8565b945061514d83614d0c565b925060208a01995050600181019050615129565b50829750879550505050505092915050565b6003811061518457615183614b0b565b5b50565b600081905061519582615173565b919050565b60006151a582615187565b9050919050565b6151b58161519a565b82525050565b6000610120830160008301516151d46000860182614a5d565b50602083015184820360208601526151ec8282614ac3565b915050604083015184820360408601526152068282614ac3565b915050606083015161521b6060860182614a5d565b50608083015184820360808601526152338282615028565b91505060a083015184820360a086015261524d82826150fe565b91505060c083015161526260c08601826151ac565b5060e083015161527560e0860182614a5d565b5061010083015161528a610100860182614a5d565b508091505092915050565b60006152a183836151bb565b905092915050565b6000602082019050919050565b60006152c182614fe1565b6152cb8185614fec565b9350836020820285016152dd85614ffd565b8060005b8581101561531957848403895281516152fa8582615295565b9450615305836152a9565b925060208a019950506001810190506152e1565b50829750879550505050505092915050565b6000602082019050818103600083015261534581846152b6565b905092915050565b615356816149bc565b82525050565b600082825260208201905092915050565b600061537882614a6c565b615382818561535c565b9350615392818560208601614a88565b61539b81614ab2565b840191505092915050565b6153af81614b61565b82525050565b600060e0820190506153ca600083018a614f57565b6153d7602083018961534d565b81810360408301526153e9818861536d565b905081810360608301526153fd818761536d565b90508181036080830152615411818661536d565b905081810360a0830152615425818561536d565b905061543460c08301846153a6565b98975050505050505050565b6154498161500d565b82525050565b600061010082019050615465600083018b614f57565b8181036020830152615477818a61536d565b9050818103604083015261548b818961536d565b9050818103606083015261549f818861536d565b905081810360808301526154b3818761536d565b90506154c260a083018661534d565b6154cf60c0830185615440565b6154dc60e08301846153a6565b9998505050505050505050565b6000806000806000806080878903121561550657615505614992565b5b600087013567ffffffffffffffff81111561552457615523614997565b5b61553089828a01614e18565b9650965050602087013567ffffffffffffffff81111561555357615552614997565b5b61555f89828a01614e18565b9450945050604061557289828a01614dc7565b925050606061558389828a01614dc7565b9150509295509295509295565b6000610120830160008301516155a96000860182614a5d565b50602083015184820360208601526155c18282614ac3565b915050604083015184820360408601526155db8282614ac3565b91505060608301516155f06060860182614a5d565b50608083015184820360808601526156088282615028565b91505060a083015184820360a086015261562282826150fe565b91505060c083015161563760c08601826151ac565b5060e083015161564a60e0860182614a5d565b5061010083015161565f610100860182614a5d565b508091505092915050565b600060208201905081810360008301526156848184615590565b905092915050565b600060208201905081810360008301526156a6818461536d565b905092915050565b7f4e487b7100000000000000000000000000000000000000000000000000000000600052602260045260246000fd5b600060028204905060018216806156f557607f821691505b602082108103615708576157076156ae565b5b50919050565b7f4e487b7100000000000000000000000000000000000000000000000000000000600052601160045260246000fd5b600061574882614a53565b915061575383614a53565b925082820390508181111561576b5761576a61570e565b5b92915050565b7f4e487b7100000000000000000000000000000000000000000000000000000000600052603260045260246000fd5b60006157ab82614a53565b91507fffffffffffffffffffffffffffffffffffffffffffffffffffffffffffffffff82036157dd576157dc61570e565b5b600182019050919050565b600081905092915050565b82818337600083830152505050565b600061580e83856157e8565b935061581b8385846157f3565b82840190509392505050565b6000615834828486615802565b91508190509392505050565b600082905092915050565b7f4e487b7100000000000000000000000000000000000000000000000000000000600052604160045260246000fd5b60008190508160005260206000209050919050565b60006020601f8301049050919050565b600082821b905092915050565b6000600883026158dc7fffffffffffffffffffffffffffffffffffffffffffffffffffffffffffffffff8261589f565b6158e6868361589f565b95508019841693508086168417925050509392505050565b6000819050919050565b600061592361591e61591984614a53565b6158fe565b614a53565b9050919050565b6000819050919050565b61593d83615908565b6159516159498261592a565b8484546158ac565b825550505050565b600090565b615966615959565b615971818484615934565b505050565b5b818110156159955761598a60008261595e565b600181019050615977565b5050565b601f8211156159da576159ab8161587a565b6159b48461588f565b810160208510156159c3578190505b6159d76159cf8561588f565b830182615976565b50505b505050565b600082821c905092915050565b60006159fd600019846008026159df565b1980831691505092915050565b6000615a1683836159ec565b9150826002028217905092915050565b615a308383615840565b67ffffffffffffffff811115615a4957615a4861584b565b5b615a5382546156dd565b615a5e828285615999565b6000601f831160018114615a8d5760008415615a7b578287013590505b615a858582615a0a565b865550615aed565b601f198416615a9b8661587a565b60005b82811015615ac357848901358255600182019150602085019450602081019050615a9e565b86831015615ae05784890135615adc601f8916826159ec565b8355505b6001600288020188555050505b50505050505050565b7f496e76616c6964206a6f62204944000000000000000000000000000000000000600082015250565b6000615b2c600e8361535c565b9150615b3782615af6565b602082019050919050565b60006020820190508181036000830152615b5b81615b1f565b9050919050565b6000615b6d82614a53565b9150615b7883614a53565b9250828201905080821115615b9057615b8f61570e565b5b92915050565b600081549050615ba5816156dd565b9050919050565b818103615bba575050615c92565b615bc382615b96565b67ffffffffffffffff811115615bdc57615bdb61584b565b5b615be682546156dd565b615bf1828285615999565b6000601f831160018114615c205760008415615c0e578287015490505b615c188582615a0a565b865550615c8b565b601f198416615c2e8761587a565b9650615c398661587a565b60005b82811015615c6157848901548255600182019150600185019450602081019050615c3c565b86831015615c7e5784890154615c7a601f8916826159ec565b8355505b6001600288020188555050505b5050505050505b565b615c9d82614a6c565b67ffffffffffffffff811115615cb657615cb561584b565b5b615cc082546156dd565b615ccb828285615999565b600060209050601f831160018114615cfe5760008415615cec578287015190505b615cf68582615a0a565b865550615d5e565b601f198416615d0c8661587a565b60005b82811015615d3457848901518255600182019150602085019450602081019050615d0f565b86831015615d515784890151615d4d601f8916826159ec565b8355505b6001600288020188555050505b50505050505056fe5468652063616c6c657220646f6573206e6f74206861766520612063726561746f722070726f66696c655468652063616c6c657220646f6573206e6f74206861766520616e206170706c6963616e742070726f66696c65546865206a6f62206f66666572206973206e6f206c6f6e67657220616363657074696e67206170706c69636174696f6e73546865206a6f62206f6666657220686173207265616368656420746865206d6178696d756d206e756d626572206f66206869726573a26469706673582212204fc3b7107deb104ab9c72342f238762e6b3966ac455bbe95a7a35156bd609e4864736f6c63430008130033",
  "immutableReferences": {},
  "source": "// SPDX-License-Identifier: GPL-3.0\n\npragma solidity >=0.7.0 <0.9.0;\n\nimport \"./structs.sol\";\nimport \"./constants.sol\";\n\n/**\n * @title SolJobs\n * @dev Create, apply and award remote jobs on the blockchain\n */\n\ncontract SolJobs {\n    address private manager;\n\n    mapping (address => CreatorProfile) public creatorProfiles;\n    mapping (address => ApplicantProfile) public applicantProfiles;\n\n    uint internal numberOfCreatorProfiles;\n    uint internal numberOfApplicantProfiles;\n\n    mapping (string => bool) private creatorEmails;\n    mapping (string => bool) private applicantEmails;\n\n    mapping (address => bool) private creatorAddresses;\n    mapping (address => bool) private applicantAddresses;\n\n    JobOffer[] private jobOffers;\n    JobApplication[] private jobApplications;\n\n    mapping (address => JobOffer[]) private profileToJobsMapping;\n    mapping (address => JobApplication[]) private profileToApplicationsMapping;\n\n    constructor() {\n        manager = msg.sender;\n    }\n\n    modifier accountIsUnique(string calldata _email) {\n        require(creatorEmails[_email] == false && applicantEmails[_email] == false, emailAlreadyExistsMsg);\n        require(creatorAddresses[tx.origin] == false && applicantAddresses[tx.origin] == false, addressAlreadyExistsMsg);\n\n        _;\n    }\n\n    modifier callerHasCreatorProfile(address _address) {\n        require(creatorAddresses[_address] == true, callerHasNoCreatorProfile);\n\n        _;\n    }\n\n    modifier callerHasApplicantProfile(address _address) {\n        require(applicantAddresses[_address] == true, callerHasNoApplicantProfile);\n\n        _;\n    }\n\n    event CreatorProfileCreated(uint newCreatorID);\n    event ApplicantProfileCreated(uint newApplicantID);\n    event JobCreated(uint newJobID);\n    event ApplicationSubmitted(uint applicationID);\n\n    function createCreatorProfile(\n        string calldata _name,\n        string calldata _email,\n        string calldata _description,\n        string calldata _tagline\n    ) accountIsUnique(_email) external {\n        uint creatorID = ++numberOfCreatorProfiles;\n\n        CreatorProfile storage profile = creatorProfiles[tx.origin];\n        profile.id = creatorID;\n        profile.name = _name;\n        profile.email = _email;\n        profile.description = _description;\n        profile.tagline = _tagline;\n\n        // add to emails and addresses list\n        creatorEmails[_email] = true;\n        creatorAddresses[tx.origin] = true;\n\n        // defaults\n        profile.verified = false;\n        profile.profileType = ProfileType.Creator;\n        profile.creatorAddress = tx.origin;\n\n        emit CreatorProfileCreated(creatorID);\n    }\n\n    function createApplicantProfile(\n        string calldata _fullname,\n        string calldata _email,\n        string calldata _location,\n        string calldata _bio\n    ) external accountIsUnique(_email) {\n        uint applicantID = ++numberOfApplicantProfiles;\n\n        ApplicantProfile storage profile = applicantProfiles[tx.origin];\n        profile.id = applicantID;\n        profile.fullname = _fullname;\n        profile.email = _email;\n        profile.location = _location;\n        profile.bio = _bio;\n        \n        // add to emails and addresses list\n        applicantEmails[_email] = true;\n        applicantAddresses[tx.origin] = true;\n\n        // defaults\n        profile.profileType = ProfileType.Applicant;\n        profile.applicantAddress = tx.origin;\n\n        emit ApplicantProfileCreated(applicantID);\n    }\n\n    function createJobOffer(\n        string calldata title,\n        string calldata description,\n        uint compensation,\n        uint numberOfMaxHires\n    ) external callerHasCreatorProfile(tx.origin) {\n        uint jobID = jobOffers.length + 1;\n\n        JobOffer storage jobOffer = jobOffers.push();\n        jobOffer.id = jobID;\n        jobOffer.title = title;\n        jobOffer.description = description;\n        jobOffer.compensation = compensation;\n        jobOffer.numberOfMaxHires = numberOfMaxHires;\n\n        // defaults\n        CreatorProfile memory creator = creatorProfiles[tx.origin];\n        jobOffer.creator = creator;\n        jobOffer.status = JobOfferStatus.Open;\n        jobOffer.numberHired = 0;\n\n        profileToJobsMapping[tx.origin].push(jobOffer);\n\n        emit JobCreated(jobID);\n    }\n\n    function applyForJob(\n        uint jobID,\n        string calldata coverLetter\n    ) external callerHasApplicantProfile(tx.origin) {\n        require(jobID > 0 && jobID <= jobOffers.length, \"Invalid job ID\");\n\n        uint applicationID = jobApplications.length + 1;\n\n        JobOffer storage jobOffer = jobOffers[jobID - 1];\n        require(jobOffer.status == JobOfferStatus.Open, jobIsNoLongerOpen);\n\n        JobApplication storage jobApplication = jobApplications.push();\n        jobApplication.id = applicationID;\n        jobApplication.jobOfferId = jobID;\n        jobApplication.coverLetter = coverLetter;\n\n        // defaults\n        jobApplication.applicant = applicantProfiles[tx.origin];\n        jobApplication.status = JobApplicationStatus.Pending;\n        jobOffer.applications.push(jobApplication);\n\n        profileToApplicationsMapping[tx.origin].push(jobApplication);\n\n        emit ApplicationSubmitted(applicationID);\n    }\n\n    function approveApplication(uint applicationID) external callerHasCreatorProfile(tx.origin) {\n        // fetch application and the parent job\n        JobApplication storage jobApplication = jobApplications[applicationID - 1];\n        JobOffer storage jobOffer = jobOffers[jobApplication.jobOfferId - 1];\n\n        require(jobOffer.numberHired < jobOffer.numberOfMaxHires, jobMaxedOutHires);\n        require(jobOffer.status == JobOfferStatus.Open, jobIsNoLongerOpen);\n        require(jobApplication.status == JobApplicationStatus.Pending, applicationNotOpen);\n\n        // change application status to approved\n        jobApplication.status = JobApplicationStatus.Approved;\n        jobOffer.numberHired++;\n\n        // close job offer is max number of hires reached\n        if (jobOffer.numberHired == jobOffer.numberOfMaxHires) {\n            jobOffer.status = JobOfferStatus.Filled;\n        }\n    }\n\n    function rejectApplication(uint applicationID) external callerHasCreatorProfile(tx.origin) {\n        JobApplication storage jobApplication = jobApplications[applicationID - 1];\n\n        // reject the application\n        jobApplication.status = JobApplicationStatus.Rejected;\n    }\n\n    function getCreatedJobsForProfile(address profile) public view returns(JobOffer[] memory) {\n        return profileToJobsMapping[profile];\n    }\n\n    function getApplicationsForProfile(address profile) public view returns(JobApplication[] memory) {\n        return profileToApplicationsMapping[profile];\n    }\n\n    function getAllJobsCreated() public view returns(JobOffer[] memory) {\n        return jobOffers;\n    }\n\n    function getJob(uint id) public view returns(JobOffer memory) {\n        require(id > 0 && id <= jobOffers.length, \"Invalid job ID\");\n        return jobOffers[id - 1];\n    }\n\n    function test() public pure returns(string memory) {\n        return \"hello\";\n    }\n\n    // getter methods\n\n    function getNumberOfCreatorProfiles() public view returns(uint) {\n        return numberOfCreatorProfiles;\n    }\n\n    function getNumberOfApplicantProfiles() public view returns(uint) {\n        return numberOfApplicantProfiles;\n    }\n\n    function getnumberOfJobsCreated() public view returns(uint) {\n        return jobOffers.length;\n    }\n\n    function getNumberOfApplications() public view returns(uint) {\n        return jobApplications.length;\n    }\n}",
  "sourcePath": "/Users/ikennaemeruche/Documents/soljobs-client/truffle/contracts/SolJobs.sol",
  "compiler": {
    "name": "solc",
    "version": "0.8.19+commit.7dd6d404.Emscripten.clang"
  },
  "schemaVersion": "3.4.9",
  "updatedAt": "2023-08-17T07:47:23.619Z",
  "networkType": "ethereum",
  "devdoc": {
    "details": "Create, apply and award remote jobs on the blockchain",
    "kind": "dev",
    "methods": {},
    "title": "SolJobs",
    "version": 1
  },
  "userdoc": {
    "kind": "user",
    "methods": {},
    "version": 1
  }
}