{
  "contractName": "SolJobs",
  "abi": [
    {
      "inputs": [],
      "stateMutability": "nonpayable",
      "type": "constructor"
    },
    {
      "anonymous": false,
      "inputs": [
        {
          "indexed": false,
          "internalType": "uint256",
          "name": "newApplicantID",
          "type": "uint256"
        }
      ],
      "name": "ApplicantProfileCreated",
      "type": "event"
    },
    {
      "anonymous": false,
      "inputs": [
        {
          "indexed": false,
          "internalType": "uint256",
          "name": "applicationID",
          "type": "uint256"
        }
      ],
      "name": "ApplicationSubmitted",
      "type": "event"
    },
    {
      "anonymous": false,
      "inputs": [
        {
          "indexed": false,
          "internalType": "uint256",
          "name": "newCreatorID",
          "type": "uint256"
        }
      ],
      "name": "CreatorProfileCreated",
      "type": "event"
    },
    {
      "anonymous": false,
      "inputs": [
        {
          "indexed": false,
          "internalType": "uint256",
          "name": "newJobID",
          "type": "uint256"
        }
      ],
      "name": "JobCreated",
      "type": "event"
    },
    {
      "inputs": [
        {
          "internalType": "address",
          "name": "",
          "type": "address"
        }
      ],
      "name": "applicantProfiles",
      "outputs": [
        {
          "internalType": "uint256",
          "name": "id",
          "type": "uint256"
        },
        {
          "internalType": "address",
          "name": "applicantAddress",
          "type": "address"
        },
        {
          "internalType": "string",
          "name": "fullname",
          "type": "string"
        },
        {
          "internalType": "string",
          "name": "email",
          "type": "string"
        },
        {
          "internalType": "string",
          "name": "location",
          "type": "string"
        },
        {
          "internalType": "string",
          "name": "bio",
          "type": "string"
        },
        {
          "internalType": "enum ProfileType",
          "name": "profileType",
          "type": "uint8"
        }
      ],
      "stateMutability": "view",
      "type": "function",
      "constant": true
    },
    {
      "inputs": [
        {
          "internalType": "address",
          "name": "",
          "type": "address"
        }
      ],
      "name": "creatorProfiles",
      "outputs": [
        {
          "internalType": "uint256",
          "name": "id",
          "type": "uint256"
        },
        {
          "internalType": "string",
          "name": "email",
          "type": "string"
        },
        {
          "internalType": "string",
          "name": "name",
          "type": "string"
        },
        {
          "internalType": "string",
          "name": "tagline",
          "type": "string"
        },
        {
          "internalType": "string",
          "name": "description",
          "type": "string"
        },
        {
          "internalType": "address",
          "name": "creatorAddress",
          "type": "address"
        },
        {
          "internalType": "bool",
          "name": "verified",
          "type": "bool"
        },
        {
          "internalType": "enum ProfileType",
          "name": "profileType",
          "type": "uint8"
        }
      ],
      "stateMutability": "view",
      "type": "function",
      "constant": true
    },
    {
      "inputs": [
        {
          "internalType": "uint256",
          "name": "",
          "type": "uint256"
        }
      ],
      "name": "jobApplications",
      "outputs": [
        {
          "internalType": "uint256",
          "name": "id",
          "type": "uint256"
        },
        {
          "internalType": "uint256",
          "name": "jobOfferId",
          "type": "uint256"
        },
        {
          "internalType": "string",
          "name": "coverLetter",
          "type": "string"
        },
        {
          "components": [
            {
              "internalType": "uint256",
              "name": "id",
              "type": "uint256"
            },
            {
              "internalType": "address",
              "name": "applicantAddress",
              "type": "address"
            },
            {
              "internalType": "string",
              "name": "fullname",
              "type": "string"
            },
            {
              "internalType": "string",
              "name": "email",
              "type": "string"
            },
            {
              "internalType": "string",
              "name": "location",
              "type": "string"
            },
            {
              "internalType": "string",
              "name": "bio",
              "type": "string"
            },
            {
              "internalType": "enum ProfileType",
              "name": "profileType",
              "type": "uint8"
            }
          ],
          "internalType": "struct ApplicantProfile",
          "name": "applicant",
          "type": "tuple"
        },
        {
          "internalType": "enum JobApplicationStatus",
          "name": "status",
          "type": "uint8"
        }
      ],
      "stateMutability": "view",
      "type": "function",
      "constant": true
    },
    {
      "inputs": [
        {
          "internalType": "uint256",
          "name": "",
          "type": "uint256"
        }
      ],
      "name": "jobOffers",
      "outputs": [
        {
          "internalType": "uint256",
          "name": "id",
          "type": "uint256"
        },
        {
          "internalType": "string",
          "name": "title",
          "type": "string"
        },
        {
          "internalType": "string",
          "name": "description",
          "type": "string"
        },
        {
          "internalType": "uint256",
          "name": "compensation",
          "type": "uint256"
        },
        {
          "components": [
            {
              "internalType": "uint256",
              "name": "id",
              "type": "uint256"
            },
            {
              "internalType": "string",
              "name": "email",
              "type": "string"
            },
            {
              "internalType": "string",
              "name": "name",
              "type": "string"
            },
            {
              "internalType": "string",
              "name": "tagline",
              "type": "string"
            },
            {
              "internalType": "string",
              "name": "description",
              "type": "string"
            },
            {
              "internalType": "address",
              "name": "creatorAddress",
              "type": "address"
            },
            {
              "internalType": "bool",
              "name": "verified",
              "type": "bool"
            },
            {
              "internalType": "enum ProfileType",
              "name": "profileType",
              "type": "uint8"
            }
          ],
          "internalType": "struct CreatorProfile",
          "name": "creator",
          "type": "tuple"
        },
        {
          "internalType": "enum JobOfferStatus",
          "name": "status",
          "type": "uint8"
        },
        {
          "internalType": "uint256",
          "name": "numberOfMaxHires",
          "type": "uint256"
        },
        {
          "internalType": "uint256",
          "name": "numberHired",
          "type": "uint256"
        }
      ],
      "stateMutability": "view",
      "type": "function",
      "constant": true
    },
    {
      "inputs": [
        {
          "internalType": "string",
          "name": "_name",
          "type": "string"
        },
        {
          "internalType": "string",
          "name": "_email",
          "type": "string"
        },
        {
          "internalType": "string",
          "name": "_description",
          "type": "string"
        },
        {
          "internalType": "string",
          "name": "_tagline",
          "type": "string"
        }
      ],
      "name": "createCreatorProfile",
      "outputs": [],
      "stateMutability": "nonpayable",
      "type": "function"
    },
    {
      "inputs": [
        {
          "internalType": "string",
          "name": "_fullname",
          "type": "string"
        },
        {
          "internalType": "string",
          "name": "_email",
          "type": "string"
        },
        {
          "internalType": "string",
          "name": "_location",
          "type": "string"
        },
        {
          "internalType": "string",
          "name": "_bio",
          "type": "string"
        }
      ],
      "name": "createApplicantProfile",
      "outputs": [],
      "stateMutability": "nonpayable",
      "type": "function"
    },
    {
      "inputs": [
        {
          "internalType": "address",
          "name": "_address",
          "type": "address"
        },
        {
          "internalType": "string",
          "name": "_name",
          "type": "string"
        },
        {
          "internalType": "string",
          "name": "_description",
          "type": "string"
        },
        {
          "internalType": "string",
          "name": "_tagline",
          "type": "string"
        }
      ],
      "name": "editCreatorProfile",
      "outputs": [],
      "stateMutability": "nonpayable",
      "type": "function"
    },
    {
      "inputs": [
        {
          "internalType": "string",
          "name": "title",
          "type": "string"
        },
        {
          "internalType": "string",
          "name": "description",
          "type": "string"
        },
        {
          "internalType": "uint256",
          "name": "compensation",
          "type": "uint256"
        },
        {
          "internalType": "uint256",
          "name": "numberOfMaxHires",
          "type": "uint256"
        }
      ],
      "name": "createJobOffer",
      "outputs": [],
      "stateMutability": "nonpayable",
      "type": "function"
    },
    {
      "inputs": [
        {
          "internalType": "uint256",
          "name": "jobID",
          "type": "uint256"
        },
        {
          "internalType": "string",
          "name": "coverLetter",
          "type": "string"
        }
      ],
      "name": "applyForJob",
      "outputs": [],
      "stateMutability": "nonpayable",
      "type": "function"
    },
    {
      "inputs": [
        {
          "internalType": "uint256",
          "name": "applicationID",
          "type": "uint256"
        }
      ],
      "name": "approveApplication",
      "outputs": [],
      "stateMutability": "nonpayable",
      "type": "function"
    },
    {
      "inputs": [
        {
          "internalType": "uint256",
          "name": "applicationID",
          "type": "uint256"
        }
      ],
      "name": "rejectApplication",
      "outputs": [],
      "stateMutability": "nonpayable",
      "type": "function"
    },
    {
      "inputs": [
        {
          "internalType": "address",
          "name": "profile",
          "type": "address"
        }
      ],
      "name": "getCreatedJobsForProfile",
      "outputs": [
        {
          "components": [
            {
              "internalType": "uint256",
              "name": "id",
              "type": "uint256"
            },
            {
              "internalType": "string",
              "name": "title",
              "type": "string"
            },
            {
              "internalType": "string",
              "name": "description",
              "type": "string"
            },
            {
              "internalType": "uint256",
              "name": "compensation",
              "type": "uint256"
            },
            {
              "components": [
                {
                  "internalType": "uint256",
                  "name": "id",
                  "type": "uint256"
                },
                {
                  "internalType": "string",
                  "name": "email",
                  "type": "string"
                },
                {
                  "internalType": "string",
                  "name": "name",
                  "type": "string"
                },
                {
                  "internalType": "string",
                  "name": "tagline",
                  "type": "string"
                },
                {
                  "internalType": "string",
                  "name": "description",
                  "type": "string"
                },
                {
                  "internalType": "address",
                  "name": "creatorAddress",
                  "type": "address"
                },
                {
                  "internalType": "bool",
                  "name": "verified",
                  "type": "bool"
                },
                {
                  "internalType": "enum ProfileType",
                  "name": "profileType",
                  "type": "uint8"
                }
              ],
              "internalType": "struct CreatorProfile",
              "name": "creator",
              "type": "tuple"
            },
            {
              "components": [
                {
                  "internalType": "uint256",
                  "name": "id",
                  "type": "uint256"
                },
                {
                  "internalType": "uint256",
                  "name": "jobOfferId",
                  "type": "uint256"
                },
                {
                  "internalType": "string",
                  "name": "coverLetter",
                  "type": "string"
                },
                {
                  "components": [
                    {
                      "internalType": "uint256",
                      "name": "id",
                      "type": "uint256"
                    },
                    {
                      "internalType": "address",
                      "name": "applicantAddress",
                      "type": "address"
                    },
                    {
                      "internalType": "string",
                      "name": "fullname",
                      "type": "string"
                    },
                    {
                      "internalType": "string",
                      "name": "email",
                      "type": "string"
                    },
                    {
                      "internalType": "string",
                      "name": "location",
                      "type": "string"
                    },
                    {
                      "internalType": "string",
                      "name": "bio",
                      "type": "string"
                    },
                    {
                      "internalType": "enum ProfileType",
                      "name": "profileType",
                      "type": "uint8"
                    }
                  ],
                  "internalType": "struct ApplicantProfile",
                  "name": "applicant",
                  "type": "tuple"
                },
                {
                  "internalType": "enum JobApplicationStatus",
                  "name": "status",
                  "type": "uint8"
                }
              ],
              "internalType": "struct JobApplication[]",
              "name": "applications",
              "type": "tuple[]"
            },
            {
              "internalType": "enum JobOfferStatus",
              "name": "status",
              "type": "uint8"
            },
            {
              "internalType": "uint256",
              "name": "numberOfMaxHires",
              "type": "uint256"
            },
            {
              "internalType": "uint256",
              "name": "numberHired",
              "type": "uint256"
            }
          ],
          "internalType": "struct JobOffer[]",
          "name": "",
          "type": "tuple[]"
        }
      ],
      "stateMutability": "view",
      "type": "function",
      "constant": true
    },
    {
      "inputs": [
        {
          "internalType": "address",
          "name": "profile",
          "type": "address"
        }
      ],
      "name": "getApplicationsForProfile",
      "outputs": [
        {
          "components": [
            {
              "internalType": "uint256",
              "name": "id",
              "type": "uint256"
            },
            {
              "internalType": "uint256",
              "name": "jobOfferId",
              "type": "uint256"
            },
            {
              "internalType": "string",
              "name": "coverLetter",
              "type": "string"
            },
            {
              "components": [
                {
                  "internalType": "uint256",
                  "name": "id",
                  "type": "uint256"
                },
                {
                  "internalType": "address",
                  "name": "applicantAddress",
                  "type": "address"
                },
                {
                  "internalType": "string",
                  "name": "fullname",
                  "type": "string"
                },
                {
                  "internalType": "string",
                  "name": "email",
                  "type": "string"
                },
                {
                  "internalType": "string",
                  "name": "location",
                  "type": "string"
                },
                {
                  "internalType": "string",
                  "name": "bio",
                  "type": "string"
                },
                {
                  "internalType": "enum ProfileType",
                  "name": "profileType",
                  "type": "uint8"
                }
              ],
              "internalType": "struct ApplicantProfile",
              "name": "applicant",
              "type": "tuple"
            },
            {
              "internalType": "enum JobApplicationStatus",
              "name": "status",
              "type": "uint8"
            }
          ],
          "internalType": "struct JobApplication[]",
          "name": "",
          "type": "tuple[]"
        }
      ],
      "stateMutability": "view",
      "type": "function",
      "constant": true
    },
    {
      "inputs": [],
      "name": "getAllJobsCreated",
      "outputs": [
        {
          "components": [
            {
              "internalType": "uint256",
              "name": "id",
              "type": "uint256"
            },
            {
              "internalType": "string",
              "name": "title",
              "type": "string"
            },
            {
              "internalType": "string",
              "name": "description",
              "type": "string"
            },
            {
              "internalType": "uint256",
              "name": "compensation",
              "type": "uint256"
            },
            {
              "components": [
                {
                  "internalType": "uint256",
                  "name": "id",
                  "type": "uint256"
                },
                {
                  "internalType": "string",
                  "name": "email",
                  "type": "string"
                },
                {
                  "internalType": "string",
                  "name": "name",
                  "type": "string"
                },
                {
                  "internalType": "string",
                  "name": "tagline",
                  "type": "string"
                },
                {
                  "internalType": "string",
                  "name": "description",
                  "type": "string"
                },
                {
                  "internalType": "address",
                  "name": "creatorAddress",
                  "type": "address"
                },
                {
                  "internalType": "bool",
                  "name": "verified",
                  "type": "bool"
                },
                {
                  "internalType": "enum ProfileType",
                  "name": "profileType",
                  "type": "uint8"
                }
              ],
              "internalType": "struct CreatorProfile",
              "name": "creator",
              "type": "tuple"
            },
            {
              "components": [
                {
                  "internalType": "uint256",
                  "name": "id",
                  "type": "uint256"
                },
                {
                  "internalType": "uint256",
                  "name": "jobOfferId",
                  "type": "uint256"
                },
                {
                  "internalType": "string",
                  "name": "coverLetter",
                  "type": "string"
                },
                {
                  "components": [
                    {
                      "internalType": "uint256",
                      "name": "id",
                      "type": "uint256"
                    },
                    {
                      "internalType": "address",
                      "name": "applicantAddress",
                      "type": "address"
                    },
                    {
                      "internalType": "string",
                      "name": "fullname",
                      "type": "string"
                    },
                    {
                      "internalType": "string",
                      "name": "email",
                      "type": "string"
                    },
                    {
                      "internalType": "string",
                      "name": "location",
                      "type": "string"
                    },
                    {
                      "internalType": "string",
                      "name": "bio",
                      "type": "string"
                    },
                    {
                      "internalType": "enum ProfileType",
                      "name": "profileType",
                      "type": "uint8"
                    }
                  ],
                  "internalType": "struct ApplicantProfile",
                  "name": "applicant",
                  "type": "tuple"
                },
                {
                  "internalType": "enum JobApplicationStatus",
                  "name": "status",
                  "type": "uint8"
                }
              ],
              "internalType": "struct JobApplication[]",
              "name": "applications",
              "type": "tuple[]"
            },
            {
              "internalType": "enum JobOfferStatus",
              "name": "status",
              "type": "uint8"
            },
            {
              "internalType": "uint256",
              "name": "numberOfMaxHires",
              "type": "uint256"
            },
            {
              "internalType": "uint256",
              "name": "numberHired",
              "type": "uint256"
            }
          ],
          "internalType": "struct JobOffer[]",
          "name": "",
          "type": "tuple[]"
        }
      ],
      "stateMutability": "view",
      "type": "function",
      "constant": true
    },
    {
      "inputs": [
        {
          "internalType": "uint256",
          "name": "jobId",
          "type": "uint256"
        }
      ],
      "name": "getApplicationsForJob",
      "outputs": [
        {
          "components": [
            {
              "internalType": "uint256",
              "name": "id",
              "type": "uint256"
            },
            {
              "internalType": "uint256",
              "name": "jobOfferId",
              "type": "uint256"
            },
            {
              "internalType": "string",
              "name": "coverLetter",
              "type": "string"
            },
            {
              "components": [
                {
                  "internalType": "uint256",
                  "name": "id",
                  "type": "uint256"
                },
                {
                  "internalType": "address",
                  "name": "applicantAddress",
                  "type": "address"
                },
                {
                  "internalType": "string",
                  "name": "fullname",
                  "type": "string"
                },
                {
                  "internalType": "string",
                  "name": "email",
                  "type": "string"
                },
                {
                  "internalType": "string",
                  "name": "location",
                  "type": "string"
                },
                {
                  "internalType": "string",
                  "name": "bio",
                  "type": "string"
                },
                {
                  "internalType": "enum ProfileType",
                  "name": "profileType",
                  "type": "uint8"
                }
              ],
              "internalType": "struct ApplicantProfile",
              "name": "applicant",
              "type": "tuple"
            },
            {
              "internalType": "enum JobApplicationStatus",
              "name": "status",
              "type": "uint8"
            }
          ],
          "internalType": "struct JobApplication[]",
          "name": "",
          "type": "tuple[]"
        }
      ],
      "stateMutability": "view",
      "type": "function",
      "constant": true
    }
  ],
  "bytecode": "0x608060405234801561001057600080fd5b50600080546001600160a01b03191633179055614af4806100326000396000f3fe608060405234801561001057600080fd5b50600436106100f55760003560e01c806387e6446f11610097578063a7f718a011610066578063a7f718a01461021d578063c573433514610230578063c5e83e9714610243578063e06f74841461025657600080fd5b806387e6446f146101a85780638f670394146101bb57806392b2a791146101d057806395b04be2146101f657600080fd5b80632ae4bc55116100d35780632ae4bc551461014b5780634d91e57d1461015e578063699687cf146101715780636c09a5e31461019557600080fd5b8063193f394f146100fa5780631951d0af14610123578063213fbf1b14610138575b600080fd5b61010d610108366004613dd8565b61027d565b60405161011a9190613f15565b60405180910390f35b61013661013136600461400d565b610691565b005b6101366101463660046140b8565b610749565b6101366101593660046140d1565b610954565b61010d61016c3660046140b8565b610b80565b61018461017f3660046140b8565b610fa1565b60405161011a959493929190614195565b6101366101a33660046141e2565b611313565b6101366101b63660046140d1565b61182a565b6101c3611a53565b60405161011a919061438d565b6101e36101de366004613dd8565b6122f1565b60405161011a9796959493929190614479565b610209610204366004613dd8565b61255a565b60405161011a9897969594939291906144f9565b61013661022b366004614584565b6127cd565b6101c361023e366004613dd8565b612e22565b6101366102513660046140b8565b6136cb565b6102696102643660046140b8565b613761565b60405161011a989796959493929190614602565b6001600160a01b0381166000908152600c60209081526040808320805482518185028101850190935280835260609492939192909184015b8282101561068657838290600052602060002090600b02016040518060a001604052908160008201548152602001600182015481526020016002820180546102fc90614675565b80601f016020809104026020016040519081016040528092919081815260200182805461032890614675565b80156103755780601f1061034a57610100808354040283529160200191610375565b820191906000526020600020905b81548152906001019060200180831161035857829003601f168201915b50505050508152602001600382016040518060e0016040529081600082015481526020016001820160009054906101000a90046001600160a01b03166001600160a01b03166001600160a01b031681526020016002820180546103d790614675565b80601f016020809104026020016040519081016040528092919081815260200182805461040390614675565b80156104505780601f1061042557610100808354040283529160200191610450565b820191906000526020600020905b81548152906001019060200180831161043357829003601f168201915b5050505050815260200160038201805461046990614675565b80601f016020809104026020016040519081016040528092919081815260200182805461049590614675565b80156104e25780601f106104b7576101008083540402835291602001916104e2565b820191906000526020600020905b8154815290600101906020018083116104c557829003601f168201915b505050505081526020016004820180546104fb90614675565b80601f016020809104026020016040519081016040528092919081815260200182805461052790614675565b80156105745780601f1061054957610100808354040283529160200191610574565b820191906000526020600020905b81548152906001019060200180831161055757829003601f168201915b5050505050815260200160058201805461058d90614675565b80601f01602080910402602001604051908101604052809291908181526020018280546105b990614675565b80156106065780601f106105db57610100808354040283529160200191610606565b820191906000526020600020905b8154815290600101906020018083116105e957829003601f168201915b5050509183525050600682015460209091019060ff16600181111561062d5761062d613e40565b600181111561063e5761063e613e40565b9052508152600a82015460209091019060ff16600281111561066257610662613e40565b600281111561067357610673613e40565b81525050815260200190600101906102b5565b505050509050919050565b6001600160a01b03871660009081526007602052604090205460ff166106f75760405162461bcd60e51b8152602060048201526016602482015275141c9bd99a5b1948191bd95cc81b9bdd08195e1a5cdd60521b60448201526064015b60405180910390fd5b6001600160a01b03871660009081526001602052604090206002810161071e878983614729565b506004810161072e858783614729565b506003810161073e838583614729565b505050505050505050565b3260008181526007602090815260409182902054825160608101909352602a80845260ff90911615156001149291614a02908301399061079c5760405162461bcd60e51b81526004016106ee91906147e4565b506000600a6107ac60018561480d565b815481106107bc576107bc614826565b90600052602060002090600b0201905060006009600183600101546107e1919061480d565b815481106107f1576107f1614826565b90600052602060002090600e0201905080600c015481600d015410604051806060016040528060358152602001614a8a60359139906108435760405162461bcd60e51b81526004016106ee91906147e4565b506000600b82015460ff16600281111561085f5761085f613e40565b14604051806060016040528060318152602001614a5960319139906108975760405162461bcd60e51b81526004016106ee91906147e4565b506000600a83015460ff1660028111156108b3576108b3613e40565b146040518060400160405280601b81526020017f546865206170706c69636174696f6e206973206e6f74206f70656e0000000000815250906109085760405162461bcd60e51b81526004016106ee91906147e4565b50600a8201805460ff19166001179055600d8101805490600061092a8361483c565b919050555080600c015481600d01540361094e57600b8101805460ff191660011790555b50505050565b858560058282604051610968929190614855565b9081526040519081900360200190205460ff161580156109aa575060068282604051610995929190614855565b9081526040519081900360200190205460ff16155b60405180604001604052806015815260200174456d61696c20616c7265616479206578697374732160581b815250906109f65760405162461bcd60e51b81526004016106ee91906147e4565b503260009081526007602052604090205460ff16158015610a2757503260009081526008602052604090205460ff16155b604051806040016040528060178152602001764164647265737320616c7265616479206578697374732160481b81525090610a755760405162461bcd60e51b81526004016106ee91906147e4565b506000600360008154610a879061483c565b918290555032600090815260016020526040902081815590915060028101610ab08c8e83614729565b5060018101610ac08a8c83614729565b5060048101610ad0888a83614729565b5060038101610ae0868883614729565b50600160058b8b604051610af5929190614855565b908152604080519182900360209081018320805494151560ff19958616179055326000818152600783529290922080549094166001179093556005840180546001600160b01b03191690911790558381527fd1a7c154123ed5a80a1f9c4596757daf4b73c53e8bc15299d58a4be0ca50581491015b60405180910390a1505050505050505050505050565b60606009610b8f60018461480d565b81548110610b9f57610b9f614826565b90600052602060002090600e0201600a01805480602002602001604051908101604052809291908181526020016000905b8282101561068657838290600052602060002090600b02016040518060a00160405290816000820154815260200160018201548152602001600282018054610c1790614675565b80601f0160208091040260200160405190810160405280929190818152602001828054610c4390614675565b8015610c905780601f10610c6557610100808354040283529160200191610c90565b820191906000526020600020905b815481529060010190602001808311610c7357829003601f168201915b50505050508152602001600382016040518060e0016040529081600082015481526020016001820160009054906101000a90046001600160a01b03166001600160a01b03166001600160a01b03168152602001600282018054610cf290614675565b80601f0160208091040260200160405190810160405280929190818152602001828054610d1e90614675565b8015610d6b5780601f10610d4057610100808354040283529160200191610d6b565b820191906000526020600020905b815481529060010190602001808311610d4e57829003601f168201915b50505050508152602001600382018054610d8490614675565b80601f0160208091040260200160405190810160405280929190818152602001828054610db090614675565b8015610dfd5780601f10610dd257610100808354040283529160200191610dfd565b820191906000526020600020905b815481529060010190602001808311610de057829003601f168201915b50505050508152602001600482018054610e1690614675565b80601f0160208091040260200160405190810160405280929190818152602001828054610e4290614675565b8015610e8f5780601f10610e6457610100808354040283529160200191610e8f565b820191906000526020600020905b815481529060010190602001808311610e7257829003601f168201915b50505050508152602001600582018054610ea890614675565b80601f0160208091040260200160405190810160405280929190818152602001828054610ed490614675565b8015610f215780601f10610ef657610100808354040283529160200191610f21565b820191906000526020600020905b815481529060010190602001808311610f0457829003601f168201915b5050509183525050600682015460209091019060ff166001811115610f4857610f48613e40565b6001811115610f5957610f59613e40565b9052508152600a82015460209091019060ff166002811115610f7d57610f7d613e40565b6002811115610f8e57610f8e613e40565b8152505081526020019060010190610bd0565b600a8181548110610fb157600080fd5b90600052602060002090600b0201600091509050806000015490806001015490806002018054610fe090614675565b80601f016020809104026020016040519081016040528092919081815260200182805461100c90614675565b80156110595780601f1061102e57610100808354040283529160200191611059565b820191906000526020600020905b81548152906001019060200180831161103c57829003601f168201915b50506040805160e081018252600387018054825260048801546001600160a01b03166020830152600588018054979897929650909450918501925061109d90614675565b80601f01602080910402602001604051908101604052809291908181526020018280546110c990614675565b80156111165780601f106110eb57610100808354040283529160200191611116565b820191906000526020600020905b8154815290600101906020018083116110f957829003601f168201915b5050505050815260200160038201805461112f90614675565b80601f016020809104026020016040519081016040528092919081815260200182805461115b90614675565b80156111a85780601f1061117d576101008083540402835291602001916111a8565b820191906000526020600020905b81548152906001019060200180831161118b57829003601f168201915b505050505081526020016004820180546111c190614675565b80601f01602080910402602001604051908101604052809291908181526020018280546111ed90614675565b801561123a5780601f1061120f5761010080835404028352916020019161123a565b820191906000526020600020905b81548152906001019060200180831161121d57829003601f168201915b5050505050815260200160058201805461125390614675565b80601f016020809104026020016040519081016040528092919081815260200182805461127f90614675565b80156112cc5780601f106112a1576101008083540402835291602001916112cc565b820191906000526020600020905b8154815290600101906020018083116112af57829003601f168201915b5050509183525050600682015460209091019060ff1660018111156112f3576112f3613e40565b600181111561130457611304613e40565b905250600a9091015460ff1685565b3260008181526008602090815260409182902054825160608101909352602d80845260ff90911615156001149291614a2c90830139906113665760405162461bcd60e51b81526004016106ee91906147e4565b5060008411801561137957506009548411155b6113b65760405162461bcd60e51b815260206004820152600e60248201526d125b9d985b1a59081a9bd888125160921b60448201526064016106ee565b600a546000906113c7906001614865565b9050600060096113d860018861480d565b815481106113e8576113e8614826565b600091825260208220600e909102019150600b82015460ff16600281111561141257611412613e40565b14604051806060016040528060318152602001614a59603191399061144a5760405162461bcd60e51b81526004016106ee91906147e4565b50600a8054600181018255600091909152600b027fc65a7bb8d6351c1cf70c95a316cc6a92839c986682d98bc35f958f4883f9d2a881018381557fc65a7bb8d6351c1cf70c95a316cc6a92839c986682d98bc35f958f4883f9d2a98201889055907fc65a7bb8d6351c1cf70c95a316cc6a92839c986682d98bc35f958f4883f9d2aa016114d8868883614729565b5032600090815260026020819052604090912080546003840190815560018201546004850180546001600160a01b0319166001600160a01b03929092169190911790559091600584019061152e90840182614878565b5060038181019061154190840182614878565b5060048181019061155490840182614878565b5060058181019061156790840182614878565b50600682810154908201805460ff9092169160ff19166001838181111561159057611590613e40565b02179055505050600a818101805460ff191690558201805460018181018355600092835260209092208354600b90920201908155818301549181019190915581906002808201906115e390840182614878565b506003828101805491830191825560048085015490840180546001600160a01b0319166001600160a01b039092169190911790559060058084019061162a90860182614878565b5060038181019061163d90840182614878565b5060048181019061165090840182614878565b5060058181019061166390840182614878565b50600682810154908201805460ff9092169160ff19166001838181111561168c5761168c613e40565b02179055505050600a82810154908201805460ff9092169160ff191660018360028111156116bc576116bc613e40565b021790555050326000908152600c602090815260408220805460018181018355918452919092208454600b90920201908155818401549181019190915582915060028082019061170e90840182614878565b506003828101805491830191825560048085015490840180546001600160a01b0319166001600160a01b039092169190911790559060058084019061175590860182614878565b5060038181019061176890840182614878565b5060048181019061177b90840182614878565b5060058181019061178e90840182614878565b50600682810154908201805460ff9092169160ff1916600183818111156117b7576117b7613e40565b02179055505050600a82810154908201805460ff9092169160ff191660018360028111156117e7576117e7613e40565b0217905550506040518481527f4b6126472f7a5c1a21fe858797a6bb6ed361c62b74d480965163d30d68576d4f915060200160405180910390a150505050505050565b85856005828260405161183e929190614855565b9081526040519081900360200190205460ff1615801561188057506006828260405161186b929190614855565b9081526040519081900360200190205460ff16155b60405180604001604052806015815260200174456d61696c20616c7265616479206578697374732160581b815250906118cc5760405162461bcd60e51b81526004016106ee91906147e4565b503260009081526007602052604090205460ff161580156118fd57503260009081526008602052604090205460ff16155b604051806040016040528060178152602001764164647265737320616c7265616479206578697374732160481b8152509061194b5760405162461bcd60e51b81526004016106ee91906147e4565b50600060046000815461195d9061483c565b918290555032600090815260026020819052604090912082815591925081016119878c8e83614729565b50600381016119978a8c83614729565b50600481016119a7888a83614729565b50600581016119b7868883614729565b50600160068b8b6040516119cc929190614855565b908152604080519182900360209081018320805494151560ff199586161790553260008181526008835292909220805485166001908117909155600686018054909516811790945592840180546001600160a01b03191690911790558381527f7a7674d49ab4ac57338891a3e15ebdbe5e6abbb1637fc6c5cfa506e2fa360ad09101610b6a565b60606009805480602002602001604051908101604052809291908181526020016000905b828210156122e857838290600052602060002090600e02016040518061012001604052908160008201548152602001600182018054611ab590614675565b80601f0160208091040260200160405190810160405280929190818152602001828054611ae190614675565b8015611b2e5780601f10611b0357610100808354040283529160200191611b2e565b820191906000526020600020905b815481529060010190602001808311611b1157829003601f168201915b50505050508152602001600282018054611b4790614675565b80601f0160208091040260200160405190810160405280929190818152602001828054611b7390614675565b8015611bc05780601f10611b9557610100808354040283529160200191611bc0565b820191906000526020600020905b815481529060010190602001808311611ba357829003601f168201915b5050505050815260200160038201548152602001600482016040518061010001604052908160008201548152602001600182018054611bfe90614675565b80601f0160208091040260200160405190810160405280929190818152602001828054611c2a90614675565b8015611c775780601f10611c4c57610100808354040283529160200191611c77565b820191906000526020600020905b815481529060010190602001808311611c5a57829003601f168201915b50505050508152602001600282018054611c9090614675565b80601f0160208091040260200160405190810160405280929190818152602001828054611cbc90614675565b8015611d095780601f10611cde57610100808354040283529160200191611d09565b820191906000526020600020905b815481529060010190602001808311611cec57829003601f168201915b50505050508152602001600382018054611d2290614675565b80601f0160208091040260200160405190810160405280929190818152602001828054611d4e90614675565b8015611d9b5780601f10611d7057610100808354040283529160200191611d9b565b820191906000526020600020905b815481529060010190602001808311611d7e57829003601f168201915b50505050508152602001600482018054611db490614675565b80601f0160208091040260200160405190810160405280929190818152602001828054611de090614675565b8015611e2d5780601f10611e0257610100808354040283529160200191611e2d565b820191906000526020600020905b815481529060010190602001808311611e1057829003601f168201915b505050918352505060058201546001600160a01b038116602083015260ff600160a01b8204811615156040840152606090920191600160a81b909104166001811115611e7b57611e7b613e40565b6001811115611e8c57611e8c613e40565b815250508152602001600a8201805480602002602001604051908101604052809291908181526020016000905b8282101561228a57838290600052602060002090600b02016040518060a00160405290816000820154815260200160018201548152602001600282018054611f0090614675565b80601f0160208091040260200160405190810160405280929190818152602001828054611f2c90614675565b8015611f795780601f10611f4e57610100808354040283529160200191611f79565b820191906000526020600020905b815481529060010190602001808311611f5c57829003601f168201915b50505050508152602001600382016040518060e0016040529081600082015481526020016001820160009054906101000a90046001600160a01b03166001600160a01b03166001600160a01b03168152602001600282018054611fdb90614675565b80601f016020809104026020016040519081016040528092919081815260200182805461200790614675565b80156120545780601f1061202957610100808354040283529160200191612054565b820191906000526020600020905b81548152906001019060200180831161203757829003601f168201915b5050505050815260200160038201805461206d90614675565b80601f016020809104026020016040519081016040528092919081815260200182805461209990614675565b80156120e65780601f106120bb576101008083540402835291602001916120e6565b820191906000526020600020905b8154815290600101906020018083116120c957829003601f168201915b505050505081526020016004820180546120ff90614675565b80601f016020809104026020016040519081016040528092919081815260200182805461212b90614675565b80156121785780601f1061214d57610100808354040283529160200191612178565b820191906000526020600020905b81548152906001019060200180831161215b57829003601f168201915b5050505050815260200160058201805461219190614675565b80601f01602080910402602001604051908101604052809291908181526020018280546121bd90614675565b801561220a5780601f106121df5761010080835404028352916020019161220a565b820191906000526020600020905b8154815290600101906020018083116121ed57829003601f168201915b5050509183525050600682015460209091019060ff16600181111561223157612231613e40565b600181111561224257612242613e40565b9052508152600a82015460209091019060ff16600281111561226657612266613e40565b600281111561227757612277613e40565b8152505081526020019060010190611eb9565b50505090825250600b82015460209091019060ff1660028111156122b0576122b0613e40565b60028111156122c1576122c1613e40565b8152602001600c8201548152602001600d8201548152505081526020019060010190611a77565b50505050905090565b600260208190526000918252604090912080546001820154928201805491936001600160a01b0316929161232490614675565b80601f016020809104026020016040519081016040528092919081815260200182805461235090614675565b801561239d5780601f106123725761010080835404028352916020019161239d565b820191906000526020600020905b81548152906001019060200180831161238057829003601f168201915b5050505050908060030180546123b290614675565b80601f01602080910402602001604051908101604052809291908181526020018280546123de90614675565b801561242b5780601f106124005761010080835404028352916020019161242b565b820191906000526020600020905b81548152906001019060200180831161240e57829003601f168201915b50505050509080600401805461244090614675565b80601f016020809104026020016040519081016040528092919081815260200182805461246c90614675565b80156124b95780601f1061248e576101008083540402835291602001916124b9565b820191906000526020600020905b81548152906001019060200180831161249c57829003601f168201915b5050505050908060050180546124ce90614675565b80601f01602080910402602001604051908101604052809291908181526020018280546124fa90614675565b80156125475780601f1061251c57610100808354040283529160200191612547565b820191906000526020600020905b81548152906001019060200180831161252a57829003601f168201915b5050506006909301549192505060ff1687565b60016020819052600091825260409091208054918101805461257b90614675565b80601f01602080910402602001604051908101604052809291908181526020018280546125a790614675565b80156125f45780601f106125c9576101008083540402835291602001916125f4565b820191906000526020600020905b8154815290600101906020018083116125d757829003601f168201915b50505050509080600201805461260990614675565b80601f016020809104026020016040519081016040528092919081815260200182805461263590614675565b80156126825780601f1061265757610100808354040283529160200191612682565b820191906000526020600020905b81548152906001019060200180831161266557829003601f168201915b50505050509080600301805461269790614675565b80601f01602080910402602001604051908101604052809291908181526020018280546126c390614675565b80156127105780601f106126e557610100808354040283529160200191612710565b820191906000526020600020905b8154815290600101906020018083116126f357829003601f168201915b50505050509080600401805461272590614675565b80601f016020809104026020016040519081016040528092919081815260200182805461275190614675565b801561279e5780601f106127735761010080835404028352916020019161279e565b820191906000526020600020905b81548152906001019060200180831161278157829003601f168201915b505050600590930154919250506001600160a01b0381169060ff600160a01b8204811691600160a81b90041688565b3260008181526007602090815260409182902054825160608101909352602a80845260ff90911615156001149291614a0290830139906128205760405162461bcd60e51b81526004016106ee91906147e4565b50600954600090612832906001614865565b60098054600181018255600091909152600e027f6e1540171b6c0c960b71a7020d9f60077f6af931a8bbf590da0223dacf75c7af81018281559192507f6e1540171b6c0c960b71a7020d9f60077f6af931a8bbf590da0223dacf75c7b00161289b898b83614729565b50600281016128ab878983614729565b5060038101859055600c8101849055326000908152600160208181526040808420815161010081019092528054825292830180549193928401916128ee90614675565b80601f016020809104026020016040519081016040528092919081815260200182805461291a90614675565b80156129675780601f1061293c57610100808354040283529160200191612967565b820191906000526020600020905b81548152906001019060200180831161294a57829003601f168201915b5050505050815260200160028201805461298090614675565b80601f01602080910402602001604051908101604052809291908181526020018280546129ac90614675565b80156129f95780601f106129ce576101008083540402835291602001916129f9565b820191906000526020600020905b8154815290600101906020018083116129dc57829003601f168201915b50505050508152602001600382018054612a1290614675565b80601f0160208091040260200160405190810160405280929190818152602001828054612a3e90614675565b8015612a8b5780601f10612a6057610100808354040283529160200191612a8b565b820191906000526020600020905b815481529060010190602001808311612a6e57829003601f168201915b50505050508152602001600482018054612aa490614675565b80601f0160208091040260200160405190810160405280929190818152602001828054612ad090614675565b8015612b1d5780601f10612af257610100808354040283529160200191612b1d565b820191906000526020600020905b815481529060010190602001808311612b0057829003601f168201915b505050918352505060058201546001600160a01b038116602083015260ff600160a01b8204811615156040840152606090920191600160a81b909104166001811115612b6b57612b6b613e40565b6001811115612b7c57612b7c613e40565b905250805160048401908155602082015191925082916005850190612ba1908261494f565b5060408201516002820190612bb6908261494f565b5060608201516003820190612bcb908261494f565b5060808201516004820190612be0908261494f565b5060a082015160058201805460c08501511515600160a01b026001600160a81b03199091166001600160a01b03909316929092179190911780825560e0840151919060ff60a81b1916600160a81b836001811115612c4057612c40613e40565b02179055505050600b828101805460ff191690556000600d8401819055328152602091825260408120805460018181018355918352929091208454600e9093020191825583919081810190612c9790840182614878565b50600281810190612caa90840182614878565b50600382810154908201556004808301805491830191825590600580840190612cd590860182614878565b50600281810190612ce890840182614878565b50600381810190612cfb90840182614878565b50600481810190612d0e90840182614878565b506005828101805491830180546001600160a01b039093166001600160a01b031984168117825582546001600160a81b031990941617600160a01b9384900460ff9081161515909402178082559154600160a81b9081900490931692909160ff60a81b191690836001811115612d8657612d86613e40565b02179055505050600a8281018054612da19284019190613b7f565b50600b82810154908201805460ff9092169160ff19166001836002811115612dcb57612dcb613e40565b0217905550600c8281015490820155600d918201549101556040518381527f92447c6ecd808d390fb352da0dc90a05275b074c43bf302132a27fabafa6872b9060200160405180910390a150505050505050505050565b6001600160a01b0381166000908152600b60209081526040808320805482518185028101850190935280835260609492939192909184015b8282101561068657838290600052602060002090600e02016040518061012001604052908160008201548152602001600182018054612e9890614675565b80601f0160208091040260200160405190810160405280929190818152602001828054612ec490614675565b8015612f115780601f10612ee657610100808354040283529160200191612f11565b820191906000526020600020905b815481529060010190602001808311612ef457829003601f168201915b50505050508152602001600282018054612f2a90614675565b80601f0160208091040260200160405190810160405280929190818152602001828054612f5690614675565b8015612fa35780601f10612f7857610100808354040283529160200191612fa3565b820191906000526020600020905b815481529060010190602001808311612f8657829003601f168201915b5050505050815260200160038201548152602001600482016040518061010001604052908160008201548152602001600182018054612fe190614675565b80601f016020809104026020016040519081016040528092919081815260200182805461300d90614675565b801561305a5780601f1061302f5761010080835404028352916020019161305a565b820191906000526020600020905b81548152906001019060200180831161303d57829003601f168201915b5050505050815260200160028201805461307390614675565b80601f016020809104026020016040519081016040528092919081815260200182805461309f90614675565b80156130ec5780601f106130c1576101008083540402835291602001916130ec565b820191906000526020600020905b8154815290600101906020018083116130cf57829003601f168201915b5050505050815260200160038201805461310590614675565b80601f016020809104026020016040519081016040528092919081815260200182805461313190614675565b801561317e5780601f106131535761010080835404028352916020019161317e565b820191906000526020600020905b81548152906001019060200180831161316157829003601f168201915b5050505050815260200160048201805461319790614675565b80601f01602080910402602001604051908101604052809291908181526020018280546131c390614675565b80156132105780601f106131e557610100808354040283529160200191613210565b820191906000526020600020905b8154815290600101906020018083116131f357829003601f168201915b505050918352505060058201546001600160a01b038116602083015260ff600160a01b8204811615156040840152606090920191600160a81b90910416600181111561325e5761325e613e40565b600181111561326f5761326f613e40565b815250508152602001600a8201805480602002602001604051908101604052809291908181526020016000905b8282101561366d57838290600052602060002090600b02016040518060a001604052908160008201548152602001600182015481526020016002820180546132e390614675565b80601f016020809104026020016040519081016040528092919081815260200182805461330f90614675565b801561335c5780601f106133315761010080835404028352916020019161335c565b820191906000526020600020905b81548152906001019060200180831161333f57829003601f168201915b50505050508152602001600382016040518060e0016040529081600082015481526020016001820160009054906101000a90046001600160a01b03166001600160a01b03166001600160a01b031681526020016002820180546133be90614675565b80601f01602080910402602001604051908101604052809291908181526020018280546133ea90614675565b80156134375780601f1061340c57610100808354040283529160200191613437565b820191906000526020600020905b81548152906001019060200180831161341a57829003601f168201915b5050505050815260200160038201805461345090614675565b80601f016020809104026020016040519081016040528092919081815260200182805461347c90614675565b80156134c95780601f1061349e576101008083540402835291602001916134c9565b820191906000526020600020905b8154815290600101906020018083116134ac57829003601f168201915b505050505081526020016004820180546134e290614675565b80601f016020809104026020016040519081016040528092919081815260200182805461350e90614675565b801561355b5780601f106135305761010080835404028352916020019161355b565b820191906000526020600020905b81548152906001019060200180831161353e57829003601f168201915b5050505050815260200160058201805461357490614675565b80601f01602080910402602001604051908101604052809291908181526020018280546135a090614675565b80156135ed5780601f106135c2576101008083540402835291602001916135ed565b820191906000526020600020905b8154815290600101906020018083116135d057829003601f168201915b5050509183525050600682015460209091019060ff16600181111561361457613614613e40565b600181111561362557613625613e40565b9052508152600a82015460209091019060ff16600281111561364957613649613e40565b600281111561365a5761365a613e40565b815250508152602001906001019061329c565b50505090825250600b82015460209091019060ff16600281111561369357613693613e40565b60028111156136a4576136a4613e40565b8152602001600c8201548152602001600d8201548152505081526020019060010190612e5a565b3260008181526007602090815260409182902054825160608101909352602a80845260ff90911615156001149291614a02908301399061371e5760405162461bcd60e51b81526004016106ee91906147e4565b506000600a61372e60018561480d565b8154811061373e5761373e614826565b60009182526020909120600a600b9092020101805460ff19166002179055505050565b6009818154811061377157600080fd5b60009182526020909120600e9091020180546001820180549193509061379690614675565b80601f01602080910402602001604051908101604052809291908181526020018280546137c290614675565b801561380f5780601f106137e45761010080835404028352916020019161380f565b820191906000526020600020905b8154815290600101906020018083116137f257829003601f168201915b50505050509080600201805461382490614675565b80601f016020809104026020016040519081016040528092919081815260200182805461385090614675565b801561389d5780601f106138725761010080835404028352916020019161389d565b820191906000526020600020905b81548152906001019060200180831161388057829003601f168201915b5050505050908060030154908060040160405180610100016040529081600082015481526020016001820180546138d390614675565b80601f01602080910402602001604051908101604052809291908181526020018280546138ff90614675565b801561394c5780601f106139215761010080835404028352916020019161394c565b820191906000526020600020905b81548152906001019060200180831161392f57829003601f168201915b5050505050815260200160028201805461396590614675565b80601f016020809104026020016040519081016040528092919081815260200182805461399190614675565b80156139de5780601f106139b3576101008083540402835291602001916139de565b820191906000526020600020905b8154815290600101906020018083116139c157829003601f168201915b505050505081526020016003820180546139f790614675565b80601f0160208091040260200160405190810160405280929190818152602001828054613a2390614675565b8015613a705780601f10613a4557610100808354040283529160200191613a70565b820191906000526020600020905b815481529060010190602001808311613a5357829003601f168201915b50505050508152602001600482018054613a8990614675565b80601f0160208091040260200160405190810160405280929190818152602001828054613ab590614675565b8015613b025780601f10613ad757610100808354040283529160200191613b02565b820191906000526020600020905b815481529060010190602001808311613ae557829003601f168201915b505050918352505060058201546001600160a01b038116602083015260ff600160a01b8204811615156040840152606090920191600160a81b909104166001811115613b5057613b50613e40565b6001811115613b6157613b61613e40565b905250600b820154600c830154600d90930154919260ff9091169188565b82805482825590600052602060002090600b028101928215613cc357600052602060002091600b0282015b82811115613cc35782548255600180840154908301558282600280820190613bd490840182614878565b506003828101805491830191825560048085015490840180546001600160a01b0319166001600160a01b0390921691909117905590600580840190613c1b90860182614878565b50600381810190613c2e90840182614878565b50600481810190613c4190840182614878565b50600581810190613c5490840182614878565b50600682810154908201805460ff9092169160ff191660018381811115613c7d57613c7d613e40565b02179055505050600a82810154908201805460ff9092169160ff19166001836002811115613cad57613cad613e40565b0217905550505091600b019190600b0190613baa565b50613ccf929150613cd3565b5090565b80821115613ccf57600080825560018201819055613cf46002830182613d6a565b6000600383018181556004840180546001600160a01b031916905590613d1d6005850182613d6a565b613d2b600383016000613d6a565b613d39600483016000613d6a565b613d47600583016000613d6a565b50600601805460ff19908116909155600a83018054909116905550600b01613cd3565b508054613d7690614675565b6000825580601f10613d86575050565b601f016020900490600052602060002090810190613da49190613da7565b50565b5b80821115613ccf5760008155600101613da8565b80356001600160a01b0381168114613dd357600080fd5b919050565b600060208284031215613dea57600080fd5b613df382613dbc565b9392505050565b6000815180845260005b81811015613e2057602081850181015186830182015201613e04565b506000602082860101526020601f19601f83011685010191505092915050565b634e487b7160e01b600052602160045260246000fd5b60028110613e6657613e66613e40565b9052565b8051825260018060a01b0360208201511660208301526000604082015160e06040850152613e9b60e0850182613dfa565b905060608301518482036060860152613eb48282613dfa565b91505060808301518482036080860152613ece8282613dfa565b91505060a083015184820360a0860152613ee88282613dfa565b91505060c0830151613efd60c0860182613e56565b509392505050565b60038110613da457613da4613e40565b60006020808301818452808551808352604092508286019150828160051b87010184880160005b83811015613fb657603f19898403018552815160a0815185528882015189860152878201518189870152613f7282870182613dfa565b91505060608083015186830382880152613f8c8382613e6a565b925050506080808301519250613fa183613f05565b94909401529386019390860190600101613f3c565b509098975050505050505050565b60008083601f840112613fd657600080fd5b50813567ffffffffffffffff811115613fee57600080fd5b60208301915083602082850101111561400657600080fd5b9250929050565b60008060008060008060006080888a03121561402857600080fd5b61403188613dbc565b9650602088013567ffffffffffffffff8082111561404e57600080fd5b61405a8b838c01613fc4565b909850965060408a013591508082111561407357600080fd5b61407f8b838c01613fc4565b909650945060608a013591508082111561409857600080fd5b506140a58a828b01613fc4565b989b979a50959850939692959293505050565b6000602082840312156140ca57600080fd5b5035919050565b6000806000806000806000806080898b0312156140ed57600080fd5b883567ffffffffffffffff8082111561410557600080fd5b6141118c838d01613fc4565b909a50985060208b013591508082111561412a57600080fd5b6141368c838d01613fc4565b909850965060408b013591508082111561414f57600080fd5b61415b8c838d01613fc4565b909650945060608b013591508082111561417457600080fd5b506141818b828c01613fc4565b999c989b5096995094979396929594505050565b85815284602082015260a0604082015260006141b460a0830186613dfa565b82810360608401526141c68186613e6a565b9150506141d283613f05565b8260808301529695505050505050565b6000806000604084860312156141f757600080fd5b83359250602084013567ffffffffffffffff81111561421557600080fd5b61422186828701613fc4565b9497909650939450505050565b600061010082518452602083015181602086015261424e82860182613dfa565b915050604083015184820360408601526142688282613dfa565b915050606083015184820360608601526142828282613dfa565b9150506080830151848203608086015261429c8282613dfa565b91505060a08301516142b960a08601826001600160a01b03169052565b5060c08301516142cd60c086018215159052565b5060e0830151613efd60e0860182613e56565b600081518084526020808501808196508360051b8101915082860160005b85811015614377578284038952815160a0815186528682015187870152604080830151828289015261433283890182613dfa565b925050506060808301518783038289015261434d8382613e6a565b92505050608080830151925061436283613f05565b959095015297840197908401906001016142fe565b5091979650505050505050565b613e6681613f05565b60006020808301818452808551808352604092508286019150828160051b87010184880160005b83811015613fb657603f1989840301855281516101208151855288820151818a8701526143e382870182613dfa565b91505087820151858203898701526143fb8282613dfa565b915050606080830151818701525060808083015186830382880152614420838261422e565b9250505060a0808301518683038288015261443b83826142e0565b9250505060c08083015161445182880182614384565b505060e0828101519086015261010091820151919094015293860193908601906001016143b4565b8781526001600160a01b038716602082015260e0604082018190526000906144a390830188613dfa565b82810360608401526144b58188613dfa565b905082810360808401526144c98187613dfa565b905082810360a08401526144dd8186613dfa565b9150506144ed60c0830184613e56565b98975050505050505050565b60006101008a83528060208401526145138184018b613dfa565b90508281036040840152614527818a613dfa565b9050828103606084015261453b8189613dfa565b9050828103608084015261454f8188613dfa565b6001600160a01b03871660a085015285151560c08501529150614577905060e0830184613e56565b9998505050505050505050565b6000806000806000806080878903121561459d57600080fd5b863567ffffffffffffffff808211156145b557600080fd5b6145c18a838b01613fc4565b909850965060208901359150808211156145da57600080fd5b506145e789828a01613fc4565b979a9699509760408101359660609091013595509350505050565b60006101008a835280602084015261461c8184018b613dfa565b90508281036040840152614630818a613dfa565b9050876060840152828103608084015261464a818861422e565b91505061465685613f05565b8460a08301528360c08301528260e08301529998505050505050505050565b600181811c9082168061468957607f821691505b6020821081036146a957634e487b7160e01b600052602260045260246000fd5b50919050565b634e487b7160e01b600052604160045260246000fd5b601f82111561470f57600081815260208120601f850160051c810160208610156146ec5750805b601f850160051c820191505b8181101561470b578281556001016146f8565b5050505b505050565b600019600383901b1c191660019190911b1790565b67ffffffffffffffff831115614741576147416146af565b6147558361474f8354614675565b836146c5565b6000601f84116001811461478357600085156147715750838201355b61477b8682614714565b8455506147dd565b600083815260209020601f19861690835b828110156147b45786850135825560209485019460019092019101614794565b50868210156147d15760001960f88860031b161c19848701351681555b505060018560011b0183555b5050505050565b602081526000613df36020830184613dfa565b634e487b7160e01b600052601160045260246000fd5b81810381811115614820576148206147f7565b92915050565b634e487b7160e01b600052603260045260246000fd5b60006001820161484e5761484e6147f7565b5060010190565b8183823760009101908152919050565b80820180821115614820576148206147f7565b818103614883575050565b61488d8254614675565b67ffffffffffffffff8111156148a5576148a56146af565b6148b9816148b38454614675565b846146c5565b6000601f8211600181146148e757600083156148d55750848201545b6148df8482614714565b8555506147dd565b600085815260209020601f19841690600086815260209020845b838110156149215782860154825560019586019590910190602001614901565b508583101561493f5781850154600019600388901b60f8161c191681555b5050505050600190811b01905550565b815167ffffffffffffffff811115614969576149696146af565b614977816148b38454614675565b602080601f8311600181146149a657600084156149945750858301515b61499e8582614714565b86555061470b565b600085815260208120601f198616915b828110156149d5578886015182559484019460019091019084016149b6565b508582101561493f57939096015160001960f8600387901b161c19169092555050600190811b0190555056fe5468652063616c6c657220646f6573206e6f74206861766520612063726561746f722070726f66696c655468652063616c6c657220646f6573206e6f74206861766520616e206170706c6963616e742070726f66696c65546865206a6f62206f66666572206973206e6f206c6f6e67657220616363657074696e67206170706c69636174696f6e73546865206a6f62206f6666657220686173207265616368656420746865206d6178696d756d206e756d626572206f66206869726573a26469706673582212201d908d7515d5c6432609b80133989647d61011013efbf10588d6573c470c37ae64736f6c63430008130033",
  "immutableReferences": {},
  "source": "// SPDX-License-Identifier: GPL-3.0\n\npragma solidity >=0.7.0 <0.9.0;\n\nimport \"./structs.sol\";\nimport \"./constants.sol\";\n\n/**\n * @title SolJobs\n * @dev Create, apply and award remote jobs on the blockchain\n */\n\ncontract SolJobs {\n    address private manager;\n\n    mapping (address => CreatorProfile) public creatorProfiles;\n    mapping (address => ApplicantProfile) public applicantProfiles;\n\n    uint internal numberOfCreatorProfiles;\n    uint internal numberOfApplicantProfiles;\n\n    mapping (string => bool) private creatorEmails;\n    mapping (string => bool) private applicantEmails;\n\n    mapping (address => bool) private creatorAddresses;\n    mapping (address => bool) private applicantAddresses;\n\n    JobOffer[] public jobOffers;\n    JobApplication[] public jobApplications;\n\n    mapping (address => JobOffer[]) private profileToJobsMapping;\n    mapping (address => JobApplication[]) private profileToApplicationsMapping;\n\n    constructor() {\n        manager = msg.sender;\n    }\n\n    modifier accountIsUnique(string calldata _email) {\n        require(creatorEmails[_email] == false && applicantEmails[_email] == false, emailAlreadyExistsMsg);\n        require(creatorAddresses[tx.origin] == false && applicantAddresses[tx.origin] == false, addressAlreadyExistsMsg);\n\n        _;\n    }\n\n    modifier callerHasCreatorProfile(address _address) {\n        require(creatorAddresses[_address] == true, callerHasNoCreatorProfile);\n\n        _;\n    }\n\n    modifier callerHasApplicantProfile(address _address) {\n        require(applicantAddresses[_address] == true, callerHasNoApplicantProfile);\n\n        _;\n    }\n\n    event CreatorProfileCreated(uint newCreatorID);\n    event ApplicantProfileCreated(uint newApplicantID);\n    event JobCreated(uint newJobID);\n    event ApplicationSubmitted(uint applicationID);\n\n    function createCreatorProfile(\n        string calldata _name,\n        string calldata _email,\n        string calldata _description,\n        string calldata _tagline\n    ) accountIsUnique(_email) external {\n        uint creatorID = ++numberOfCreatorProfiles;\n\n        CreatorProfile storage profile = creatorProfiles[tx.origin];\n        profile.id = creatorID;\n        profile.name = _name;\n        profile.email = _email;\n        profile.description = _description;\n        profile.tagline = _tagline;\n\n        // add to emails and addresses list\n        creatorEmails[_email] = true;\n        creatorAddresses[tx.origin] = true;\n\n        // defaults\n        profile.verified = false;\n        profile.profileType = ProfileType.Creator;\n        profile.creatorAddress = tx.origin;\n\n        emit CreatorProfileCreated(creatorID);\n    }\n\n    function createApplicantProfile(\n        string calldata _fullname,\n        string calldata _email,\n        string calldata _location,\n        string calldata _bio\n    ) external accountIsUnique(_email) {\n        uint applicantID = ++numberOfApplicantProfiles;\n\n        ApplicantProfile storage profile = applicantProfiles[tx.origin];\n        profile.id = applicantID;\n        profile.fullname = _fullname;\n        profile.email = _email;\n        profile.location = _location;\n        profile.bio = _bio;\n        \n        // add to emails and addresses list\n        applicantEmails[_email] = true;\n        applicantAddresses[tx.origin] = true;\n\n        // defaults\n        profile.profileType = ProfileType.Applicant;\n        profile.applicantAddress = tx.origin;\n\n        emit ApplicantProfileCreated(applicantID);\n    }\n\n    function editCreatorProfile(address _address, string calldata _name, string calldata _description, string calldata _tagline) external {\n        require(creatorAddresses[_address], \"Profile does not exist\");\n\n        CreatorProfile storage profileToEdit = creatorProfiles[_address];\n        profileToEdit.name = _name;\n        profileToEdit.description = _description;\n        profileToEdit.tagline = _tagline;\n    }\n\n    function createJobOffer(\n        string calldata title,\n        string calldata description,\n        uint compensation,\n        uint numberOfMaxHires\n    ) external callerHasCreatorProfile(tx.origin) {\n        uint jobID = jobOffers.length + 1;\n\n        JobOffer storage jobOffer = jobOffers.push();\n        jobOffer.id = jobID;\n        jobOffer.title = title;\n        jobOffer.description = description;\n        jobOffer.compensation = compensation;\n        jobOffer.numberOfMaxHires = numberOfMaxHires;\n\n        // defaults\n        CreatorProfile memory creator = creatorProfiles[tx.origin];\n        jobOffer.creator = creator;\n        jobOffer.status = JobOfferStatus.Open;\n        jobOffer.numberHired = 0;\n\n        profileToJobsMapping[tx.origin].push(jobOffer);\n\n        emit JobCreated(jobID);\n    }\n\n    function applyForJob(\n        uint jobID,\n        string calldata coverLetter\n    ) external callerHasApplicantProfile(tx.origin) {\n        require(jobID > 0 && jobID <= jobOffers.length, \"Invalid job ID\");\n\n        uint applicationID = jobApplications.length + 1;\n\n        JobOffer storage jobOffer = jobOffers[jobID - 1];\n        require(jobOffer.status == JobOfferStatus.Open, jobIsNoLongerOpen);\n\n        JobApplication storage jobApplication = jobApplications.push();\n        jobApplication.id = applicationID;\n        jobApplication.jobOfferId = jobID;\n        jobApplication.coverLetter = coverLetter;\n\n        // defaults\n        jobApplication.applicant = applicantProfiles[tx.origin];\n        jobApplication.status = JobApplicationStatus.Pending;\n        jobOffer.applications.push(jobApplication);\n\n        profileToApplicationsMapping[tx.origin].push(jobApplication);\n\n        emit ApplicationSubmitted(applicationID);\n    }\n\n    function approveApplication(uint applicationID) external callerHasCreatorProfile(tx.origin) {\n        // fetch application and the parent job\n        JobApplication storage jobApplication = jobApplications[applicationID - 1];\n        JobOffer storage jobOffer = jobOffers[jobApplication.jobOfferId - 1];\n\n        require(jobOffer.numberHired < jobOffer.numberOfMaxHires, jobMaxedOutHires);\n        require(jobOffer.status == JobOfferStatus.Open, jobIsNoLongerOpen);\n        require(jobApplication.status == JobApplicationStatus.Pending, applicationNotOpen);\n\n        // change application status to approved\n        jobApplication.status = JobApplicationStatus.Approved;\n        jobOffer.numberHired++;\n\n        // close job offer is max number of hires reached\n        if (jobOffer.numberHired == jobOffer.numberOfMaxHires) {\n            jobOffer.status = JobOfferStatus.Filled;\n        }\n    }\n\n    function rejectApplication(uint applicationID) external callerHasCreatorProfile(tx.origin) {\n        JobApplication storage jobApplication = jobApplications[applicationID - 1];\n\n        // reject the application\n        jobApplication.status = JobApplicationStatus.Rejected;\n    }\n\n    function getCreatedJobsForProfile(address profile) public view returns(JobOffer[] memory) {\n        return profileToJobsMapping[profile];\n    }\n\n    function getApplicationsForProfile(address profile) public view returns(JobApplication[] memory) {\n        return profileToApplicationsMapping[profile];\n    }\n\n    function getAllJobsCreated() public view returns(JobOffer[] memory) {\n        return jobOffers;\n    }\n\n    function getApplicationsForJob(uint jobId) public view returns(JobApplication[] memory) {\n        return jobOffers[jobId - 1].applications;\n    }\n}",
  "sourcePath": "/Users/ikennaemeruche/Documents/soljobs-client/truffle/contracts/SolJobs.sol",
  "compiler": {
    "name": "solc",
    "version": "0.8.19+commit.7dd6d404.Emscripten.clang"
  },
  "schemaVersion": "3.4.9",
  "updatedAt": "2023-08-27T10:45:38.296Z",
  "networkType": "ethereum",
  "devdoc": {
    "details": "Create, apply and award remote jobs on the blockchain",
    "kind": "dev",
    "methods": {},
    "title": "SolJobs",
    "version": 1
  },
  "userdoc": {
    "kind": "user",
    "methods": {},
    "version": 1
  }
}